{
	"contracts/TimeLock.sol": {
		"TimeLock": {
			"abi": [
				{
					"inputs": [],
					"stateMutability": "nonpayable",
					"type": "constructor"
				},
				{
					"inputs": [],
					"name": "LockFunds",
					"outputs": [],
					"stateMutability": "nonpayable",
					"type": "function"
				},
				{
					"inputs": [],
					"name": "howManyDaysLeft",
					"outputs": [
						{
							"internalType": "int256",
							"name": "",
							"type": "int256"
						}
					],
					"stateMutability": "view",
					"type": "function"
				},
				{
					"inputs": [],
					"name": "owner",
					"outputs": [
						{
							"internalType": "address",
							"name": "",
							"type": "address"
						}
					],
					"stateMutability": "view",
					"type": "function"
				},
				{
					"inputs": [
						{
							"internalType": "uint256",
							"name": "_amount",
							"type": "uint256"
						}
					],
					"name": "pay",
					"outputs": [],
					"stateMutability": "payable",
					"type": "function"
				},
				{
					"inputs": [],
					"name": "withDrawTax",
					"outputs": [],
					"stateMutability": "nonpayable",
					"type": "function"
				},
				{
					"inputs": [],
					"name": "withdraw",
					"outputs": [],
					"stateMutability": "nonpayable",
					"type": "function"
				},
				{
					"stateMutability": "payable",
					"type": "receive"
				}
			],
			"devdoc": {
				"kind": "dev",
				"methods": {},
				"version": 1
			},
			"evm": {
				"assembly": "    /* \"contracts/TimeLock.sol\":109:3461  contract TimeLock {... */\n  mstore(0x40, 0x80)\n    /* \"contracts/TimeLock.sol\":234:283  constructor() {... */\n  callvalue\n  dup1\n  iszero\n  tag_1\n  jumpi\n  0x00\n  dup1\n  revert\ntag_1:\n  pop\n    /* \"contracts/TimeLock.sol\":266:276  msg.sender */\n  caller\n    /* \"contracts/TimeLock.sol\":258:263  owner */\n  0x00\n  dup1\n    /* \"contracts/TimeLock.sol\":258:276  owner = msg.sender */\n  0x0100\n  exp\n  dup2\n  sload\n  dup2\n  0xffffffffffffffffffffffffffffffffffffffff\n  mul\n  not\n  and\n  swap1\n  dup4\n  0xffffffffffffffffffffffffffffffffffffffff\n  and\n  mul\n  or\n  swap1\n  sstore\n  pop\n    /* \"contracts/TimeLock.sol\":109:3461  contract TimeLock {... */\n  dataSize(sub_0)\n  dup1\n  dataOffset(sub_0)\n  0x00\n  codecopy\n  0x00\n  return\nstop\n\nsub_0: assembly {\n        /* \"contracts/TimeLock.sol\":109:3461  contract TimeLock {... */\n      mstore(0x40, 0x80)\n      jumpi(tag_1, lt(calldatasize, 0x04))\n      shr(0xe0, calldataload(0x00))\n      dup1\n      0x3ccfd60b\n      eq\n      tag_3\n      jumpi\n      dup1\n      0x6faf6445\n      eq\n      tag_4\n      jumpi\n      dup1\n      0x8da5cb5b\n      eq\n      tag_5\n      jumpi\n      dup1\n      0x9f2e606f\n      eq\n      tag_6\n      jumpi\n      dup1\n      0xb5356f7e\n      eq\n      tag_7\n      jumpi\n      dup1\n      0xc290d691\n      eq\n      tag_8\n      jumpi\n      jump(tag_2)\n    tag_1:\n      jumpi(tag_2, calldatasize)\n      stop\n    tag_2:\n      0x00\n      dup1\n      revert\n        /* \"contracts/TimeLock.sol\":2798:3137  function withdraw() userCheck(msg.sender) public {... */\n    tag_3:\n      callvalue\n      dup1\n      iszero\n      tag_11\n      jumpi\n      0x00\n      dup1\n      revert\n    tag_11:\n      pop\n      tag_12\n      tag_13\n      jump\t// in\n    tag_12:\n      stop\n        /* \"contracts/TimeLock.sol\":2404:2795  function LockFunds() userCheck(msg.sender) public {... */\n    tag_4:\n      callvalue\n      dup1\n      iszero\n      tag_14\n      jumpi\n      0x00\n      dup1\n      revert\n    tag_14:\n      pop\n      tag_15\n      tag_16\n      jump\t// in\n    tag_15:\n      stop\n        /* \"contracts/TimeLock.sol\":130:150  address public owner */\n    tag_5:\n      callvalue\n      dup1\n      iszero\n      tag_17\n      jumpi\n      0x00\n      dup1\n      revert\n    tag_17:\n      pop\n      tag_18\n      tag_19\n      jump\t// in\n    tag_18:\n      mload(0x40)\n      tag_20\n      swap2\n      swap1\n      tag_21\n      jump\t// in\n    tag_20:\n      mload(0x40)\n      dup1\n      swap2\n      sub\n      swap1\n      return\n        /* \"contracts/TimeLock.sol\":1050:1773  function howManyDaysLeft() userCheck(msg.sender) public view returns(int) {... */\n    tag_6:\n      callvalue\n      dup1\n      iszero\n      tag_22\n      jumpi\n      0x00\n      dup1\n      revert\n    tag_22:\n      pop\n      tag_23\n      tag_24\n      jump\t// in\n    tag_23:\n      mload(0x40)\n      tag_25\n      swap2\n      swap1\n      tag_26\n      jump\t// in\n    tag_25:\n      mload(0x40)\n      dup1\n      swap2\n      sub\n      swap1\n      return\n        /* \"contracts/TimeLock.sol\":3143:3458  function withDrawTax() isOwner(msg.sender) public {... */\n    tag_7:\n      callvalue\n      dup1\n      iszero\n      tag_27\n      jumpi\n      0x00\n      dup1\n      revert\n    tag_27:\n      pop\n      tag_28\n      tag_29\n      jump\t// in\n    tag_28:\n      stop\n        /* \"contracts/TimeLock.sol\":1814:2237  function pay(uint _amount) payable public {... */\n    tag_8:\n      tag_30\n      0x04\n      dup1\n      calldatasize\n      sub\n      dup2\n      add\n      swap1\n      tag_31\n      swap2\n      swap1\n      tag_32\n      jump\t// in\n    tag_31:\n      tag_33\n      jump\t// in\n    tag_30:\n      stop\n        /* \"contracts/TimeLock.sol\":2798:3137  function withdraw() userCheck(msg.sender) public {... */\n    tag_13:\n        /* \"contracts/TimeLock.sol\":2828:2838  msg.sender */\n      caller\n        /* \"contracts/TimeLock.sol\":727:742  userLockDetails */\n      0x01\n        /* \"contracts/TimeLock.sol\":727:754  userLockDetails[msg.sender] */\n      0x00\n        /* \"contracts/TimeLock.sol\":743:753  msg.sender */\n      caller\n        /* \"contracts/TimeLock.sol\":727:754  userLockDetails[msg.sender] */\n      0xffffffffffffffffffffffffffffffffffffffff\n      and\n      0xffffffffffffffffffffffffffffffffffffffff\n      and\n      dup2\n      mstore\n      0x20\n      add\n      swap1\n      dup2\n      mstore\n      0x20\n      add\n      0x00\n      keccak256\n        /* \"contracts/TimeLock.sol\":727:767  userLockDetails[msg.sender].hasAnAccount */\n      0x03\n      add\n      0x00\n      swap1\n      sload\n      swap1\n      0x0100\n      exp\n      swap1\n      div\n      0xff\n      and\n        /* \"contracts/TimeLock.sol\":719:834  require(userLockDetails[msg.sender].hasAnAccount, \"You have not performed any transaction on this smart contract!\") */\n      tag_35\n      jumpi\n      mload(0x40)\n      0x08c379a000000000000000000000000000000000000000000000000000000000\n      dup2\n      mstore\n      0x04\n      add\n      tag_36\n      swap1\n      tag_37\n      jump\t// in\n    tag_36:\n      mload(0x40)\n      dup1\n      swap2\n      sub\n      swap1\n      revert\n    tag_35:\n        /* \"contracts/TimeLock.sol\":2857:2869  int daysLeft */\n      0x00\n        /* \"contracts/TimeLock.sol\":2872:2889  howManyDaysLeft() */\n      tag_39\n        /* \"contracts/TimeLock.sol\":2872:2887  howManyDaysLeft */\n      tag_24\n        /* \"contracts/TimeLock.sol\":2872:2889  howManyDaysLeft() */\n      jump\t// in\n    tag_39:\n        /* \"contracts/TimeLock.sol\":2857:2889  int daysLeft = howManyDaysLeft() */\n      swap1\n      pop\n        /* \"contracts/TimeLock.sol\":2919:2920  0 */\n      0x00\n        /* \"contracts/TimeLock.sol\":2907:2915  daysLeft */\n      dup2\n        /* \"contracts/TimeLock.sol\":2907:2920  daysLeft <= 0 */\n      sgt\n      iszero\n        /* \"contracts/TimeLock.sol\":2899:2952  require(daysLeft <= 0, \"Your funds are still locked\") */\n      tag_40\n      jumpi\n      mload(0x40)\n      0x08c379a000000000000000000000000000000000000000000000000000000000\n      dup2\n      mstore\n      0x04\n      add\n      tag_41\n      swap1\n      tag_42\n      jump\t// in\n    tag_41:\n      mload(0x40)\n      dup1\n      swap2\n      sub\n      swap1\n      revert\n    tag_40:\n        /* \"contracts/TimeLock.sol\":2962:2979  uint amountLocked */\n      0x00\n        /* \"contracts/TimeLock.sol\":2982:2997  userLockDetails */\n      0x01\n        /* \"contracts/TimeLock.sol\":2982:3009  userLockDetails[msg.sender] */\n      0x00\n        /* \"contracts/TimeLock.sol\":2998:3008  msg.sender */\n      caller\n        /* \"contracts/TimeLock.sol\":2982:3009  userLockDetails[msg.sender] */\n      0xffffffffffffffffffffffffffffffffffffffff\n      and\n      0xffffffffffffffffffffffffffffffffffffffff\n      and\n      dup2\n      mstore\n      0x20\n      add\n      swap1\n      dup2\n      mstore\n      0x20\n      add\n      0x00\n      keccak256\n        /* \"contracts/TimeLock.sol\":2982:3024  userLockDetails[msg.sender].addressBalance */\n      0x02\n      add\n      sload\n        /* \"contracts/TimeLock.sol\":2962:3024  uint amountLocked = userLockDetails[msg.sender].addressBalance */\n      swap1\n      pop\n        /* \"contracts/TimeLock.sol\":3079:3080  0 */\n      0x00\n        /* \"contracts/TimeLock.sol\":3034:3049  userLockDetails */\n      0x01\n        /* \"contracts/TimeLock.sol\":3034:3061  userLockDetails[msg.sender] */\n      0x00\n        /* \"contracts/TimeLock.sol\":3050:3060  msg.sender */\n      caller\n        /* \"contracts/TimeLock.sol\":3034:3061  userLockDetails[msg.sender] */\n      0xffffffffffffffffffffffffffffffffffffffff\n      and\n      0xffffffffffffffffffffffffffffffffffffffff\n      and\n      dup2\n      mstore\n      0x20\n      add\n      swap1\n      dup2\n      mstore\n      0x20\n      add\n      0x00\n      keccak256\n        /* \"contracts/TimeLock.sol\":3034:3076  userLockDetails[msg.sender].addressBalance */\n      0x02\n      add\n        /* \"contracts/TimeLock.sol\":3034:3080  userLockDetails[msg.sender].addressBalance = 0 */\n      dup2\n      swap1\n      sstore\n      pop\n        /* \"contracts/TimeLock.sol\":3099:3109  msg.sender */\n      caller\n        /* \"contracts/TimeLock.sol\":3091:3119  payable(msg.sender).transfer */\n      0xffffffffffffffffffffffffffffffffffffffff\n      and\n        /* \"contracts/TimeLock.sol\":3091:3133  payable(msg.sender).transfer(amountLocked) */\n      0x08fc\n        /* \"contracts/TimeLock.sol\":3120:3132  amountLocked */\n      dup3\n        /* \"contracts/TimeLock.sol\":3091:3133  payable(msg.sender).transfer(amountLocked) */\n      swap1\n      dup2\n      iszero\n      mul\n      swap1\n      mload(0x40)\n      0x00\n      mload(0x40)\n      dup1\n      dup4\n      sub\n      dup2\n      dup6\n      dup9\n      dup9\n      call\n      swap4\n      pop\n      pop\n      pop\n      pop\n      iszero\n      dup1\n      iszero\n      tag_44\n      jumpi\n      returndatasize\n      0x00\n      dup1\n      returndatacopy\n      revert(0x00, returndatasize)\n    tag_44:\n      pop\n        /* \"contracts/TimeLock.sol\":2847:3137  {... */\n      pop\n      pop\n        /* \"contracts/TimeLock.sol\":2798:3137  function withdraw() userCheck(msg.sender) public {... */\n      pop\n      jump\t// out\n        /* \"contracts/TimeLock.sol\":2404:2795  function LockFunds() userCheck(msg.sender) public {... */\n    tag_16:\n        /* \"contracts/TimeLock.sol\":2435:2445  msg.sender */\n      caller\n        /* \"contracts/TimeLock.sol\":727:742  userLockDetails */\n      0x01\n        /* \"contracts/TimeLock.sol\":727:754  userLockDetails[msg.sender] */\n      0x00\n        /* \"contracts/TimeLock.sol\":743:753  msg.sender */\n      caller\n        /* \"contracts/TimeLock.sol\":727:754  userLockDetails[msg.sender] */\n      0xffffffffffffffffffffffffffffffffffffffff\n      and\n      0xffffffffffffffffffffffffffffffffffffffff\n      and\n      dup2\n      mstore\n      0x20\n      add\n      swap1\n      dup2\n      mstore\n      0x20\n      add\n      0x00\n      keccak256\n        /* \"contracts/TimeLock.sol\":727:767  userLockDetails[msg.sender].hasAnAccount */\n      0x03\n      add\n      0x00\n      swap1\n      sload\n      swap1\n      0x0100\n      exp\n      swap1\n      div\n      0xff\n      and\n        /* \"contracts/TimeLock.sol\":719:834  require(userLockDetails[msg.sender].hasAnAccount, \"You have not performed any transaction on this smart contract!\") */\n      tag_46\n      jumpi\n      mload(0x40)\n      0x08c379a000000000000000000000000000000000000000000000000000000000\n      dup2\n      mstore\n      0x04\n      add\n      tag_47\n      swap1\n      tag_37\n      jump\t// in\n    tag_47:\n      mload(0x40)\n      dup1\n      swap2\n      sub\n      swap1\n      revert\n    tag_46:\n        /* \"contracts/TimeLock.sol\":2533:2548  block.timestamp */\n      timestamp\n        /* \"contracts/TimeLock.sol\":2504:2522  365 * 24 * 60 * 60 */\n      0x01e13380\n        /* \"contracts/TimeLock.sol\":2503:2549  (365 * 24 * 60 * 60) + int256(block.timestamp) */\n      tag_49\n      swap2\n      swap1\n      tag_50\n      jump\t// in\n    tag_49:\n        /* \"contracts/TimeLock.sol\":2464:2479  userLockDetails */\n      0x01\n        /* \"contracts/TimeLock.sol\":2464:2491  userLockDetails[msg.sender] */\n      0x00\n        /* \"contracts/TimeLock.sol\":2480:2490  msg.sender */\n      caller\n        /* \"contracts/TimeLock.sol\":2464:2491  userLockDetails[msg.sender] */\n      0xffffffffffffffffffffffffffffffffffffffff\n      and\n      0xffffffffffffffffffffffffffffffffffffffff\n      and\n      dup2\n      mstore\n      0x20\n      add\n      swap1\n      dup2\n      mstore\n      0x20\n      add\n      0x00\n      keccak256\n        /* \"contracts/TimeLock.sol\":2464:2500  userLockDetails[msg.sender].lockTime */\n      0x00\n      add\n        /* \"contracts/TimeLock.sol\":2464:2549  userLockDetails[msg.sender].lockTime = (365 * 24 * 60 * 60) + int256(block.timestamp) */\n      dup2\n      swap1\n      sstore\n      pop\n        /* \"contracts/TimeLock.sol\":2681:2696  block.timestamp */\n      timestamp\n        /* \"contracts/TimeLock.sol\":2641:2656  userLockDetails */\n      0x01\n        /* \"contracts/TimeLock.sol\":2641:2668  userLockDetails[msg.sender] */\n      0x00\n        /* \"contracts/TimeLock.sol\":2657:2667  msg.sender */\n      caller\n        /* \"contracts/TimeLock.sol\":2641:2668  userLockDetails[msg.sender] */\n      0xffffffffffffffffffffffffffffffffffffffff\n      and\n      0xffffffffffffffffffffffffffffffffffffffff\n      and\n      dup2\n      mstore\n      0x20\n      add\n      swap1\n      dup2\n      mstore\n      0x20\n      add\n      0x00\n      keccak256\n        /* \"contracts/TimeLock.sol\":2641:2678  userLockDetails[msg.sender].startTime */\n      0x01\n      add\n        /* \"contracts/TimeLock.sol\":2641:2696  userLockDetails[msg.sender].startTime = block.timestamp */\n      dup2\n      swap1\n      sstore\n      pop\n        /* \"contracts/TimeLock.sol\":2751:2755  true */\n      0x01\n        /* \"contracts/TimeLock.sol\":2706:2721  userLockDetails */\n      dup1\n        /* \"contracts/TimeLock.sol\":2706:2733  userLockDetails[msg.sender] */\n      0x00\n        /* \"contracts/TimeLock.sol\":2722:2732  msg.sender */\n      caller\n        /* \"contracts/TimeLock.sol\":2706:2733  userLockDetails[msg.sender] */\n      0xffffffffffffffffffffffffffffffffffffffff\n      and\n      0xffffffffffffffffffffffffffffffffffffffff\n      and\n      dup2\n      mstore\n      0x20\n      add\n      swap1\n      dup2\n      mstore\n      0x20\n      add\n      0x00\n      keccak256\n        /* \"contracts/TimeLock.sol\":2706:2748  userLockDetails[msg.sender].hasLockedFunds */\n      0x03\n      add\n      0x01\n        /* \"contracts/TimeLock.sol\":2706:2755  userLockDetails[msg.sender].hasLockedFunds = true */\n      0x0100\n      exp\n      dup2\n      sload\n      dup2\n      0xff\n      mul\n      not\n      and\n      swap1\n      dup4\n      iszero\n      iszero\n      mul\n      or\n      swap1\n      sstore\n      pop\n        /* \"contracts/TimeLock.sol\":2765:2791  taxLockedFunds(msg.sender) */\n      tag_51\n        /* \"contracts/TimeLock.sol\":2780:2790  msg.sender */\n      caller\n        /* \"contracts/TimeLock.sol\":2765:2779  taxLockedFunds */\n      tag_52\n        /* \"contracts/TimeLock.sol\":2765:2791  taxLockedFunds(msg.sender) */\n      jump\t// in\n    tag_51:\n        /* \"contracts/TimeLock.sol\":2404:2795  function LockFunds() userCheck(msg.sender) public {... */\n      pop\n      jump\t// out\n        /* \"contracts/TimeLock.sol\":130:150  address public owner */\n    tag_19:\n      0x00\n      dup1\n      sload\n      swap1\n      0x0100\n      exp\n      swap1\n      div\n      0xffffffffffffffffffffffffffffffffffffffff\n      and\n      dup2\n      jump\t// out\n        /* \"contracts/TimeLock.sol\":1050:1773  function howManyDaysLeft() userCheck(msg.sender) public view returns(int) {... */\n    tag_24:\n        /* \"contracts/TimeLock.sol\":1119:1122  int */\n      0x00\n        /* \"contracts/TimeLock.sol\":1087:1097  msg.sender */\n      caller\n        /* \"contracts/TimeLock.sol\":727:742  userLockDetails */\n      0x01\n        /* \"contracts/TimeLock.sol\":727:754  userLockDetails[msg.sender] */\n      0x00\n        /* \"contracts/TimeLock.sol\":743:753  msg.sender */\n      caller\n        /* \"contracts/TimeLock.sol\":727:754  userLockDetails[msg.sender] */\n      0xffffffffffffffffffffffffffffffffffffffff\n      and\n      0xffffffffffffffffffffffffffffffffffffffff\n      and\n      dup2\n      mstore\n      0x20\n      add\n      swap1\n      dup2\n      mstore\n      0x20\n      add\n      0x00\n      keccak256\n        /* \"contracts/TimeLock.sol\":727:767  userLockDetails[msg.sender].hasAnAccount */\n      0x03\n      add\n      0x00\n      swap1\n      sload\n      swap1\n      0x0100\n      exp\n      swap1\n      div\n      0xff\n      and\n        /* \"contracts/TimeLock.sol\":719:834  require(userLockDetails[msg.sender].hasAnAccount, \"You have not performed any transaction on this smart contract!\") */\n      tag_54\n      jumpi\n      mload(0x40)\n      0x08c379a000000000000000000000000000000000000000000000000000000000\n      dup2\n      mstore\n      0x04\n      add\n      tag_55\n      swap1\n      tag_37\n      jump\t// in\n    tag_55:\n      mload(0x40)\n      dup1\n      swap2\n      sub\n      swap1\n      revert\n    tag_54:\n        /* \"contracts/TimeLock.sol\":1138:1153  userLockDetails */\n      0x01\n        /* \"contracts/TimeLock.sol\":1138:1165  userLockDetails[msg.sender] */\n      0x00\n        /* \"contracts/TimeLock.sol\":1154:1164  msg.sender */\n      caller\n        /* \"contracts/TimeLock.sol\":1138:1165  userLockDetails[msg.sender] */\n      0xffffffffffffffffffffffffffffffffffffffff\n      and\n      0xffffffffffffffffffffffffffffffffffffffff\n      and\n      dup2\n      mstore\n      0x20\n      add\n      swap1\n      dup2\n      mstore\n      0x20\n      add\n      0x00\n      keccak256\n        /* \"contracts/TimeLock.sol\":1138:1180  userLockDetails[msg.sender].hasLockedFunds */\n      0x03\n      add\n      0x01\n      swap1\n      sload\n      swap1\n      0x0100\n      exp\n      swap1\n      div\n      0xff\n      and\n        /* \"contracts/TimeLock.sol\":1134:1190  if(!userLockDetails[msg.sender].hasLockedFunds) return 0 */\n      tag_57\n      jumpi\n        /* \"contracts/TimeLock.sol\":1189:1190  0 */\n      0x00\n        /* \"contracts/TimeLock.sol\":1182:1190  return 0 */\n      swap2\n      pop\n      jump(tag_56)\n        /* \"contracts/TimeLock.sol\":1134:1190  if(!userLockDetails[msg.sender].hasLockedFunds) return 0 */\n    tag_57:\n        /* \"contracts/TimeLock.sol\":1208:1223  userLockDetails */\n      0x01\n        /* \"contracts/TimeLock.sol\":1208:1235  userLockDetails[msg.sender] */\n      0x00\n        /* \"contracts/TimeLock.sol\":1224:1234  msg.sender */\n      caller\n        /* \"contracts/TimeLock.sol\":1208:1235  userLockDetails[msg.sender] */\n      0xffffffffffffffffffffffffffffffffffffffff\n      and\n      0xffffffffffffffffffffffffffffffffffffffff\n      and\n      dup2\n      mstore\n      0x20\n      add\n      swap1\n      dup2\n      mstore\n      0x20\n      add\n      0x00\n      keccak256\n        /* \"contracts/TimeLock.sol\":1208:1250  userLockDetails[msg.sender].hasLockedFunds */\n      0x03\n      add\n      0x01\n      swap1\n      sload\n      swap1\n      0x0100\n      exp\n      swap1\n      div\n      0xff\n      and\n        /* \"contracts/TimeLock.sol\":1200:1284  require(userLockDetails[msg.sender].hasLockedFunds, \"You haven't locked funds yet!\") */\n      tag_58\n      jumpi\n      mload(0x40)\n      0x08c379a000000000000000000000000000000000000000000000000000000000\n      dup2\n      mstore\n      0x04\n      add\n      tag_59\n      swap1\n      tag_60\n      jump\t// in\n    tag_59:\n      mload(0x40)\n      dup1\n      swap2\n      sub\n      swap1\n      revert\n    tag_58:\n        /* \"contracts/TimeLock.sol\":1294:1311  int fundsLockTime */\n      0x00\n        /* \"contracts/TimeLock.sol\":1314:1329  userLockDetails */\n      0x01\n        /* \"contracts/TimeLock.sol\":1314:1341  userLockDetails[msg.sender] */\n      0x00\n        /* \"contracts/TimeLock.sol\":1330:1340  msg.sender */\n      caller\n        /* \"contracts/TimeLock.sol\":1314:1341  userLockDetails[msg.sender] */\n      0xffffffffffffffffffffffffffffffffffffffff\n      and\n      0xffffffffffffffffffffffffffffffffffffffff\n      and\n      dup2\n      mstore\n      0x20\n      add\n      swap1\n      dup2\n      mstore\n      0x20\n      add\n      0x00\n      keccak256\n        /* \"contracts/TimeLock.sol\":1314:1350  userLockDetails[msg.sender].lockTime */\n      0x00\n      add\n      sload\n        /* \"contracts/TimeLock.sol\":1294:1350  int fundsLockTime = userLockDetails[msg.sender].lockTime */\n      swap1\n      pop\n        /* \"contracts/TimeLock.sol\":1360:1376  uint presentTime */\n      0x00\n        /* \"contracts/TimeLock.sol\":1379:1394  block.timestamp */\n      timestamp\n        /* \"contracts/TimeLock.sol\":1360:1394  uint presentTime = block.timestamp */\n      swap1\n      pop\n        /* \"contracts/TimeLock.sol\":1405:1434  int256 howmanydayshaveElapsed */\n      0x00\n        /* \"contracts/TimeLock.sol\":1484:1493  3600 * 24 */\n      0x015180\n        /* \"contracts/TimeLock.sol\":1467:1478  presentTime */\n      dup3\n        /* \"contracts/TimeLock.sol\":1444:1457  fundsLockTime */\n      dup5\n        /* \"contracts/TimeLock.sol\":1444:1479  fundsLockTime - int256(presentTime) */\n      tag_61\n      swap2\n      swap1\n      tag_62\n      jump\t// in\n    tag_61:\n        /* \"contracts/TimeLock.sol\":1437:1494  int256(fundsLockTime - int256(presentTime)) / (3600 * 24) */\n      tag_63\n      swap2\n      swap1\n      tag_64\n      jump\t// in\n    tag_63:\n        /* \"contracts/TimeLock.sol\":1405:1494  int256 howmanydayshaveElapsed = int256(fundsLockTime - int256(presentTime)) / (3600 * 24) */\n      swap1\n      pop\n        /* \"contracts/TimeLock.sol\":1716:1717  0 */\n      0x00\n        /* \"contracts/TimeLock.sol\":1691:1713  howmanydayshaveElapsed */\n      dup2\n        /* \"contracts/TimeLock.sol\":1691:1717  howmanydayshaveElapsed < 0 */\n      slt\n        /* \"contracts/TimeLock.sol\":1688:1727  if(howmanydayshaveElapsed < 0) return 0 */\n      iszero\n      tag_65\n      jumpi\n        /* \"contracts/TimeLock.sol\":1726:1727  0 */\n      0x00\n        /* \"contracts/TimeLock.sol\":1719:1727  return 0 */\n      swap5\n      pop\n      pop\n      pop\n      pop\n      jump(tag_56)\n        /* \"contracts/TimeLock.sol\":1688:1727  if(howmanydayshaveElapsed < 0) return 0 */\n    tag_65:\n        /* \"contracts/TimeLock.sol\":1744:1766  howmanydayshaveElapsed */\n      dup1\n        /* \"contracts/TimeLock.sol\":1737:1766  return howmanydayshaveElapsed */\n      swap5\n      pop\n      pop\n      pop\n      pop\n        /* \"contracts/TimeLock.sol\":838:839  _ */\n    tag_56:\n        /* \"contracts/TimeLock.sol\":1050:1773  function howManyDaysLeft() userCheck(msg.sender) public view returns(int) {... */\n      pop\n      swap1\n      jump\t// out\n        /* \"contracts/TimeLock.sol\":3143:3458  function withDrawTax() isOwner(msg.sender) public {... */\n    tag_29:\n        /* \"contracts/TimeLock.sol\":3174:3184  msg.sender */\n      caller\n        /* \"contracts/TimeLock.sol\":605:613  _account */\n      dup1\n        /* \"contracts/TimeLock.sol\":596:613  owner == _account */\n      0xffffffffffffffffffffffffffffffffffffffff\n      and\n        /* \"contracts/TimeLock.sol\":596:601  owner */\n      0x00\n      dup1\n      sload\n      swap1\n      0x0100\n      exp\n      swap1\n      div\n      0xffffffffffffffffffffffffffffffffffffffff\n      and\n        /* \"contracts/TimeLock.sol\":596:613  owner == _account */\n      0xffffffffffffffffffffffffffffffffffffffff\n      and\n      eq\n        /* \"contracts/TimeLock.sol\":588:658  require(owner == _account, \"This feature is restricted to the owner!\") */\n      tag_67\n      jumpi\n      mload(0x40)\n      0x08c379a000000000000000000000000000000000000000000000000000000000\n      dup2\n      mstore\n      0x04\n      add\n      tag_68\n      swap1\n      tag_69\n      jump\t// in\n    tag_68:\n      mload(0x40)\n      dup1\n      swap2\n      sub\n      swap1\n      revert\n    tag_67:\n        /* \"contracts/TimeLock.sol\":3283:3284  0 */\n      0x00\n        /* \"contracts/TimeLock.sol\":3262:3272  taxBalance */\n      0x02\n        /* \"contracts/TimeLock.sol\":3262:3279  taxBalance[owner] */\n      0x00\n        /* \"contracts/TimeLock.sol\":3273:3278  owner */\n      dup1\n      0x00\n      swap1\n      sload\n      swap1\n      0x0100\n      exp\n      swap1\n      div\n      0xffffffffffffffffffffffffffffffffffffffff\n      and\n        /* \"contracts/TimeLock.sol\":3262:3279  taxBalance[owner] */\n      0xffffffffffffffffffffffffffffffffffffffff\n      and\n      0xffffffffffffffffffffffffffffffffffffffff\n      and\n      dup2\n      mstore\n      0x20\n      add\n      swap1\n      dup2\n      mstore\n      0x20\n      add\n      0x00\n      keccak256\n      sload\n        /* \"contracts/TimeLock.sol\":3262:3284  taxBalance[owner] >= 0 */\n      lt\n      iszero\n        /* \"contracts/TimeLock.sol\":3254:3358  require(taxBalance[owner] >= 0, unicode\"Your smart contract hasn't generated funds yet, chill out!😂\") */\n      tag_71\n      jumpi\n      mload(0x40)\n      0x08c379a000000000000000000000000000000000000000000000000000000000\n      dup2\n      mstore\n      0x04\n      add\n      tag_72\n      swap1\n      tag_73\n      jump\t// in\n    tag_72:\n      mload(0x40)\n      dup1\n      swap2\n      sub\n      swap1\n      revert\n    tag_71:\n        /* \"contracts/TimeLock.sol\":3388:3389  0 */\n      0x00\n        /* \"contracts/TimeLock.sol\":3368:3378  taxBalance */\n      0x02\n        /* \"contracts/TimeLock.sol\":3368:3385  taxBalance[owner] */\n      0x00\n        /* \"contracts/TimeLock.sol\":3379:3384  owner */\n      dup1\n      0x00\n      swap1\n      sload\n      swap1\n      0x0100\n      exp\n      swap1\n      div\n      0xffffffffffffffffffffffffffffffffffffffff\n      and\n        /* \"contracts/TimeLock.sol\":3368:3385  taxBalance[owner] */\n      0xffffffffffffffffffffffffffffffffffffffff\n      and\n      0xffffffffffffffffffffffffffffffffffffffff\n      and\n      dup2\n      mstore\n      0x20\n      add\n      swap1\n      dup2\n      mstore\n      0x20\n      add\n      0x00\n      keccak256\n        /* \"contracts/TimeLock.sol\":3368:3389  taxBalance[owner] = 0 */\n      dup2\n      swap1\n      sstore\n      pop\n        /* \"contracts/TimeLock.sol\":3408:3418  msg.sender */\n      caller\n        /* \"contracts/TimeLock.sol\":3400:3428  payable(msg.sender).transfer */\n      0xffffffffffffffffffffffffffffffffffffffff\n      and\n        /* \"contracts/TimeLock.sol\":3400:3451  payable(msg.sender).transfer(address(this).balance) */\n      0x08fc\n        /* \"contracts/TimeLock.sol\":3429:3450  address(this).balance */\n      selfbalance\n        /* \"contracts/TimeLock.sol\":3400:3451  payable(msg.sender).transfer(address(this).balance) */\n      swap1\n      dup2\n      iszero\n      mul\n      swap1\n      mload(0x40)\n      0x00\n      mload(0x40)\n      dup1\n      dup4\n      sub\n      dup2\n      dup6\n      dup9\n      dup9\n      call\n      swap4\n      pop\n      pop\n      pop\n      pop\n      iszero\n      dup1\n      iszero\n      tag_75\n      jumpi\n      returndatasize\n      0x00\n      dup1\n      returndatacopy\n      revert(0x00, returndatasize)\n    tag_75:\n      pop\n        /* \"contracts/TimeLock.sol\":3143:3458  function withDrawTax() isOwner(msg.sender) public {... */\n      pop\n      jump\t// out\n        /* \"contracts/TimeLock.sol\":1814:2237  function pay(uint _amount) payable public {... */\n    tag_33:\n        /* \"contracts/TimeLock.sol\":1887:1894  _amount */\n      dup1\n        /* \"contracts/TimeLock.sol\":1874:1883  msg.value */\n      callvalue\n        /* \"contracts/TimeLock.sol\":1874:1894  msg.value == _amount */\n      eq\n        /* \"contracts/TimeLock.sol\":1866:1954  require(msg.value == _amount, \"The amount indicated must be same as the transfer value\") */\n      tag_77\n      jumpi\n      mload(0x40)\n      0x08c379a000000000000000000000000000000000000000000000000000000000\n      dup2\n      mstore\n      0x04\n      add\n      tag_78\n      swap1\n      tag_79\n      jump\t// in\n    tag_78:\n      mload(0x40)\n      dup1\n      swap2\n      sub\n      swap1\n      revert\n    tag_77:\n        /* \"contracts/TimeLock.sol\":191:204  0.00055 ether */\n      0x01f438daa06000\n        /* \"contracts/TimeLock.sol\":1972:1979  _amount */\n      dup2\n        /* \"contracts/TimeLock.sol\":1972:1990  _amount > fixedTax */\n      gt\n        /* \"contracts/TimeLock.sol\":2045:2071  Strings.toString(fixedTax) */\n      tag_80\n        /* \"contracts/TimeLock.sol\":191:204  0.00055 ether */\n      0x01f438daa06000\n        /* \"contracts/TimeLock.sol\":2045:2061  Strings.toString */\n      tag_81\n        /* \"contracts/TimeLock.sol\":2045:2071  Strings.toString(fixedTax) */\n      jump\t// in\n    tag_80:\n        /* \"contracts/TimeLock.sol\":1992:2109  string.concat(\"The amount you can lock must exeed \", Strings.toString(fixedTax), \". The fee for using this service.\") */\n      add(0x20, mload(0x40))\n      tag_82\n      swap2\n      swap1\n      tag_83\n      jump\t// in\n    tag_82:\n      mload(0x40)\n      0x20\n      dup2\n      dup4\n      sub\n      sub\n      dup2\n      mstore\n      swap1\n      0x40\n      mstore\n        /* \"contracts/TimeLock.sol\":1964:2110  require(_amount > fixedTax, string.concat(\"The amount you can lock must exeed \", Strings.toString(fixedTax), \". The fee for using this service.\")) */\n      swap1\n      tag_84\n      jumpi\n      mload(0x40)\n      0x08c379a000000000000000000000000000000000000000000000000000000000\n      dup2\n      mstore\n      0x04\n      add\n      tag_85\n      swap2\n      swap1\n      tag_86\n      jump\t// in\n    tag_85:\n      mload(0x40)\n      dup1\n      swap2\n      sub\n      swap1\n      revert\n    tag_84:\n      pop\n        /* \"contracts/TimeLock.sol\":2164:2168  true */\n      0x01\n        /* \"contracts/TimeLock.sol\":2120:2135  userLockDetails */\n      dup1\n        /* \"contracts/TimeLock.sol\":2120:2147  userLockDetails[msg.sender] */\n      0x00\n        /* \"contracts/TimeLock.sol\":2136:2146  msg.sender */\n      caller\n        /* \"contracts/TimeLock.sol\":2120:2147  userLockDetails[msg.sender] */\n      0xffffffffffffffffffffffffffffffffffffffff\n      and\n      0xffffffffffffffffffffffffffffffffffffffff\n      and\n      dup2\n      mstore\n      0x20\n      add\n      swap1\n      dup2\n      mstore\n      0x20\n      add\n      0x00\n      keccak256\n        /* \"contracts/TimeLock.sol\":2120:2160  userLockDetails[msg.sender].hasAnAccount */\n      0x03\n      add\n      0x00\n        /* \"contracts/TimeLock.sol\":2120:2168  userLockDetails[msg.sender].hasAnAccount  = true */\n      0x0100\n      exp\n      dup2\n      sload\n      dup2\n      0xff\n      mul\n      not\n      and\n      swap1\n      dup4\n      iszero\n      iszero\n      mul\n      or\n      swap1\n      sstore\n      pop\n        /* \"contracts/TimeLock.sol\":2223:2230  _amount */\n      dup1\n        /* \"contracts/TimeLock.sol\":2178:2193  userLockDetails */\n      0x01\n        /* \"contracts/TimeLock.sol\":2178:2205  userLockDetails[msg.sender] */\n      0x00\n        /* \"contracts/TimeLock.sol\":2194:2204  msg.sender */\n      caller\n        /* \"contracts/TimeLock.sol\":2178:2205  userLockDetails[msg.sender] */\n      0xffffffffffffffffffffffffffffffffffffffff\n      and\n      0xffffffffffffffffffffffffffffffffffffffff\n      and\n      dup2\n      mstore\n      0x20\n      add\n      swap1\n      dup2\n      mstore\n      0x20\n      add\n      0x00\n      keccak256\n        /* \"contracts/TimeLock.sol\":2178:2220  userLockDetails[msg.sender].addressBalance */\n      0x02\n      add\n        /* \"contracts/TimeLock.sol\":2178:2230  userLockDetails[msg.sender].addressBalance = _amount */\n      dup2\n      swap1\n      sstore\n      pop\n        /* \"contracts/TimeLock.sol\":1814:2237  function pay(uint _amount) payable public {... */\n      pop\n      jump\t// out\n        /* \"contracts/TimeLock.sol\":2243:2401  function taxLockedFunds(address _address) private {... */\n    tag_52:\n        /* \"contracts/TimeLock.sol\":191:204  0.00055 ether */\n      0x01f438daa06000\n        /* \"contracts/TimeLock.sol\":2303:2318  userLockDetails */\n      0x01\n        /* \"contracts/TimeLock.sol\":2303:2328  userLockDetails[_address] */\n      0x00\n        /* \"contracts/TimeLock.sol\":2319:2327  _address */\n      dup4\n        /* \"contracts/TimeLock.sol\":2303:2328  userLockDetails[_address] */\n      0xffffffffffffffffffffffffffffffffffffffff\n      and\n      0xffffffffffffffffffffffffffffffffffffffff\n      and\n      dup2\n      mstore\n      0x20\n      add\n      swap1\n      dup2\n      mstore\n      0x20\n      add\n      0x00\n      keccak256\n        /* \"contracts/TimeLock.sol\":2303:2343  userLockDetails[_address].addressBalance */\n      0x02\n      add\n      0x00\n        /* \"contracts/TimeLock.sol\":2303:2355  userLockDetails[_address].addressBalance -= fixedTax */\n      dup3\n      dup3\n      sload\n      tag_88\n      swap2\n      swap1\n      tag_89\n      jump\t// in\n    tag_88:\n      swap3\n      pop\n      pop\n      dup2\n      swap1\n      sstore\n      pop\n        /* \"contracts/TimeLock.sol\":191:204  0.00055 ether */\n      0x01f438daa06000\n        /* \"contracts/TimeLock.sol\":2365:2375  taxBalance */\n      0x02\n        /* \"contracts/TimeLock.sol\":2365:2382  taxBalance[owner] */\n      0x00\n        /* \"contracts/TimeLock.sol\":2376:2381  owner */\n      dup1\n      0x00\n      swap1\n      sload\n      swap1\n      0x0100\n      exp\n      swap1\n      div\n      0xffffffffffffffffffffffffffffffffffffffff\n      and\n        /* \"contracts/TimeLock.sol\":2365:2382  taxBalance[owner] */\n      0xffffffffffffffffffffffffffffffffffffffff\n      and\n      0xffffffffffffffffffffffffffffffffffffffff\n      and\n      dup2\n      mstore\n      0x20\n      add\n      swap1\n      dup2\n      mstore\n      0x20\n      add\n      0x00\n      keccak256\n      0x00\n        /* \"contracts/TimeLock.sol\":2365:2394  taxBalance[owner] += fixedTax */\n      dup3\n      dup3\n      sload\n      tag_90\n      swap2\n      swap1\n      tag_91\n      jump\t// in\n    tag_90:\n      swap3\n      pop\n      pop\n      dup2\n      swap1\n      sstore\n      pop\n        /* \"contracts/TimeLock.sol\":2243:2401  function taxLockedFunds(address _address) private {... */\n      pop\n      jump\t// out\n        /* \"@openzeppelin/contracts/utils/Strings.sol\":447:1143  function toString(uint256 value) internal pure returns (string memory) {... */\n    tag_81:\n        /* \"@openzeppelin/contracts/utils/Strings.sol\":503:516  string memory */\n      0x60\n        /* \"@openzeppelin/contracts/utils/Strings.sol\":552:566  uint256 length */\n      0x00\n        /* \"@openzeppelin/contracts/utils/Strings.sol\":589:590  1 */\n      0x01\n        /* \"@openzeppelin/contracts/utils/Strings.sol\":569:586  Math.log10(value) */\n      tag_93\n        /* \"@openzeppelin/contracts/utils/Strings.sol\":580:585  value */\n      dup5\n        /* \"@openzeppelin/contracts/utils/Strings.sol\":569:579  Math.log10 */\n      tag_94\n        /* \"@openzeppelin/contracts/utils/Strings.sol\":569:586  Math.log10(value) */\n      jump\t// in\n    tag_93:\n        /* \"@openzeppelin/contracts/utils/Strings.sol\":569:590  Math.log10(value) + 1 */\n      add\n        /* \"@openzeppelin/contracts/utils/Strings.sol\":552:590  uint256 length = Math.log10(value) + 1 */\n      swap1\n      pop\n        /* \"@openzeppelin/contracts/utils/Strings.sol\":604:624  string memory buffer */\n      0x00\n        /* \"@openzeppelin/contracts/utils/Strings.sol\":638:644  length */\n      dup2\n        /* \"@openzeppelin/contracts/utils/Strings.sol\":627:645  new string(length) */\n      0xffffffffffffffff\n      dup2\n      gt\n      iszero\n      tag_95\n      jumpi\n      tag_96\n      tag_97\n      jump\t// in\n    tag_96:\n    tag_95:\n      mload(0x40)\n      swap1\n      dup1\n      dup3\n      mstore\n      dup1\n      0x1f\n      add\n      not(0x1f)\n      and\n      0x20\n      add\n      dup3\n      add\n      0x40\n      mstore\n      dup1\n      iszero\n      tag_98\n      jumpi\n      dup2\n      0x20\n      add\n      0x01\n      dup3\n      mul\n      dup1\n      calldatasize\n      dup4\n      calldatacopy\n      dup1\n      dup3\n      add\n      swap2\n      pop\n      pop\n      swap1\n      pop\n    tag_98:\n      pop\n        /* \"@openzeppelin/contracts/utils/Strings.sol\":604:645  string memory buffer = new string(length) */\n      swap1\n      pop\n        /* \"@openzeppelin/contracts/utils/Strings.sol\":659:670  uint256 ptr */\n      0x00\n        /* \"@openzeppelin/contracts/utils/Strings.sol\":785:791  length */\n      dup3\n        /* \"@openzeppelin/contracts/utils/Strings.sol\":781:783  32 */\n      0x20\n        /* \"@openzeppelin/contracts/utils/Strings.sol\":777:792  add(32, length) */\n      add\n        /* \"@openzeppelin/contracts/utils/Strings.sol\":769:775  buffer */\n      dup3\n        /* \"@openzeppelin/contracts/utils/Strings.sol\":765:793  add(buffer, add(32, length)) */\n      add\n        /* \"@openzeppelin/contracts/utils/Strings.sol\":758:793  ptr := add(buffer, add(32, length)) */\n      swap1\n      pop\n        /* \"@openzeppelin/contracts/utils/Strings.sol\":820:1100  while (true) {... */\n    tag_99:\n        /* \"@openzeppelin/contracts/utils/Strings.sol\":827:831  true */\n      0x01\n        /* \"@openzeppelin/contracts/utils/Strings.sol\":820:1100  while (true) {... */\n      iszero\n      tag_100\n      jumpi\n        /* \"@openzeppelin/contracts/utils/Strings.sol\":851:856  ptr-- */\n      dup1\n      dup1\n      0x01\n      swap1\n      sub\n      swap2\n      pop\n      pop\n        /* \"@openzeppelin/contracts/utils/Strings.sol\":990:998  _SYMBOLS */\n      0x3031323334353637383961626364656600000000000000000000000000000000\n        /* \"@openzeppelin/contracts/utils/Strings.sol\":985:987  10 */\n      0x0a\n        /* \"@openzeppelin/contracts/utils/Strings.sol\":978:983  value */\n      dup7\n        /* \"@openzeppelin/contracts/utils/Strings.sol\":974:988  mod(value, 10) */\n      mod\n        /* \"@openzeppelin/contracts/utils/Strings.sol\":969:999  byte(mod(value, 10), _SYMBOLS) */\n      byte\n        /* \"@openzeppelin/contracts/utils/Strings.sol\":964:967  ptr */\n      dup2\n        /* \"@openzeppelin/contracts/utils/Strings.sol\":956:1000  mstore8(ptr, byte(mod(value, 10), _SYMBOLS)) */\n      mstore8\n        /* \"@openzeppelin/contracts/utils/Strings.sol\":1044:1046  10 */\n      0x0a\n        /* \"@openzeppelin/contracts/utils/Strings.sol\":1035:1046  value /= 10 */\n      dup6\n      dup2\n      tag_101\n      jumpi\n      tag_102\n      tag_103\n      jump\t// in\n    tag_102:\n    tag_101:\n      div\n      swap5\n      pop\n        /* \"@openzeppelin/contracts/utils/Strings.sol\":1077:1078  0 */\n      0x00\n        /* \"@openzeppelin/contracts/utils/Strings.sol\":1068:1073  value */\n      dup6\n        /* \"@openzeppelin/contracts/utils/Strings.sol\":1068:1078  value == 0 */\n      sub\n        /* \"@openzeppelin/contracts/utils/Strings.sol\":820:1100  while (true) {... */\n      tag_99\n        /* \"@openzeppelin/contracts/utils/Strings.sol\":1064:1085  if (value == 0) break */\n      jumpi\n        /* \"@openzeppelin/contracts/utils/Strings.sol\":820:1100  while (true) {... */\n    tag_100:\n        /* \"@openzeppelin/contracts/utils/Strings.sol\":1120:1126  buffer */\n      dup2\n        /* \"@openzeppelin/contracts/utils/Strings.sol\":1113:1126  return buffer */\n      swap4\n      pop\n      pop\n      pop\n      pop\n        /* \"@openzeppelin/contracts/utils/Strings.sol\":447:1143  function toString(uint256 value) internal pure returns (string memory) {... */\n      swap2\n      swap1\n      pop\n      jump\t// out\n        /* \"@openzeppelin/contracts/utils/math/Math.sol\":10139:11055  function log10(uint256 value) internal pure returns (uint256) {... */\n    tag_94:\n        /* \"@openzeppelin/contracts/utils/math/Math.sol\":10192:10199  uint256 */\n      0x00\n        /* \"@openzeppelin/contracts/utils/math/Math.sol\":10211:10225  uint256 result */\n      dup1\n        /* \"@openzeppelin/contracts/utils/math/Math.sol\":10228:10229  0 */\n      0x00\n        /* \"@openzeppelin/contracts/utils/math/Math.sol\":10211:10229  uint256 result = 0 */\n      swap1\n      pop\n        /* \"@openzeppelin/contracts/utils/math/Math.sol\":10276:10284  10 ** 64 */\n      0x184f03e93ff9f4daa797ed6e38ed64bf6a1f010000000000000000\n        /* \"@openzeppelin/contracts/utils/math/Math.sol\":10267:10272  value */\n      dup4\n        /* \"@openzeppelin/contracts/utils/math/Math.sol\":10267:10284  value >= 10 ** 64 */\n      lt\n        /* \"@openzeppelin/contracts/utils/math/Math.sol\":10263:10366  if (value >= 10 ** 64) {... */\n      tag_106\n      jumpi\n        /* \"@openzeppelin/contracts/utils/math/Math.sol\":10313:10321  10 ** 64 */\n      0x184f03e93ff9f4daa797ed6e38ed64bf6a1f010000000000000000\n        /* \"@openzeppelin/contracts/utils/math/Math.sol\":10304:10321  value /= 10 ** 64 */\n      dup4\n      dup2\n      tag_107\n      jumpi\n      tag_108\n      tag_103\n      jump\t// in\n    tag_108:\n    tag_107:\n      div\n      swap3\n      pop\n        /* \"@openzeppelin/contracts/utils/math/Math.sol\":10349:10351  64 */\n      0x40\n        /* \"@openzeppelin/contracts/utils/math/Math.sol\":10339:10351  result += 64 */\n      dup2\n      add\n      swap1\n      pop\n        /* \"@openzeppelin/contracts/utils/math/Math.sol\":10263:10366  if (value >= 10 ** 64) {... */\n    tag_106:\n        /* \"@openzeppelin/contracts/utils/math/Math.sol\":10392:10400  10 ** 32 */\n      0x04ee2d6d415b85acef8100000000\n        /* \"@openzeppelin/contracts/utils/math/Math.sol\":10383:10388  value */\n      dup4\n        /* \"@openzeppelin/contracts/utils/math/Math.sol\":10383:10400  value >= 10 ** 32 */\n      lt\n        /* \"@openzeppelin/contracts/utils/math/Math.sol\":10379:10482  if (value >= 10 ** 32) {... */\n      tag_109\n      jumpi\n        /* \"@openzeppelin/contracts/utils/math/Math.sol\":10429:10437  10 ** 32 */\n      0x04ee2d6d415b85acef8100000000\n        /* \"@openzeppelin/contracts/utils/math/Math.sol\":10420:10437  value /= 10 ** 32 */\n      dup4\n      dup2\n      tag_110\n      jumpi\n      tag_111\n      tag_103\n      jump\t// in\n    tag_111:\n    tag_110:\n      div\n      swap3\n      pop\n        /* \"@openzeppelin/contracts/utils/math/Math.sol\":10465:10467  32 */\n      0x20\n        /* \"@openzeppelin/contracts/utils/math/Math.sol\":10455:10467  result += 32 */\n      dup2\n      add\n      swap1\n      pop\n        /* \"@openzeppelin/contracts/utils/math/Math.sol\":10379:10482  if (value >= 10 ** 32) {... */\n    tag_109:\n        /* \"@openzeppelin/contracts/utils/math/Math.sol\":10508:10516  10 ** 16 */\n      0x2386f26fc10000\n        /* \"@openzeppelin/contracts/utils/math/Math.sol\":10499:10504  value */\n      dup4\n        /* \"@openzeppelin/contracts/utils/math/Math.sol\":10499:10516  value >= 10 ** 16 */\n      lt\n        /* \"@openzeppelin/contracts/utils/math/Math.sol\":10495:10598  if (value >= 10 ** 16) {... */\n      tag_112\n      jumpi\n        /* \"@openzeppelin/contracts/utils/math/Math.sol\":10545:10553  10 ** 16 */\n      0x2386f26fc10000\n        /* \"@openzeppelin/contracts/utils/math/Math.sol\":10536:10553  value /= 10 ** 16 */\n      dup4\n      dup2\n      tag_113\n      jumpi\n      tag_114\n      tag_103\n      jump\t// in\n    tag_114:\n    tag_113:\n      div\n      swap3\n      pop\n        /* \"@openzeppelin/contracts/utils/math/Math.sol\":10581:10583  16 */\n      0x10\n        /* \"@openzeppelin/contracts/utils/math/Math.sol\":10571:10583  result += 16 */\n      dup2\n      add\n      swap1\n      pop\n        /* \"@openzeppelin/contracts/utils/math/Math.sol\":10495:10598  if (value >= 10 ** 16) {... */\n    tag_112:\n        /* \"@openzeppelin/contracts/utils/math/Math.sol\":10624:10631  10 ** 8 */\n      0x05f5e100\n        /* \"@openzeppelin/contracts/utils/math/Math.sol\":10615:10620  value */\n      dup4\n        /* \"@openzeppelin/contracts/utils/math/Math.sol\":10615:10631  value >= 10 ** 8 */\n      lt\n        /* \"@openzeppelin/contracts/utils/math/Math.sol\":10611:10711  if (value >= 10 ** 8) {... */\n      tag_115\n      jumpi\n        /* \"@openzeppelin/contracts/utils/math/Math.sol\":10660:10667  10 ** 8 */\n      0x05f5e100\n        /* \"@openzeppelin/contracts/utils/math/Math.sol\":10651:10667  value /= 10 ** 8 */\n      dup4\n      dup2\n      tag_116\n      jumpi\n      tag_117\n      tag_103\n      jump\t// in\n    tag_117:\n    tag_116:\n      div\n      swap3\n      pop\n        /* \"@openzeppelin/contracts/utils/math/Math.sol\":10695:10696  8 */\n      0x08\n        /* \"@openzeppelin/contracts/utils/math/Math.sol\":10685:10696  result += 8 */\n      dup2\n      add\n      swap1\n      pop\n        /* \"@openzeppelin/contracts/utils/math/Math.sol\":10611:10711  if (value >= 10 ** 8) {... */\n    tag_115:\n        /* \"@openzeppelin/contracts/utils/math/Math.sol\":10737:10744  10 ** 4 */\n      0x2710\n        /* \"@openzeppelin/contracts/utils/math/Math.sol\":10728:10733  value */\n      dup4\n        /* \"@openzeppelin/contracts/utils/math/Math.sol\":10728:10744  value >= 10 ** 4 */\n      lt\n        /* \"@openzeppelin/contracts/utils/math/Math.sol\":10724:10824  if (value >= 10 ** 4) {... */\n      tag_118\n      jumpi\n        /* \"@openzeppelin/contracts/utils/math/Math.sol\":10773:10780  10 ** 4 */\n      0x2710\n        /* \"@openzeppelin/contracts/utils/math/Math.sol\":10764:10780  value /= 10 ** 4 */\n      dup4\n      dup2\n      tag_119\n      jumpi\n      tag_120\n      tag_103\n      jump\t// in\n    tag_120:\n    tag_119:\n      div\n      swap3\n      pop\n        /* \"@openzeppelin/contracts/utils/math/Math.sol\":10808:10809  4 */\n      0x04\n        /* \"@openzeppelin/contracts/utils/math/Math.sol\":10798:10809  result += 4 */\n      dup2\n      add\n      swap1\n      pop\n        /* \"@openzeppelin/contracts/utils/math/Math.sol\":10724:10824  if (value >= 10 ** 4) {... */\n    tag_118:\n        /* \"@openzeppelin/contracts/utils/math/Math.sol\":10850:10857  10 ** 2 */\n      0x64\n        /* \"@openzeppelin/contracts/utils/math/Math.sol\":10841:10846  value */\n      dup4\n        /* \"@openzeppelin/contracts/utils/math/Math.sol\":10841:10857  value >= 10 ** 2 */\n      lt\n        /* \"@openzeppelin/contracts/utils/math/Math.sol\":10837:10937  if (value >= 10 ** 2) {... */\n      tag_121\n      jumpi\n        /* \"@openzeppelin/contracts/utils/math/Math.sol\":10886:10893  10 ** 2 */\n      0x64\n        /* \"@openzeppelin/contracts/utils/math/Math.sol\":10877:10893  value /= 10 ** 2 */\n      dup4\n      dup2\n      tag_122\n      jumpi\n      tag_123\n      tag_103\n      jump\t// in\n    tag_123:\n    tag_122:\n      div\n      swap3\n      pop\n        /* \"@openzeppelin/contracts/utils/math/Math.sol\":10921:10922  2 */\n      0x02\n        /* \"@openzeppelin/contracts/utils/math/Math.sol\":10911:10922  result += 2 */\n      dup2\n      add\n      swap1\n      pop\n        /* \"@openzeppelin/contracts/utils/math/Math.sol\":10837:10937  if (value >= 10 ** 2) {... */\n    tag_121:\n        /* \"@openzeppelin/contracts/utils/math/Math.sol\":10963:10970  10 ** 1 */\n      0x0a\n        /* \"@openzeppelin/contracts/utils/math/Math.sol\":10954:10959  value */\n      dup4\n        /* \"@openzeppelin/contracts/utils/math/Math.sol\":10954:10970  value >= 10 ** 1 */\n      lt\n        /* \"@openzeppelin/contracts/utils/math/Math.sol\":10950:11016  if (value >= 10 ** 1) {... */\n      tag_124\n      jumpi\n        /* \"@openzeppelin/contracts/utils/math/Math.sol\":11000:11001  1 */\n      0x01\n        /* \"@openzeppelin/contracts/utils/math/Math.sol\":10990:11001  result += 1 */\n      dup2\n      add\n      swap1\n      pop\n        /* \"@openzeppelin/contracts/utils/math/Math.sol\":10950:11016  if (value >= 10 ** 1) {... */\n    tag_124:\n        /* \"@openzeppelin/contracts/utils/math/Math.sol\":11042:11048  result */\n      dup1\n        /* \"@openzeppelin/contracts/utils/math/Math.sol\":11035:11048  return result */\n      swap2\n      pop\n      pop\n        /* \"@openzeppelin/contracts/utils/math/Math.sol\":10139:11055  function log10(uint256 value) internal pure returns (uint256) {... */\n      swap2\n      swap1\n      pop\n      jump\t// out\n        /* \"#utility.yul\":7:133   */\n    tag_125:\n        /* \"#utility.yul\":44:51   */\n      0x00\n        /* \"#utility.yul\":84:126   */\n      0xffffffffffffffffffffffffffffffffffffffff\n        /* \"#utility.yul\":77:82   */\n      dup3\n        /* \"#utility.yul\":73:127   */\n      and\n        /* \"#utility.yul\":62:127   */\n      swap1\n      pop\n        /* \"#utility.yul\":7:133   */\n      swap2\n      swap1\n      pop\n      jump\t// out\n        /* \"#utility.yul\":139:235   */\n    tag_126:\n        /* \"#utility.yul\":176:183   */\n      0x00\n        /* \"#utility.yul\":205:229   */\n      tag_163\n        /* \"#utility.yul\":223:228   */\n      dup3\n        /* \"#utility.yul\":205:229   */\n      tag_125\n      jump\t// in\n    tag_163:\n        /* \"#utility.yul\":194:229   */\n      swap1\n      pop\n        /* \"#utility.yul\":139:235   */\n      swap2\n      swap1\n      pop\n      jump\t// out\n        /* \"#utility.yul\":241:359   */\n    tag_127:\n        /* \"#utility.yul\":328:352   */\n      tag_165\n        /* \"#utility.yul\":346:351   */\n      dup2\n        /* \"#utility.yul\":328:352   */\n      tag_126\n      jump\t// in\n    tag_165:\n        /* \"#utility.yul\":323:326   */\n      dup3\n        /* \"#utility.yul\":316:353   */\n      mstore\n        /* \"#utility.yul\":241:359   */\n      pop\n      pop\n      jump\t// out\n        /* \"#utility.yul\":365:587   */\n    tag_21:\n        /* \"#utility.yul\":458:462   */\n      0x00\n        /* \"#utility.yul\":496:498   */\n      0x20\n        /* \"#utility.yul\":485:494   */\n      dup3\n        /* \"#utility.yul\":481:499   */\n      add\n        /* \"#utility.yul\":473:499   */\n      swap1\n      pop\n        /* \"#utility.yul\":509:580   */\n      tag_167\n        /* \"#utility.yul\":577:578   */\n      0x00\n        /* \"#utility.yul\":566:575   */\n      dup4\n        /* \"#utility.yul\":562:579   */\n      add\n        /* \"#utility.yul\":553:559   */\n      dup5\n        /* \"#utility.yul\":509:580   */\n      tag_127\n      jump\t// in\n    tag_167:\n        /* \"#utility.yul\":365:587   */\n      swap3\n      swap2\n      pop\n      pop\n      jump\t// out\n        /* \"#utility.yul\":593:669   */\n    tag_128:\n        /* \"#utility.yul\":629:636   */\n      0x00\n        /* \"#utility.yul\":658:663   */\n      dup2\n        /* \"#utility.yul\":647:663   */\n      swap1\n      pop\n        /* \"#utility.yul\":593:669   */\n      swap2\n      swap1\n      pop\n      jump\t// out\n        /* \"#utility.yul\":675:790   */\n    tag_129:\n        /* \"#utility.yul\":760:783   */\n      tag_170\n        /* \"#utility.yul\":777:782   */\n      dup2\n        /* \"#utility.yul\":760:783   */\n      tag_128\n      jump\t// in\n    tag_170:\n        /* \"#utility.yul\":755:758   */\n      dup3\n        /* \"#utility.yul\":748:784   */\n      mstore\n        /* \"#utility.yul\":675:790   */\n      pop\n      pop\n      jump\t// out\n        /* \"#utility.yul\":796:1014   */\n    tag_26:\n        /* \"#utility.yul\":887:891   */\n      0x00\n        /* \"#utility.yul\":925:927   */\n      0x20\n        /* \"#utility.yul\":914:923   */\n      dup3\n        /* \"#utility.yul\":910:928   */\n      add\n        /* \"#utility.yul\":902:928   */\n      swap1\n      pop\n        /* \"#utility.yul\":938:1007   */\n      tag_172\n        /* \"#utility.yul\":1004:1005   */\n      0x00\n        /* \"#utility.yul\":993:1002   */\n      dup4\n        /* \"#utility.yul\":989:1006   */\n      add\n        /* \"#utility.yul\":980:986   */\n      dup5\n        /* \"#utility.yul\":938:1007   */\n      tag_129\n      jump\t// in\n    tag_172:\n        /* \"#utility.yul\":796:1014   */\n      swap3\n      swap2\n      pop\n      pop\n      jump\t// out\n        /* \"#utility.yul\":1101:1218   */\n    tag_131:\n        /* \"#utility.yul\":1210:1211   */\n      0x00\n        /* \"#utility.yul\":1207:1208   */\n      dup1\n        /* \"#utility.yul\":1200:1212   */\n      revert\n        /* \"#utility.yul\":1347:1424   */\n    tag_133:\n        /* \"#utility.yul\":1384:1391   */\n      0x00\n        /* \"#utility.yul\":1413:1418   */\n      dup2\n        /* \"#utility.yul\":1402:1418   */\n      swap1\n      pop\n        /* \"#utility.yul\":1347:1424   */\n      swap2\n      swap1\n      pop\n      jump\t// out\n        /* \"#utility.yul\":1430:1552   */\n    tag_134:\n        /* \"#utility.yul\":1503:1527   */\n      tag_178\n        /* \"#utility.yul\":1521:1526   */\n      dup2\n        /* \"#utility.yul\":1503:1527   */\n      tag_133\n      jump\t// in\n    tag_178:\n        /* \"#utility.yul\":1496:1501   */\n      dup2\n        /* \"#utility.yul\":1493:1528   */\n      eq\n        /* \"#utility.yul\":1483:1546   */\n      tag_179\n      jumpi\n        /* \"#utility.yul\":1542:1543   */\n      0x00\n        /* \"#utility.yul\":1539:1540   */\n      dup1\n        /* \"#utility.yul\":1532:1544   */\n      revert\n        /* \"#utility.yul\":1483:1546   */\n    tag_179:\n        /* \"#utility.yul\":1430:1552   */\n      pop\n      jump\t// out\n        /* \"#utility.yul\":1558:1697   */\n    tag_135:\n        /* \"#utility.yul\":1604:1609   */\n      0x00\n        /* \"#utility.yul\":1642:1648   */\n      dup2\n        /* \"#utility.yul\":1629:1649   */\n      calldataload\n        /* \"#utility.yul\":1620:1649   */\n      swap1\n      pop\n        /* \"#utility.yul\":1658:1691   */\n      tag_181\n        /* \"#utility.yul\":1685:1690   */\n      dup2\n        /* \"#utility.yul\":1658:1691   */\n      tag_134\n      jump\t// in\n    tag_181:\n        /* \"#utility.yul\":1558:1697   */\n      swap3\n      swap2\n      pop\n      pop\n      jump\t// out\n        /* \"#utility.yul\":1703:2032   */\n    tag_32:\n        /* \"#utility.yul\":1762:1768   */\n      0x00\n        /* \"#utility.yul\":1811:1813   */\n      0x20\n        /* \"#utility.yul\":1799:1808   */\n      dup3\n        /* \"#utility.yul\":1790:1797   */\n      dup5\n        /* \"#utility.yul\":1786:1809   */\n      sub\n        /* \"#utility.yul\":1782:1814   */\n      slt\n        /* \"#utility.yul\":1779:1898   */\n      iszero\n      tag_183\n      jumpi\n        /* \"#utility.yul\":1817:1896   */\n      tag_184\n      tag_131\n      jump\t// in\n    tag_184:\n        /* \"#utility.yul\":1779:1898   */\n    tag_183:\n        /* \"#utility.yul\":1937:1938   */\n      0x00\n        /* \"#utility.yul\":1962:2015   */\n      tag_185\n        /* \"#utility.yul\":2007:2014   */\n      dup5\n        /* \"#utility.yul\":1998:2004   */\n      dup3\n        /* \"#utility.yul\":1987:1996   */\n      dup6\n        /* \"#utility.yul\":1983:2005   */\n      add\n        /* \"#utility.yul\":1962:2015   */\n      tag_135\n      jump\t// in\n    tag_185:\n        /* \"#utility.yul\":1952:2015   */\n      swap2\n      pop\n        /* \"#utility.yul\":1908:2025   */\n      pop\n        /* \"#utility.yul\":1703:2032   */\n      swap3\n      swap2\n      pop\n      pop\n      jump\t// out\n        /* \"#utility.yul\":2038:2207   */\n    tag_136:\n        /* \"#utility.yul\":2122:2133   */\n      0x00\n        /* \"#utility.yul\":2156:2162   */\n      dup3\n        /* \"#utility.yul\":2151:2154   */\n      dup3\n        /* \"#utility.yul\":2144:2163   */\n      mstore\n        /* \"#utility.yul\":2196:2200   */\n      0x20\n        /* \"#utility.yul\":2191:2194   */\n      dup3\n        /* \"#utility.yul\":2187:2201   */\n      add\n        /* \"#utility.yul\":2172:2201   */\n      swap1\n      pop\n        /* \"#utility.yul\":2038:2207   */\n      swap3\n      swap2\n      pop\n      pop\n      jump\t// out\n        /* \"#utility.yul\":2213:2462   */\n    tag_137:\n        /* \"#utility.yul\":2353:2387   */\n      0x596f752068617665206e6f7420706572666f726d656420616e79207472616e73\n        /* \"#utility.yul\":2349:2350   */\n      0x00\n        /* \"#utility.yul\":2341:2347   */\n      dup3\n        /* \"#utility.yul\":2337:2351   */\n      add\n        /* \"#utility.yul\":2330:2388   */\n      mstore\n        /* \"#utility.yul\":2422:2454   */\n      0x616374696f6e206f6e207468697320736d61727420636f6e7472616374210000\n        /* \"#utility.yul\":2417:2419   */\n      0x20\n        /* \"#utility.yul\":2409:2415   */\n      dup3\n        /* \"#utility.yul\":2405:2420   */\n      add\n        /* \"#utility.yul\":2398:2455   */\n      mstore\n        /* \"#utility.yul\":2213:2462   */\n      pop\n      jump\t// out\n        /* \"#utility.yul\":2468:2834   */\n    tag_138:\n        /* \"#utility.yul\":2610:2613   */\n      0x00\n        /* \"#utility.yul\":2631:2698   */\n      tag_189\n        /* \"#utility.yul\":2695:2697   */\n      0x3e\n        /* \"#utility.yul\":2690:2693   */\n      dup4\n        /* \"#utility.yul\":2631:2698   */\n      tag_136\n      jump\t// in\n    tag_189:\n        /* \"#utility.yul\":2624:2698   */\n      swap2\n      pop\n        /* \"#utility.yul\":2707:2800   */\n      tag_190\n        /* \"#utility.yul\":2796:2799   */\n      dup3\n        /* \"#utility.yul\":2707:2800   */\n      tag_137\n      jump\t// in\n    tag_190:\n        /* \"#utility.yul\":2825:2827   */\n      0x40\n        /* \"#utility.yul\":2820:2823   */\n      dup3\n        /* \"#utility.yul\":2816:2828   */\n      add\n        /* \"#utility.yul\":2809:2828   */\n      swap1\n      pop\n        /* \"#utility.yul\":2468:2834   */\n      swap2\n      swap1\n      pop\n      jump\t// out\n        /* \"#utility.yul\":2840:3259   */\n    tag_37:\n        /* \"#utility.yul\":3006:3010   */\n      0x00\n        /* \"#utility.yul\":3044:3046   */\n      0x20\n        /* \"#utility.yul\":3033:3042   */\n      dup3\n        /* \"#utility.yul\":3029:3047   */\n      add\n        /* \"#utility.yul\":3021:3047   */\n      swap1\n      pop\n        /* \"#utility.yul\":3093:3102   */\n      dup2\n        /* \"#utility.yul\":3087:3091   */\n      dup2\n        /* \"#utility.yul\":3083:3103   */\n      sub\n        /* \"#utility.yul\":3079:3080   */\n      0x00\n        /* \"#utility.yul\":3068:3077   */\n      dup4\n        /* \"#utility.yul\":3064:3081   */\n      add\n        /* \"#utility.yul\":3057:3104   */\n      mstore\n        /* \"#utility.yul\":3121:3252   */\n      tag_192\n        /* \"#utility.yul\":3247:3251   */\n      dup2\n        /* \"#utility.yul\":3121:3252   */\n      tag_138\n      jump\t// in\n    tag_192:\n        /* \"#utility.yul\":3113:3252   */\n      swap1\n      pop\n        /* \"#utility.yul\":2840:3259   */\n      swap2\n      swap1\n      pop\n      jump\t// out\n        /* \"#utility.yul\":3265:3442   */\n    tag_139:\n        /* \"#utility.yul\":3405:3434   */\n      0x596f75722066756e647320617265207374696c6c206c6f636b65640000000000\n        /* \"#utility.yul\":3401:3402   */\n      0x00\n        /* \"#utility.yul\":3393:3399   */\n      dup3\n        /* \"#utility.yul\":3389:3403   */\n      add\n        /* \"#utility.yul\":3382:3435   */\n      mstore\n        /* \"#utility.yul\":3265:3442   */\n      pop\n      jump\t// out\n        /* \"#utility.yul\":3448:3814   */\n    tag_140:\n        /* \"#utility.yul\":3590:3593   */\n      0x00\n        /* \"#utility.yul\":3611:3678   */\n      tag_195\n        /* \"#utility.yul\":3675:3677   */\n      0x1b\n        /* \"#utility.yul\":3670:3673   */\n      dup4\n        /* \"#utility.yul\":3611:3678   */\n      tag_136\n      jump\t// in\n    tag_195:\n        /* \"#utility.yul\":3604:3678   */\n      swap2\n      pop\n        /* \"#utility.yul\":3687:3780   */\n      tag_196\n        /* \"#utility.yul\":3776:3779   */\n      dup3\n        /* \"#utility.yul\":3687:3780   */\n      tag_139\n      jump\t// in\n    tag_196:\n        /* \"#utility.yul\":3805:3807   */\n      0x20\n        /* \"#utility.yul\":3800:3803   */\n      dup3\n        /* \"#utility.yul\":3796:3808   */\n      add\n        /* \"#utility.yul\":3789:3808   */\n      swap1\n      pop\n        /* \"#utility.yul\":3448:3814   */\n      swap2\n      swap1\n      pop\n      jump\t// out\n        /* \"#utility.yul\":3820:4239   */\n    tag_42:\n        /* \"#utility.yul\":3986:3990   */\n      0x00\n        /* \"#utility.yul\":4024:4026   */\n      0x20\n        /* \"#utility.yul\":4013:4022   */\n      dup3\n        /* \"#utility.yul\":4009:4027   */\n      add\n        /* \"#utility.yul\":4001:4027   */\n      swap1\n      pop\n        /* \"#utility.yul\":4073:4082   */\n      dup2\n        /* \"#utility.yul\":4067:4071   */\n      dup2\n        /* \"#utility.yul\":4063:4083   */\n      sub\n        /* \"#utility.yul\":4059:4060   */\n      0x00\n        /* \"#utility.yul\":4048:4057   */\n      dup4\n        /* \"#utility.yul\":4044:4061   */\n      add\n        /* \"#utility.yul\":4037:4084   */\n      mstore\n        /* \"#utility.yul\":4101:4232   */\n      tag_198\n        /* \"#utility.yul\":4227:4231   */\n      dup2\n        /* \"#utility.yul\":4101:4232   */\n      tag_140\n      jump\t// in\n    tag_198:\n        /* \"#utility.yul\":4093:4232   */\n      swap1\n      pop\n        /* \"#utility.yul\":3820:4239   */\n      swap2\n      swap1\n      pop\n      jump\t// out\n        /* \"#utility.yul\":4245:4425   */\n    tag_141:\n        /* \"#utility.yul\":4293:4370   */\n      0x4e487b7100000000000000000000000000000000000000000000000000000000\n        /* \"#utility.yul\":4290:4291   */\n      0x00\n        /* \"#utility.yul\":4283:4371   */\n      mstore\n        /* \"#utility.yul\":4390:4394   */\n      0x11\n        /* \"#utility.yul\":4387:4388   */\n      0x04\n        /* \"#utility.yul\":4380:4395   */\n      mstore\n        /* \"#utility.yul\":4414:4418   */\n      0x24\n        /* \"#utility.yul\":4411:4412   */\n      0x00\n        /* \"#utility.yul\":4404:4419   */\n      revert\n        /* \"#utility.yul\":4431:4806   */\n    tag_50:\n        /* \"#utility.yul\":4470:4473   */\n      0x00\n        /* \"#utility.yul\":4489:4508   */\n      tag_201\n        /* \"#utility.yul\":4506:4507   */\n      dup3\n        /* \"#utility.yul\":4489:4508   */\n      tag_128\n      jump\t// in\n    tag_201:\n        /* \"#utility.yul\":4484:4508   */\n      swap2\n      pop\n        /* \"#utility.yul\":4522:4541   */\n      tag_202\n        /* \"#utility.yul\":4539:4540   */\n      dup4\n        /* \"#utility.yul\":4522:4541   */\n      tag_128\n      jump\t// in\n    tag_202:\n        /* \"#utility.yul\":4517:4541   */\n      swap3\n      pop\n        /* \"#utility.yul\":4564:4565   */\n      dup3\n        /* \"#utility.yul\":4561:4562   */\n      dup3\n        /* \"#utility.yul\":4557:4566   */\n      add\n        /* \"#utility.yul\":4550:4566   */\n      swap1\n      pop\n        /* \"#utility.yul\":4762:4763   */\n      dup3\n        /* \"#utility.yul\":4757:4760   */\n      dup2\n        /* \"#utility.yul\":4753:4764   */\n      slt\n        /* \"#utility.yul\":4746:4765   */\n      iszero\n        /* \"#utility.yul\":4742:4743   */\n      0x00\n        /* \"#utility.yul\":4739:4740   */\n      dup4\n        /* \"#utility.yul\":4735:4744   */\n      slt\n        /* \"#utility.yul\":4731:4766   */\n      and\n        /* \"#utility.yul\":4714:4715   */\n      dup4\n        /* \"#utility.yul\":4709:4712   */\n      dup3\n        /* \"#utility.yul\":4705:4716   */\n      slt\n        /* \"#utility.yul\":4700:4701   */\n      0x00\n        /* \"#utility.yul\":4697:4698   */\n      dup5\n        /* \"#utility.yul\":4693:4702   */\n      slt\n        /* \"#utility.yul\":4686:4703   */\n      iszero\n        /* \"#utility.yul\":4682:4717   */\n      and\n        /* \"#utility.yul\":4666:4776   */\n      or\n        /* \"#utility.yul\":4663:4799   */\n      iszero\n      tag_203\n      jumpi\n        /* \"#utility.yul\":4779:4797   */\n      tag_204\n      tag_141\n      jump\t// in\n    tag_204:\n        /* \"#utility.yul\":4663:4799   */\n    tag_203:\n        /* \"#utility.yul\":4431:4806   */\n      swap3\n      swap2\n      pop\n      pop\n      jump\t// out\n        /* \"#utility.yul\":4812:4991   */\n    tag_142:\n        /* \"#utility.yul\":4952:4983   */\n      0x596f7520686176656e2774206c6f636b65642066756e64732079657421000000\n        /* \"#utility.yul\":4948:4949   */\n      0x00\n        /* \"#utility.yul\":4940:4946   */\n      dup3\n        /* \"#utility.yul\":4936:4950   */\n      add\n        /* \"#utility.yul\":4929:4984   */\n      mstore\n        /* \"#utility.yul\":4812:4991   */\n      pop\n      jump\t// out\n        /* \"#utility.yul\":4997:5363   */\n    tag_143:\n        /* \"#utility.yul\":5139:5142   */\n      0x00\n        /* \"#utility.yul\":5160:5227   */\n      tag_207\n        /* \"#utility.yul\":5224:5226   */\n      0x1d\n        /* \"#utility.yul\":5219:5222   */\n      dup4\n        /* \"#utility.yul\":5160:5227   */\n      tag_136\n      jump\t// in\n    tag_207:\n        /* \"#utility.yul\":5153:5227   */\n      swap2\n      pop\n        /* \"#utility.yul\":5236:5329   */\n      tag_208\n        /* \"#utility.yul\":5325:5328   */\n      dup3\n        /* \"#utility.yul\":5236:5329   */\n      tag_142\n      jump\t// in\n    tag_208:\n        /* \"#utility.yul\":5354:5356   */\n      0x20\n        /* \"#utility.yul\":5349:5352   */\n      dup3\n        /* \"#utility.yul\":5345:5357   */\n      add\n        /* \"#utility.yul\":5338:5357   */\n      swap1\n      pop\n        /* \"#utility.yul\":4997:5363   */\n      swap2\n      swap1\n      pop\n      jump\t// out\n        /* \"#utility.yul\":5369:5788   */\n    tag_60:\n        /* \"#utility.yul\":5535:5539   */\n      0x00\n        /* \"#utility.yul\":5573:5575   */\n      0x20\n        /* \"#utility.yul\":5562:5571   */\n      dup3\n        /* \"#utility.yul\":5558:5576   */\n      add\n        /* \"#utility.yul\":5550:5576   */\n      swap1\n      pop\n        /* \"#utility.yul\":5622:5631   */\n      dup2\n        /* \"#utility.yul\":5616:5620   */\n      dup2\n        /* \"#utility.yul\":5612:5632   */\n      sub\n        /* \"#utility.yul\":5608:5609   */\n      0x00\n        /* \"#utility.yul\":5597:5606   */\n      dup4\n        /* \"#utility.yul\":5593:5610   */\n      add\n        /* \"#utility.yul\":5586:5633   */\n      mstore\n        /* \"#utility.yul\":5650:5781   */\n      tag_210\n        /* \"#utility.yul\":5776:5780   */\n      dup2\n        /* \"#utility.yul\":5650:5781   */\n      tag_143\n      jump\t// in\n    tag_210:\n        /* \"#utility.yul\":5642:5781   */\n      swap1\n      pop\n        /* \"#utility.yul\":5369:5788   */\n      swap2\n      swap1\n      pop\n      jump\t// out\n        /* \"#utility.yul\":5794:6166   */\n    tag_62:\n        /* \"#utility.yul\":5833:5837   */\n      0x00\n        /* \"#utility.yul\":5853:5872   */\n      tag_212\n        /* \"#utility.yul\":5870:5871   */\n      dup3\n        /* \"#utility.yul\":5853:5872   */\n      tag_128\n      jump\t// in\n    tag_212:\n        /* \"#utility.yul\":5848:5872   */\n      swap2\n      pop\n        /* \"#utility.yul\":5886:5905   */\n      tag_213\n        /* \"#utility.yul\":5903:5904   */\n      dup4\n        /* \"#utility.yul\":5886:5905   */\n      tag_128\n      jump\t// in\n    tag_213:\n        /* \"#utility.yul\":5881:5905   */\n      swap3\n      pop\n        /* \"#utility.yul\":5929:5930   */\n      dup3\n        /* \"#utility.yul\":5926:5927   */\n      dup3\n        /* \"#utility.yul\":5922:5931   */\n      sub\n        /* \"#utility.yul\":5914:5931   */\n      swap1\n      pop\n        /* \"#utility.yul\":6123:6124   */\n      dup2\n        /* \"#utility.yul\":6117:6121   */\n      dup2\n        /* \"#utility.yul\":6113:6125   */\n      slt\n        /* \"#utility.yul\":6109:6110   */\n      0x00\n        /* \"#utility.yul\":6106:6107   */\n      dup5\n        /* \"#utility.yul\":6102:6111   */\n      slt\n        /* \"#utility.yul\":6098:6126   */\n      and\n        /* \"#utility.yul\":6081:6082   */\n      dup3\n        /* \"#utility.yul\":6075:6079   */\n      dup3\n        /* \"#utility.yul\":6071:6083   */\n      sgt\n        /* \"#utility.yul\":6066:6067   */\n      0x00\n        /* \"#utility.yul\":6063:6064   */\n      dup6\n        /* \"#utility.yul\":6059:6068   */\n      slt\n        /* \"#utility.yul\":6052:6069   */\n      iszero\n        /* \"#utility.yul\":6048:6084   */\n      and\n        /* \"#utility.yul\":6032:6136   */\n      or\n        /* \"#utility.yul\":6029:6159   */\n      iszero\n      tag_214\n      jumpi\n        /* \"#utility.yul\":6139:6157   */\n      tag_215\n      tag_141\n      jump\t// in\n    tag_215:\n        /* \"#utility.yul\":6029:6159   */\n    tag_214:\n        /* \"#utility.yul\":5794:6166   */\n      swap3\n      swap2\n      pop\n      pop\n      jump\t// out\n        /* \"#utility.yul\":6172:6352   */\n    tag_103:\n        /* \"#utility.yul\":6220:6297   */\n      0x4e487b7100000000000000000000000000000000000000000000000000000000\n        /* \"#utility.yul\":6217:6218   */\n      0x00\n        /* \"#utility.yul\":6210:6298   */\n      mstore\n        /* \"#utility.yul\":6317:6321   */\n      0x12\n        /* \"#utility.yul\":6314:6315   */\n      0x04\n        /* \"#utility.yul\":6307:6322   */\n      mstore\n        /* \"#utility.yul\":6341:6345   */\n      0x24\n        /* \"#utility.yul\":6338:6339   */\n      0x00\n        /* \"#utility.yul\":6331:6346   */\n      revert\n        /* \"#utility.yul\":6358:6743   */\n    tag_64:\n        /* \"#utility.yul\":6397:6398   */\n      0x00\n        /* \"#utility.yul\":6414:6433   */\n      tag_218\n        /* \"#utility.yul\":6431:6432   */\n      dup3\n        /* \"#utility.yul\":6414:6433   */\n      tag_128\n      jump\t// in\n    tag_218:\n        /* \"#utility.yul\":6409:6433   */\n      swap2\n      pop\n        /* \"#utility.yul\":6447:6466   */\n      tag_219\n        /* \"#utility.yul\":6464:6465   */\n      dup4\n        /* \"#utility.yul\":6447:6466   */\n      tag_128\n      jump\t// in\n    tag_219:\n        /* \"#utility.yul\":6442:6466   */\n      swap3\n      pop\n        /* \"#utility.yul\":6485:6486   */\n      dup3\n        /* \"#utility.yul\":6475:6510   */\n      tag_220\n      jumpi\n        /* \"#utility.yul\":6490:6508   */\n      tag_221\n      tag_103\n      jump\t// in\n    tag_221:\n        /* \"#utility.yul\":6475:6510   */\n    tag_220:\n        /* \"#utility.yul\":6676:6677   */\n      0x01\n        /* \"#utility.yul\":6673:6674   */\n      0x00\n        /* \"#utility.yul\":6669:6678   */\n      sub\n        /* \"#utility.yul\":6666:6667   */\n      dup4\n        /* \"#utility.yul\":6663:6679   */\n      eq\n        /* \"#utility.yul\":6582:6648   */\n      0x8000000000000000000000000000000000000000000000000000000000000000\n        /* \"#utility.yul\":6579:6580   */\n      dup4\n        /* \"#utility.yul\":6576:6649   */\n      eq\n        /* \"#utility.yul\":6559:6689   */\n      and\n        /* \"#utility.yul\":6556:6712   */\n      iszero\n      tag_222\n      jumpi\n        /* \"#utility.yul\":6692:6710   */\n      tag_223\n      tag_141\n      jump\t// in\n    tag_223:\n        /* \"#utility.yul\":6556:6712   */\n    tag_222:\n        /* \"#utility.yul\":6735:6736   */\n      dup3\n        /* \"#utility.yul\":6732:6733   */\n      dup3\n        /* \"#utility.yul\":6727:6737   */\n      sdiv\n        /* \"#utility.yul\":6722:6737   */\n      swap1\n      pop\n        /* \"#utility.yul\":6358:6743   */\n      swap3\n      swap2\n      pop\n      pop\n      jump\t// out\n        /* \"#utility.yul\":6749:6976   */\n    tag_144:\n        /* \"#utility.yul\":6889:6923   */\n      0x546869732066656174757265206973207265737472696374656420746f207468\n        /* \"#utility.yul\":6885:6886   */\n      0x00\n        /* \"#utility.yul\":6877:6883   */\n      dup3\n        /* \"#utility.yul\":6873:6887   */\n      add\n        /* \"#utility.yul\":6866:6924   */\n      mstore\n        /* \"#utility.yul\":6958:6968   */\n      0x65206f776e657221000000000000000000000000000000000000000000000000\n        /* \"#utility.yul\":6953:6955   */\n      0x20\n        /* \"#utility.yul\":6945:6951   */\n      dup3\n        /* \"#utility.yul\":6941:6956   */\n      add\n        /* \"#utility.yul\":6934:6969   */\n      mstore\n        /* \"#utility.yul\":6749:6976   */\n      pop\n      jump\t// out\n        /* \"#utility.yul\":6982:7348   */\n    tag_145:\n        /* \"#utility.yul\":7124:7127   */\n      0x00\n        /* \"#utility.yul\":7145:7212   */\n      tag_226\n        /* \"#utility.yul\":7209:7211   */\n      0x28\n        /* \"#utility.yul\":7204:7207   */\n      dup4\n        /* \"#utility.yul\":7145:7212   */\n      tag_136\n      jump\t// in\n    tag_226:\n        /* \"#utility.yul\":7138:7212   */\n      swap2\n      pop\n        /* \"#utility.yul\":7221:7314   */\n      tag_227\n        /* \"#utility.yul\":7310:7313   */\n      dup3\n        /* \"#utility.yul\":7221:7314   */\n      tag_144\n      jump\t// in\n    tag_227:\n        /* \"#utility.yul\":7339:7341   */\n      0x40\n        /* \"#utility.yul\":7334:7337   */\n      dup3\n        /* \"#utility.yul\":7330:7342   */\n      add\n        /* \"#utility.yul\":7323:7342   */\n      swap1\n      pop\n        /* \"#utility.yul\":6982:7348   */\n      swap2\n      swap1\n      pop\n      jump\t// out\n        /* \"#utility.yul\":7354:7773   */\n    tag_69:\n        /* \"#utility.yul\":7520:7524   */\n      0x00\n        /* \"#utility.yul\":7558:7560   */\n      0x20\n        /* \"#utility.yul\":7547:7556   */\n      dup3\n        /* \"#utility.yul\":7543:7561   */\n      add\n        /* \"#utility.yul\":7535:7561   */\n      swap1\n      pop\n        /* \"#utility.yul\":7607:7616   */\n      dup2\n        /* \"#utility.yul\":7601:7605   */\n      dup2\n        /* \"#utility.yul\":7597:7617   */\n      sub\n        /* \"#utility.yul\":7593:7594   */\n      0x00\n        /* \"#utility.yul\":7582:7591   */\n      dup4\n        /* \"#utility.yul\":7578:7595   */\n      add\n        /* \"#utility.yul\":7571:7618   */\n      mstore\n        /* \"#utility.yul\":7635:7766   */\n      tag_229\n        /* \"#utility.yul\":7761:7765   */\n      dup2\n        /* \"#utility.yul\":7635:7766   */\n      tag_145\n      jump\t// in\n    tag_229:\n        /* \"#utility.yul\":7627:7766   */\n      swap1\n      pop\n        /* \"#utility.yul\":7354:7773   */\n      swap2\n      swap1\n      pop\n      jump\t// out\n        /* \"#utility.yul\":7779:8062   */\n    tag_146:\n        /* \"#utility.yul\":7919:7953   */\n      0x596f757220736d61727420636f6e7472616374206861736e27742067656e6572\n        /* \"#utility.yul\":7915:7916   */\n      0x00\n        /* \"#utility.yul\":7907:7913   */\n      dup3\n        /* \"#utility.yul\":7903:7917   */\n      add\n        /* \"#utility.yul\":7896:7954   */\n      mstore\n        /* \"#utility.yul\":7988:8054   */\n      0x617465642066756e6473207965742c206368696c6c206f757421f09f98820000\n        /* \"#utility.yul\":7983:7985   */\n      0x20\n        /* \"#utility.yul\":7975:7981   */\n      dup3\n        /* \"#utility.yul\":7971:7986   */\n      add\n        /* \"#utility.yul\":7964:8055   */\n      mstore\n        /* \"#utility.yul\":7779:8062   */\n      pop\n      jump\t// out\n        /* \"#utility.yul\":8068:8434   */\n    tag_147:\n        /* \"#utility.yul\":8210:8213   */\n      0x00\n        /* \"#utility.yul\":8231:8298   */\n      tag_232\n        /* \"#utility.yul\":8295:8297   */\n      0x3e\n        /* \"#utility.yul\":8290:8293   */\n      dup4\n        /* \"#utility.yul\":8231:8298   */\n      tag_136\n      jump\t// in\n    tag_232:\n        /* \"#utility.yul\":8224:8298   */\n      swap2\n      pop\n        /* \"#utility.yul\":8307:8400   */\n      tag_233\n        /* \"#utility.yul\":8396:8399   */\n      dup3\n        /* \"#utility.yul\":8307:8400   */\n      tag_146\n      jump\t// in\n    tag_233:\n        /* \"#utility.yul\":8425:8427   */\n      0x40\n        /* \"#utility.yul\":8420:8423   */\n      dup3\n        /* \"#utility.yul\":8416:8428   */\n      add\n        /* \"#utility.yul\":8409:8428   */\n      swap1\n      pop\n        /* \"#utility.yul\":8068:8434   */\n      swap2\n      swap1\n      pop\n      jump\t// out\n        /* \"#utility.yul\":8440:8859   */\n    tag_73:\n        /* \"#utility.yul\":8606:8610   */\n      0x00\n        /* \"#utility.yul\":8644:8646   */\n      0x20\n        /* \"#utility.yul\":8633:8642   */\n      dup3\n        /* \"#utility.yul\":8629:8647   */\n      add\n        /* \"#utility.yul\":8621:8647   */\n      swap1\n      pop\n        /* \"#utility.yul\":8693:8702   */\n      dup2\n        /* \"#utility.yul\":8687:8691   */\n      dup2\n        /* \"#utility.yul\":8683:8703   */\n      sub\n        /* \"#utility.yul\":8679:8680   */\n      0x00\n        /* \"#utility.yul\":8668:8677   */\n      dup4\n        /* \"#utility.yul\":8664:8681   */\n      add\n        /* \"#utility.yul\":8657:8704   */\n      mstore\n        /* \"#utility.yul\":8721:8852   */\n      tag_235\n        /* \"#utility.yul\":8847:8851   */\n      dup2\n        /* \"#utility.yul\":8721:8852   */\n      tag_147\n      jump\t// in\n    tag_235:\n        /* \"#utility.yul\":8713:8852   */\n      swap1\n      pop\n        /* \"#utility.yul\":8440:8859   */\n      swap2\n      swap1\n      pop\n      jump\t// out\n        /* \"#utility.yul\":8865:9107   */\n    tag_148:\n        /* \"#utility.yul\":9005:9039   */\n      0x54686520616d6f756e7420696e64696361746564206d7573742062652073616d\n        /* \"#utility.yul\":9001:9002   */\n      0x00\n        /* \"#utility.yul\":8993:8999   */\n      dup3\n        /* \"#utility.yul\":8989:9003   */\n      add\n        /* \"#utility.yul\":8982:9040   */\n      mstore\n        /* \"#utility.yul\":9074:9099   */\n      0x6520617320746865207472616e736665722076616c7565000000000000000000\n        /* \"#utility.yul\":9069:9071   */\n      0x20\n        /* \"#utility.yul\":9061:9067   */\n      dup3\n        /* \"#utility.yul\":9057:9072   */\n      add\n        /* \"#utility.yul\":9050:9100   */\n      mstore\n        /* \"#utility.yul\":8865:9107   */\n      pop\n      jump\t// out\n        /* \"#utility.yul\":9113:9479   */\n    tag_149:\n        /* \"#utility.yul\":9255:9258   */\n      0x00\n        /* \"#utility.yul\":9276:9343   */\n      tag_238\n        /* \"#utility.yul\":9340:9342   */\n      0x37\n        /* \"#utility.yul\":9335:9338   */\n      dup4\n        /* \"#utility.yul\":9276:9343   */\n      tag_136\n      jump\t// in\n    tag_238:\n        /* \"#utility.yul\":9269:9343   */\n      swap2\n      pop\n        /* \"#utility.yul\":9352:9445   */\n      tag_239\n        /* \"#utility.yul\":9441:9444   */\n      dup3\n        /* \"#utility.yul\":9352:9445   */\n      tag_148\n      jump\t// in\n    tag_239:\n        /* \"#utility.yul\":9470:9472   */\n      0x40\n        /* \"#utility.yul\":9465:9468   */\n      dup3\n        /* \"#utility.yul\":9461:9473   */\n      add\n        /* \"#utility.yul\":9454:9473   */\n      swap1\n      pop\n        /* \"#utility.yul\":9113:9479   */\n      swap2\n      swap1\n      pop\n      jump\t// out\n        /* \"#utility.yul\":9485:9904   */\n    tag_79:\n        /* \"#utility.yul\":9651:9655   */\n      0x00\n        /* \"#utility.yul\":9689:9691   */\n      0x20\n        /* \"#utility.yul\":9678:9687   */\n      dup3\n        /* \"#utility.yul\":9674:9692   */\n      add\n        /* \"#utility.yul\":9666:9692   */\n      swap1\n      pop\n        /* \"#utility.yul\":9738:9747   */\n      dup2\n        /* \"#utility.yul\":9732:9736   */\n      dup2\n        /* \"#utility.yul\":9728:9748   */\n      sub\n        /* \"#utility.yul\":9724:9725   */\n      0x00\n        /* \"#utility.yul\":9713:9722   */\n      dup4\n        /* \"#utility.yul\":9709:9726   */\n      add\n        /* \"#utility.yul\":9702:9749   */\n      mstore\n        /* \"#utility.yul\":9766:9897   */\n      tag_241\n        /* \"#utility.yul\":9892:9896   */\n      dup2\n        /* \"#utility.yul\":9766:9897   */\n      tag_149\n      jump\t// in\n    tag_241:\n        /* \"#utility.yul\":9758:9897   */\n      swap1\n      pop\n        /* \"#utility.yul\":9485:9904   */\n      swap2\n      swap1\n      pop\n      jump\t// out\n        /* \"#utility.yul\":9910:10058   */\n    tag_150:\n        /* \"#utility.yul\":10012:10023   */\n      0x00\n        /* \"#utility.yul\":10049:10052   */\n      dup2\n        /* \"#utility.yul\":10034:10052   */\n      swap1\n      pop\n        /* \"#utility.yul\":9910:10058   */\n      swap3\n      swap2\n      pop\n      pop\n      jump\t// out\n        /* \"#utility.yul\":10064:10286   */\n    tag_151:\n        /* \"#utility.yul\":10204:10238   */\n      0x54686520616d6f756e7420796f752063616e206c6f636b206d75737420657865\n        /* \"#utility.yul\":10200:10201   */\n      0x00\n        /* \"#utility.yul\":10192:10198   */\n      dup3\n        /* \"#utility.yul\":10188:10202   */\n      add\n        /* \"#utility.yul\":10181:10239   */\n      mstore\n        /* \"#utility.yul\":10273:10278   */\n      0x6564200000000000000000000000000000000000000000000000000000000000\n        /* \"#utility.yul\":10268:10270   */\n      0x20\n        /* \"#utility.yul\":10260:10266   */\n      dup3\n        /* \"#utility.yul\":10256:10271   */\n      add\n        /* \"#utility.yul\":10249:10279   */\n      mstore\n        /* \"#utility.yul\":10064:10286   */\n      pop\n      jump\t// out\n        /* \"#utility.yul\":10292:10694   */\n    tag_152:\n        /* \"#utility.yul\":10452:10455   */\n      0x00\n        /* \"#utility.yul\":10473:10558   */\n      tag_245\n        /* \"#utility.yul\":10555:10557   */\n      0x23\n        /* \"#utility.yul\":10550:10553   */\n      dup4\n        /* \"#utility.yul\":10473:10558   */\n      tag_150\n      jump\t// in\n    tag_245:\n        /* \"#utility.yul\":10466:10558   */\n      swap2\n      pop\n        /* \"#utility.yul\":10567:10660   */\n      tag_246\n        /* \"#utility.yul\":10656:10659   */\n      dup3\n        /* \"#utility.yul\":10567:10660   */\n      tag_151\n      jump\t// in\n    tag_246:\n        /* \"#utility.yul\":10685:10687   */\n      0x23\n        /* \"#utility.yul\":10680:10683   */\n      dup3\n        /* \"#utility.yul\":10676:10688   */\n      add\n        /* \"#utility.yul\":10669:10688   */\n      swap1\n      pop\n        /* \"#utility.yul\":10292:10694   */\n      swap2\n      swap1\n      pop\n      jump\t// out\n        /* \"#utility.yul\":10700:10799   */\n    tag_153:\n        /* \"#utility.yul\":10752:10758   */\n      0x00\n        /* \"#utility.yul\":10786:10791   */\n      dup2\n        /* \"#utility.yul\":10780:10792   */\n      mload\n        /* \"#utility.yul\":10770:10792   */\n      swap1\n      pop\n        /* \"#utility.yul\":10700:10799   */\n      swap2\n      swap1\n      pop\n      jump\t// out\n        /* \"#utility.yul\":10805:11051   */\n    tag_154:\n        /* \"#utility.yul\":10886:10887   */\n      0x00\n        /* \"#utility.yul\":10896:11009   */\n    tag_249:\n        /* \"#utility.yul\":10910:10916   */\n      dup4\n        /* \"#utility.yul\":10907:10908   */\n      dup2\n        /* \"#utility.yul\":10904:10917   */\n      lt\n        /* \"#utility.yul\":10896:11009   */\n      iszero\n      tag_251\n      jumpi\n        /* \"#utility.yul\":10995:10996   */\n      dup1\n        /* \"#utility.yul\":10990:10993   */\n      dup3\n        /* \"#utility.yul\":10986:10997   */\n      add\n        /* \"#utility.yul\":10980:10998   */\n      mload\n        /* \"#utility.yul\":10976:10977   */\n      dup2\n        /* \"#utility.yul\":10971:10974   */\n      dup5\n        /* \"#utility.yul\":10967:10978   */\n      add\n        /* \"#utility.yul\":10960:10999   */\n      mstore\n        /* \"#utility.yul\":10932:10934   */\n      0x20\n        /* \"#utility.yul\":10929:10930   */\n      dup2\n        /* \"#utility.yul\":10925:10935   */\n      add\n        /* \"#utility.yul\":10920:10935   */\n      swap1\n      pop\n        /* \"#utility.yul\":10896:11009   */\n      jump(tag_249)\n    tag_251:\n        /* \"#utility.yul\":11043:11044   */\n      0x00\n        /* \"#utility.yul\":11034:11040   */\n      dup5\n        /* \"#utility.yul\":11029:11032   */\n      dup5\n        /* \"#utility.yul\":11025:11041   */\n      add\n        /* \"#utility.yul\":11018:11045   */\n      mstore\n        /* \"#utility.yul\":10867:11051   */\n      pop\n        /* \"#utility.yul\":10805:11051   */\n      pop\n      pop\n      pop\n      jump\t// out\n        /* \"#utility.yul\":11057:11447   */\n    tag_155:\n        /* \"#utility.yul\":11163:11166   */\n      0x00\n        /* \"#utility.yul\":11191:11230   */\n      tag_253\n        /* \"#utility.yul\":11224:11229   */\n      dup3\n        /* \"#utility.yul\":11191:11230   */\n      tag_153\n      jump\t// in\n    tag_253:\n        /* \"#utility.yul\":11246:11335   */\n      tag_254\n        /* \"#utility.yul\":11328:11334   */\n      dup2\n        /* \"#utility.yul\":11323:11326   */\n      dup6\n        /* \"#utility.yul\":11246:11335   */\n      tag_150\n      jump\t// in\n    tag_254:\n        /* \"#utility.yul\":11239:11335   */\n      swap4\n      pop\n        /* \"#utility.yul\":11344:11409   */\n      tag_255\n        /* \"#utility.yul\":11402:11408   */\n      dup2\n        /* \"#utility.yul\":11397:11400   */\n      dup6\n        /* \"#utility.yul\":11390:11394   */\n      0x20\n        /* \"#utility.yul\":11383:11388   */\n      dup7\n        /* \"#utility.yul\":11379:11395   */\n      add\n        /* \"#utility.yul\":11344:11409   */\n      tag_154\n      jump\t// in\n    tag_255:\n        /* \"#utility.yul\":11434:11440   */\n      dup1\n        /* \"#utility.yul\":11429:11432   */\n      dup5\n        /* \"#utility.yul\":11425:11441   */\n      add\n        /* \"#utility.yul\":11418:11441   */\n      swap2\n      pop\n        /* \"#utility.yul\":11167:11447   */\n      pop\n        /* \"#utility.yul\":11057:11447   */\n      swap3\n      swap2\n      pop\n      pop\n      jump\t// out\n        /* \"#utility.yul\":11453:11673   */\n    tag_156:\n        /* \"#utility.yul\":11593:11627   */\n      0x2e205468652066656520666f72207573696e6720746869732073657276696365\n        /* \"#utility.yul\":11589:11590   */\n      0x00\n        /* \"#utility.yul\":11581:11587   */\n      dup3\n        /* \"#utility.yul\":11577:11591   */\n      add\n        /* \"#utility.yul\":11570:11628   */\n      mstore\n        /* \"#utility.yul\":11662:11665   */\n      0x2e00000000000000000000000000000000000000000000000000000000000000\n        /* \"#utility.yul\":11657:11659   */\n      0x20\n        /* \"#utility.yul\":11649:11655   */\n      dup3\n        /* \"#utility.yul\":11645:11660   */\n      add\n        /* \"#utility.yul\":11638:11666   */\n      mstore\n        /* \"#utility.yul\":11453:11673   */\n      pop\n      jump\t// out\n        /* \"#utility.yul\":11679:12081   */\n    tag_157:\n        /* \"#utility.yul\":11839:11842   */\n      0x00\n        /* \"#utility.yul\":11860:11945   */\n      tag_258\n        /* \"#utility.yul\":11942:11944   */\n      0x21\n        /* \"#utility.yul\":11937:11940   */\n      dup4\n        /* \"#utility.yul\":11860:11945   */\n      tag_150\n      jump\t// in\n    tag_258:\n        /* \"#utility.yul\":11853:11945   */\n      swap2\n      pop\n        /* \"#utility.yul\":11954:12047   */\n      tag_259\n        /* \"#utility.yul\":12043:12046   */\n      dup3\n        /* \"#utility.yul\":11954:12047   */\n      tag_156\n      jump\t// in\n    tag_259:\n        /* \"#utility.yul\":12072:12074   */\n      0x21\n        /* \"#utility.yul\":12067:12070   */\n      dup3\n        /* \"#utility.yul\":12063:12075   */\n      add\n        /* \"#utility.yul\":12056:12075   */\n      swap1\n      pop\n        /* \"#utility.yul\":11679:12081   */\n      swap2\n      swap1\n      pop\n      jump\t// out\n        /* \"#utility.yul\":12087:12894   */\n    tag_83:\n        /* \"#utility.yul\":12421:12424   */\n      0x00\n        /* \"#utility.yul\":12443:12591   */\n      tag_261\n        /* \"#utility.yul\":12587:12590   */\n      dup3\n        /* \"#utility.yul\":12443:12591   */\n      tag_152\n      jump\t// in\n    tag_261:\n        /* \"#utility.yul\":12436:12591   */\n      swap2\n      pop\n        /* \"#utility.yul\":12608:12703   */\n      tag_262\n        /* \"#utility.yul\":12699:12702   */\n      dup3\n        /* \"#utility.yul\":12690:12696   */\n      dup5\n        /* \"#utility.yul\":12608:12703   */\n      tag_155\n      jump\t// in\n    tag_262:\n        /* \"#utility.yul\":12601:12703   */\n      swap2\n      pop\n        /* \"#utility.yul\":12720:12868   */\n      tag_263\n        /* \"#utility.yul\":12864:12867   */\n      dup3\n        /* \"#utility.yul\":12720:12868   */\n      tag_157\n      jump\t// in\n    tag_263:\n        /* \"#utility.yul\":12713:12868   */\n      swap2\n      pop\n        /* \"#utility.yul\":12885:12888   */\n      dup2\n        /* \"#utility.yul\":12878:12888   */\n      swap1\n      pop\n        /* \"#utility.yul\":12087:12894   */\n      swap3\n      swap2\n      pop\n      pop\n      jump\t// out\n        /* \"#utility.yul\":12900:13002   */\n    tag_158:\n        /* \"#utility.yul\":12941:12947   */\n      0x00\n        /* \"#utility.yul\":12992:12994   */\n      0x1f\n        /* \"#utility.yul\":12988:12995   */\n      not\n        /* \"#utility.yul\":12983:12985   */\n      0x1f\n        /* \"#utility.yul\":12976:12981   */\n      dup4\n        /* \"#utility.yul\":12972:12986   */\n      add\n        /* \"#utility.yul\":12968:12996   */\n      and\n        /* \"#utility.yul\":12958:12996   */\n      swap1\n      pop\n        /* \"#utility.yul\":12900:13002   */\n      swap2\n      swap1\n      pop\n      jump\t// out\n        /* \"#utility.yul\":13008:13385   */\n    tag_159:\n        /* \"#utility.yul\":13096:13099   */\n      0x00\n        /* \"#utility.yul\":13124:13163   */\n      tag_266\n        /* \"#utility.yul\":13157:13162   */\n      dup3\n        /* \"#utility.yul\":13124:13163   */\n      tag_153\n      jump\t// in\n    tag_266:\n        /* \"#utility.yul\":13179:13250   */\n      tag_267\n        /* \"#utility.yul\":13243:13249   */\n      dup2\n        /* \"#utility.yul\":13238:13241   */\n      dup6\n        /* \"#utility.yul\":13179:13250   */\n      tag_136\n      jump\t// in\n    tag_267:\n        /* \"#utility.yul\":13172:13250   */\n      swap4\n      pop\n        /* \"#utility.yul\":13259:13324   */\n      tag_268\n        /* \"#utility.yul\":13317:13323   */\n      dup2\n        /* \"#utility.yul\":13312:13315   */\n      dup6\n        /* \"#utility.yul\":13305:13309   */\n      0x20\n        /* \"#utility.yul\":13298:13303   */\n      dup7\n        /* \"#utility.yul\":13294:13310   */\n      add\n        /* \"#utility.yul\":13259:13324   */\n      tag_154\n      jump\t// in\n    tag_268:\n        /* \"#utility.yul\":13349:13378   */\n      tag_269\n        /* \"#utility.yul\":13371:13377   */\n      dup2\n        /* \"#utility.yul\":13349:13378   */\n      tag_158\n      jump\t// in\n    tag_269:\n        /* \"#utility.yul\":13344:13347   */\n      dup5\n        /* \"#utility.yul\":13340:13379   */\n      add\n        /* \"#utility.yul\":13333:13379   */\n      swap2\n      pop\n        /* \"#utility.yul\":13100:13385   */\n      pop\n        /* \"#utility.yul\":13008:13385   */\n      swap3\n      swap2\n      pop\n      pop\n      jump\t// out\n        /* \"#utility.yul\":13391:13704   */\n    tag_86:\n        /* \"#utility.yul\":13504:13508   */\n      0x00\n        /* \"#utility.yul\":13542:13544   */\n      0x20\n        /* \"#utility.yul\":13531:13540   */\n      dup3\n        /* \"#utility.yul\":13527:13545   */\n      add\n        /* \"#utility.yul\":13519:13545   */\n      swap1\n      pop\n        /* \"#utility.yul\":13591:13600   */\n      dup2\n        /* \"#utility.yul\":13585:13589   */\n      dup2\n        /* \"#utility.yul\":13581:13601   */\n      sub\n        /* \"#utility.yul\":13577:13578   */\n      0x00\n        /* \"#utility.yul\":13566:13575   */\n      dup4\n        /* \"#utility.yul\":13562:13579   */\n      add\n        /* \"#utility.yul\":13555:13602   */\n      mstore\n        /* \"#utility.yul\":13619:13697   */\n      tag_271\n        /* \"#utility.yul\":13692:13696   */\n      dup2\n        /* \"#utility.yul\":13683:13689   */\n      dup5\n        /* \"#utility.yul\":13619:13697   */\n      tag_159\n      jump\t// in\n    tag_271:\n        /* \"#utility.yul\":13611:13697   */\n      swap1\n      pop\n        /* \"#utility.yul\":13391:13704   */\n      swap3\n      swap2\n      pop\n      pop\n      jump\t// out\n        /* \"#utility.yul\":13710:13904   */\n    tag_89:\n        /* \"#utility.yul\":13750:13754   */\n      0x00\n        /* \"#utility.yul\":13770:13790   */\n      tag_273\n        /* \"#utility.yul\":13788:13789   */\n      dup3\n        /* \"#utility.yul\":13770:13790   */\n      tag_133\n      jump\t// in\n    tag_273:\n        /* \"#utility.yul\":13765:13790   */\n      swap2\n      pop\n        /* \"#utility.yul\":13804:13824   */\n      tag_274\n        /* \"#utility.yul\":13822:13823   */\n      dup4\n        /* \"#utility.yul\":13804:13824   */\n      tag_133\n      jump\t// in\n    tag_274:\n        /* \"#utility.yul\":13799:13824   */\n      swap3\n      pop\n        /* \"#utility.yul\":13848:13849   */\n      dup3\n        /* \"#utility.yul\":13845:13846   */\n      dup3\n        /* \"#utility.yul\":13841:13850   */\n      sub\n        /* \"#utility.yul\":13833:13850   */\n      swap1\n      pop\n        /* \"#utility.yul\":13872:13873   */\n      dup2\n        /* \"#utility.yul\":13866:13870   */\n      dup2\n        /* \"#utility.yul\":13863:13874   */\n      gt\n        /* \"#utility.yul\":13860:13897   */\n      iszero\n      tag_275\n      jumpi\n        /* \"#utility.yul\":13877:13895   */\n      tag_276\n      tag_141\n      jump\t// in\n    tag_276:\n        /* \"#utility.yul\":13860:13897   */\n    tag_275:\n        /* \"#utility.yul\":13710:13904   */\n      swap3\n      swap2\n      pop\n      pop\n      jump\t// out\n        /* \"#utility.yul\":13910:14101   */\n    tag_91:\n        /* \"#utility.yul\":13950:13953   */\n      0x00\n        /* \"#utility.yul\":13969:13989   */\n      tag_278\n        /* \"#utility.yul\":13987:13988   */\n      dup3\n        /* \"#utility.yul\":13969:13989   */\n      tag_133\n      jump\t// in\n    tag_278:\n        /* \"#utility.yul\":13964:13989   */\n      swap2\n      pop\n        /* \"#utility.yul\":14003:14023   */\n      tag_279\n        /* \"#utility.yul\":14021:14022   */\n      dup4\n        /* \"#utility.yul\":14003:14023   */\n      tag_133\n      jump\t// in\n    tag_279:\n        /* \"#utility.yul\":13998:14023   */\n      swap3\n      pop\n        /* \"#utility.yul\":14046:14047   */\n      dup3\n        /* \"#utility.yul\":14043:14044   */\n      dup3\n        /* \"#utility.yul\":14039:14048   */\n      add\n        /* \"#utility.yul\":14032:14048   */\n      swap1\n      pop\n        /* \"#utility.yul\":14067:14070   */\n      dup1\n        /* \"#utility.yul\":14064:14065   */\n      dup3\n        /* \"#utility.yul\":14061:14071   */\n      gt\n        /* \"#utility.yul\":14058:14094   */\n      iszero\n      tag_280\n      jumpi\n        /* \"#utility.yul\":14074:14092   */\n      tag_281\n      tag_141\n      jump\t// in\n    tag_281:\n        /* \"#utility.yul\":14058:14094   */\n    tag_280:\n        /* \"#utility.yul\":13910:14101   */\n      swap3\n      swap2\n      pop\n      pop\n      jump\t// out\n        /* \"#utility.yul\":14107:14287   */\n    tag_97:\n        /* \"#utility.yul\":14155:14232   */\n      0x4e487b7100000000000000000000000000000000000000000000000000000000\n        /* \"#utility.yul\":14152:14153   */\n      0x00\n        /* \"#utility.yul\":14145:14233   */\n      mstore\n        /* \"#utility.yul\":14252:14256   */\n      0x41\n        /* \"#utility.yul\":14249:14250   */\n      0x04\n        /* \"#utility.yul\":14242:14257   */\n      mstore\n        /* \"#utility.yul\":14276:14280   */\n      0x24\n        /* \"#utility.yul\":14273:14274   */\n      0x00\n        /* \"#utility.yul\":14266:14281   */\n      revert\n\n    auxdata: 0xa2646970667358221220b8b917098d09b03d3ac7c198f699bbdc33f962ba596a38bb910ba73fcc7880ab64736f6c63430008130033\n}\n",
				"bytecode": {
					"linkReferences": {},
					"object": "608060405234801561001057600080fd5b50336000806101000a81548173ffffffffffffffffffffffffffffffffffffffff021916908373ffffffffffffffffffffffffffffffffffffffff16021790555061150f806100606000396000f3fe6080604052600436106100595760003560e01c80633ccfd60b146100655780636faf64451461007c5780638da5cb5b146100935780639f2e606f146100be578063b5356f7e146100e9578063c290d6911461010057610060565b3661006057005b600080fd5b34801561007157600080fd5b5061007a61011c565b005b34801561008857600080fd5b506100916102d7565b005b34801561009f57600080fd5b506100a861046a565b6040516100b59190610d1d565b60405180910390f35b3480156100ca57600080fd5b506100d361048e565b6040516100e09190610d51565b60405180910390f35b3480156100f557600080fd5b506100fe610696565b005b61011a60048036038101906101159190610da7565b610879565b005b33600160003373ffffffffffffffffffffffffffffffffffffffff1673ffffffffffffffffffffffffffffffffffffffff16815260200190815260200160002060030160009054906101000a900460ff166101ac576040517f08c379a00000000000000000000000000000000000000000000000000000000081526004016101a390610e57565b60405180910390fd5b60006101b661048e565b905060008113156101fc576040517f08c379a00000000000000000000000000000000000000000000000000000000081526004016101f390610ec3565b60405180910390fd5b6000600160003373ffffffffffffffffffffffffffffffffffffffff1673ffffffffffffffffffffffffffffffffffffffff1681526020019081526020016000206002015490506000600160003373ffffffffffffffffffffffffffffffffffffffff1673ffffffffffffffffffffffffffffffffffffffff168152602001908152602001600020600201819055503373ffffffffffffffffffffffffffffffffffffffff166108fc829081150290604051600060405180830381858888f193505050501580156102d1573d6000803e3d6000fd5b50505050565b33600160003373ffffffffffffffffffffffffffffffffffffffff1673ffffffffffffffffffffffffffffffffffffffff16815260200190815260200160002060030160009054906101000a900460ff16610367576040517f08c379a000000000000000000000000000000000000000000000000000000000815260040161035e90610e57565b60405180910390fd5b426301e133806103779190610f12565b600160003373ffffffffffffffffffffffffffffffffffffffff1673ffffffffffffffffffffffffffffffffffffffff1681526020019081526020016000206000018190555042600160003373ffffffffffffffffffffffffffffffffffffffff1673ffffffffffffffffffffffffffffffffffffffff1681526020019081526020016000206001018190555060018060003373ffffffffffffffffffffffffffffffffffffffff1673ffffffffffffffffffffffffffffffffffffffff16815260200190815260200160002060030160016101000a81548160ff021916908315150217905550610467336109da565b50565b60008054906101000a900473ffffffffffffffffffffffffffffffffffffffff1681565b600033600160003373ffffffffffffffffffffffffffffffffffffffff1673ffffffffffffffffffffffffffffffffffffffff16815260200190815260200160002060030160009054906101000a900460ff16610520576040517f08c379a000000000000000000000000000000000000000000000000000000000815260040161051790610e57565b60405180910390fd5b600160003373ffffffffffffffffffffffffffffffffffffffff1673ffffffffffffffffffffffffffffffffffffffff16815260200190815260200160002060030160019054906101000a900460ff1661057d5760009150610692565b600160003373ffffffffffffffffffffffffffffffffffffffff1673ffffffffffffffffffffffffffffffffffffffff16815260200190815260200160002060030160019054906101000a900460ff1661060c576040517f08c379a000000000000000000000000000000000000000000000000000000000815260040161060390610fa2565b60405180910390fd5b6000600160003373ffffffffffffffffffffffffffffffffffffffff1673ffffffffffffffffffffffffffffffffffffffff1681526020019081526020016000206000015490506000429050600062015180828461066a9190610fc2565b6106749190611034565b9050600081121561068b5760009450505050610692565b8094505050505b5090565b338073ffffffffffffffffffffffffffffffffffffffff1660008054906101000a900473ffffffffffffffffffffffffffffffffffffffff1673ffffffffffffffffffffffffffffffffffffffff1614610725576040517f08c379a000000000000000000000000000000000000000000000000000000000815260040161071c90611110565b60405180910390fd5b6000600260008060009054906101000a900473ffffffffffffffffffffffffffffffffffffffff1673ffffffffffffffffffffffffffffffffffffffff1673ffffffffffffffffffffffffffffffffffffffff1681526020019081526020016000205410156107c9576040517f08c379a00000000000000000000000000000000000000000000000000000000081526004016107c0906111a2565b60405180910390fd5b6000600260008060009054906101000a900473ffffffffffffffffffffffffffffffffffffffff1673ffffffffffffffffffffffffffffffffffffffff1673ffffffffffffffffffffffffffffffffffffffff168152602001908152602001600020819055503373ffffffffffffffffffffffffffffffffffffffff166108fc479081150290604051600060405180830381858888f19350505050158015610875573d6000803e3d6000fd5b5050565b8034146108bb576040517f08c379a00000000000000000000000000000000000000000000000000000000081526004016108b290611234565b60405180910390fd5b6601f438daa0600081116108d56601f438daa06000610abb565b6040516020016108e591906113a9565b60405160208183030381529060405290610935576040517f08c379a000000000000000000000000000000000000000000000000000000000815260040161092c9190611420565b60405180910390fd5b5060018060003373ffffffffffffffffffffffffffffffffffffffff1673ffffffffffffffffffffffffffffffffffffffff16815260200190815260200160002060030160006101000a81548160ff02191690831515021790555080600160003373ffffffffffffffffffffffffffffffffffffffff1673ffffffffffffffffffffffffffffffffffffffff1681526020019081526020016000206002018190555050565b6601f438daa06000600160008373ffffffffffffffffffffffffffffffffffffffff1673ffffffffffffffffffffffffffffffffffffffff1681526020019081526020016000206002016000828254610a339190611442565b925050819055506601f438daa06000600260008060009054906101000a900473ffffffffffffffffffffffffffffffffffffffff1673ffffffffffffffffffffffffffffffffffffffff1673ffffffffffffffffffffffffffffffffffffffff1681526020019081526020016000206000828254610ab19190611476565b9250508190555050565b606060006001610aca84610b89565b01905060008167ffffffffffffffff811115610ae957610ae86114aa565b5b6040519080825280601f01601f191660200182016040528015610b1b5781602001600182028036833780820191505090505b509050600082602001820190505b600115610b7e578080600190039150507f3031323334353637383961626364656600000000000000000000000000000000600a86061a8153600a8581610b7257610b71611005565b5b04945060008503610b29575b819350505050919050565b600080600090507a184f03e93ff9f4daa797ed6e38ed64bf6a1f0100000000000000008310610be7577a184f03e93ff9f4daa797ed6e38ed64bf6a1f0100000000000000008381610bdd57610bdc611005565b5b0492506040810190505b6d04ee2d6d415b85acef81000000008310610c24576d04ee2d6d415b85acef81000000008381610c1a57610c19611005565b5b0492506020810190505b662386f26fc100008310610c5357662386f26fc100008381610c4957610c48611005565b5b0492506010810190505b6305f5e1008310610c7c576305f5e1008381610c7257610c71611005565b5b0492506008810190505b6127108310610ca1576127108381610c9757610c96611005565b5b0492506004810190505b60648310610cc45760648381610cba57610cb9611005565b5b0492506002810190505b600a8310610cd3576001810190505b80915050919050565b600073ffffffffffffffffffffffffffffffffffffffff82169050919050565b6000610d0782610cdc565b9050919050565b610d1781610cfc565b82525050565b6000602082019050610d326000830184610d0e565b92915050565b6000819050919050565b610d4b81610d38565b82525050565b6000602082019050610d666000830184610d42565b92915050565b600080fd5b6000819050919050565b610d8481610d71565b8114610d8f57600080fd5b50565b600081359050610da181610d7b565b92915050565b600060208284031215610dbd57610dbc610d6c565b5b6000610dcb84828501610d92565b91505092915050565b600082825260208201905092915050565b7f596f752068617665206e6f7420706572666f726d656420616e79207472616e7360008201527f616374696f6e206f6e207468697320736d61727420636f6e7472616374210000602082015250565b6000610e41603e83610dd4565b9150610e4c82610de5565b604082019050919050565b60006020820190508181036000830152610e7081610e34565b9050919050565b7f596f75722066756e647320617265207374696c6c206c6f636b65640000000000600082015250565b6000610ead601b83610dd4565b9150610eb882610e77565b602082019050919050565b60006020820190508181036000830152610edc81610ea0565b9050919050565b7f4e487b7100000000000000000000000000000000000000000000000000000000600052601160045260246000fd5b6000610f1d82610d38565b9150610f2883610d38565b925082820190508281121560008312168382126000841215161715610f5057610f4f610ee3565b5b92915050565b7f596f7520686176656e2774206c6f636b65642066756e64732079657421000000600082015250565b6000610f8c601d83610dd4565b9150610f9782610f56565b602082019050919050565b60006020820190508181036000830152610fbb81610f7f565b9050919050565b6000610fcd82610d38565b9150610fd883610d38565b9250828203905081811260008412168282136000851215161715610fff57610ffe610ee3565b5b92915050565b7f4e487b7100000000000000000000000000000000000000000000000000000000600052601260045260246000fd5b600061103f82610d38565b915061104a83610d38565b92508261105a57611059611005565b5b600160000383147f80000000000000000000000000000000000000000000000000000000000000008314161561109357611092610ee3565b5b828205905092915050565b7f546869732066656174757265206973207265737472696374656420746f20746860008201527f65206f776e657221000000000000000000000000000000000000000000000000602082015250565b60006110fa602883610dd4565b91506111058261109e565b604082019050919050565b60006020820190508181036000830152611129816110ed565b9050919050565b7f596f757220736d61727420636f6e7472616374206861736e27742067656e657260008201527f617465642066756e6473207965742c206368696c6c206f757421f09f98820000602082015250565b600061118c603e83610dd4565b915061119782611130565b604082019050919050565b600060208201905081810360008301526111bb8161117f565b9050919050565b7f54686520616d6f756e7420696e64696361746564206d7573742062652073616d60008201527f6520617320746865207472616e736665722076616c7565000000000000000000602082015250565b600061121e603783610dd4565b9150611229826111c2565b604082019050919050565b6000602082019050818103600083015261124d81611211565b9050919050565b600081905092915050565b7f54686520616d6f756e7420796f752063616e206c6f636b206d7573742065786560008201527f6564200000000000000000000000000000000000000000000000000000000000602082015250565b60006112bb602383611254565b91506112c68261125f565b602382019050919050565b600081519050919050565b60005b838110156112fa5780820151818401526020810190506112df565b60008484015250505050565b6000611311826112d1565b61131b8185611254565b935061132b8185602086016112dc565b80840191505092915050565b7f2e205468652066656520666f72207573696e672074686973207365727669636560008201527f2e00000000000000000000000000000000000000000000000000000000000000602082015250565b6000611393602183611254565b915061139e82611337565b602182019050919050565b60006113b4826112ae565b91506113c08284611306565b91506113cb82611386565b915081905092915050565b6000601f19601f8301169050919050565b60006113f2826112d1565b6113fc8185610dd4565b935061140c8185602086016112dc565b611415816113d6565b840191505092915050565b6000602082019050818103600083015261143a81846113e7565b905092915050565b600061144d82610d71565b915061145883610d71565b92508282039050818111156114705761146f610ee3565b5b92915050565b600061148182610d71565b915061148c83610d71565b92508282019050808211156114a4576114a3610ee3565b5b92915050565b7f4e487b7100000000000000000000000000000000000000000000000000000000600052604160045260246000fdfea2646970667358221220b8b917098d09b03d3ac7c198f699bbdc33f962ba596a38bb910ba73fcc7880ab64736f6c63430008130033",
					"opcodes": "PUSH1 0x80 PUSH1 0x40 MSTORE CALLVALUE DUP1 ISZERO PUSH2 0x10 JUMPI PUSH1 0x0 DUP1 REVERT JUMPDEST POP CALLER PUSH1 0x0 DUP1 PUSH2 0x100 EXP DUP2 SLOAD DUP2 PUSH20 0xFFFFFFFFFFFFFFFFFFFFFFFFFFFFFFFFFFFFFFFF MUL NOT AND SWAP1 DUP4 PUSH20 0xFFFFFFFFFFFFFFFFFFFFFFFFFFFFFFFFFFFFFFFF AND MUL OR SWAP1 SSTORE POP PUSH2 0x150F DUP1 PUSH2 0x60 PUSH1 0x0 CODECOPY PUSH1 0x0 RETURN INVALID PUSH1 0x80 PUSH1 0x40 MSTORE PUSH1 0x4 CALLDATASIZE LT PUSH2 0x59 JUMPI PUSH1 0x0 CALLDATALOAD PUSH1 0xE0 SHR DUP1 PUSH4 0x3CCFD60B EQ PUSH2 0x65 JUMPI DUP1 PUSH4 0x6FAF6445 EQ PUSH2 0x7C JUMPI DUP1 PUSH4 0x8DA5CB5B EQ PUSH2 0x93 JUMPI DUP1 PUSH4 0x9F2E606F EQ PUSH2 0xBE JUMPI DUP1 PUSH4 0xB5356F7E EQ PUSH2 0xE9 JUMPI DUP1 PUSH4 0xC290D691 EQ PUSH2 0x100 JUMPI PUSH2 0x60 JUMP JUMPDEST CALLDATASIZE PUSH2 0x60 JUMPI STOP JUMPDEST PUSH1 0x0 DUP1 REVERT JUMPDEST CALLVALUE DUP1 ISZERO PUSH2 0x71 JUMPI PUSH1 0x0 DUP1 REVERT JUMPDEST POP PUSH2 0x7A PUSH2 0x11C JUMP JUMPDEST STOP JUMPDEST CALLVALUE DUP1 ISZERO PUSH2 0x88 JUMPI PUSH1 0x0 DUP1 REVERT JUMPDEST POP PUSH2 0x91 PUSH2 0x2D7 JUMP JUMPDEST STOP JUMPDEST CALLVALUE DUP1 ISZERO PUSH2 0x9F JUMPI PUSH1 0x0 DUP1 REVERT JUMPDEST POP PUSH2 0xA8 PUSH2 0x46A JUMP JUMPDEST PUSH1 0x40 MLOAD PUSH2 0xB5 SWAP2 SWAP1 PUSH2 0xD1D JUMP JUMPDEST PUSH1 0x40 MLOAD DUP1 SWAP2 SUB SWAP1 RETURN JUMPDEST CALLVALUE DUP1 ISZERO PUSH2 0xCA JUMPI PUSH1 0x0 DUP1 REVERT JUMPDEST POP PUSH2 0xD3 PUSH2 0x48E JUMP JUMPDEST PUSH1 0x40 MLOAD PUSH2 0xE0 SWAP2 SWAP1 PUSH2 0xD51 JUMP JUMPDEST PUSH1 0x40 MLOAD DUP1 SWAP2 SUB SWAP1 RETURN JUMPDEST CALLVALUE DUP1 ISZERO PUSH2 0xF5 JUMPI PUSH1 0x0 DUP1 REVERT JUMPDEST POP PUSH2 0xFE PUSH2 0x696 JUMP JUMPDEST STOP JUMPDEST PUSH2 0x11A PUSH1 0x4 DUP1 CALLDATASIZE SUB DUP2 ADD SWAP1 PUSH2 0x115 SWAP2 SWAP1 PUSH2 0xDA7 JUMP JUMPDEST PUSH2 0x879 JUMP JUMPDEST STOP JUMPDEST CALLER PUSH1 0x1 PUSH1 0x0 CALLER PUSH20 0xFFFFFFFFFFFFFFFFFFFFFFFFFFFFFFFFFFFFFFFF AND PUSH20 0xFFFFFFFFFFFFFFFFFFFFFFFFFFFFFFFFFFFFFFFF AND DUP2 MSTORE PUSH1 0x20 ADD SWAP1 DUP2 MSTORE PUSH1 0x20 ADD PUSH1 0x0 KECCAK256 PUSH1 0x3 ADD PUSH1 0x0 SWAP1 SLOAD SWAP1 PUSH2 0x100 EXP SWAP1 DIV PUSH1 0xFF AND PUSH2 0x1AC JUMPI PUSH1 0x40 MLOAD PUSH32 0x8C379A000000000000000000000000000000000000000000000000000000000 DUP2 MSTORE PUSH1 0x4 ADD PUSH2 0x1A3 SWAP1 PUSH2 0xE57 JUMP JUMPDEST PUSH1 0x40 MLOAD DUP1 SWAP2 SUB SWAP1 REVERT JUMPDEST PUSH1 0x0 PUSH2 0x1B6 PUSH2 0x48E JUMP JUMPDEST SWAP1 POP PUSH1 0x0 DUP2 SGT ISZERO PUSH2 0x1FC JUMPI PUSH1 0x40 MLOAD PUSH32 0x8C379A000000000000000000000000000000000000000000000000000000000 DUP2 MSTORE PUSH1 0x4 ADD PUSH2 0x1F3 SWAP1 PUSH2 0xEC3 JUMP JUMPDEST PUSH1 0x40 MLOAD DUP1 SWAP2 SUB SWAP1 REVERT JUMPDEST PUSH1 0x0 PUSH1 0x1 PUSH1 0x0 CALLER PUSH20 0xFFFFFFFFFFFFFFFFFFFFFFFFFFFFFFFFFFFFFFFF AND PUSH20 0xFFFFFFFFFFFFFFFFFFFFFFFFFFFFFFFFFFFFFFFF AND DUP2 MSTORE PUSH1 0x20 ADD SWAP1 DUP2 MSTORE PUSH1 0x20 ADD PUSH1 0x0 KECCAK256 PUSH1 0x2 ADD SLOAD SWAP1 POP PUSH1 0x0 PUSH1 0x1 PUSH1 0x0 CALLER PUSH20 0xFFFFFFFFFFFFFFFFFFFFFFFFFFFFFFFFFFFFFFFF AND PUSH20 0xFFFFFFFFFFFFFFFFFFFFFFFFFFFFFFFFFFFFFFFF AND DUP2 MSTORE PUSH1 0x20 ADD SWAP1 DUP2 MSTORE PUSH1 0x20 ADD PUSH1 0x0 KECCAK256 PUSH1 0x2 ADD DUP2 SWAP1 SSTORE POP CALLER PUSH20 0xFFFFFFFFFFFFFFFFFFFFFFFFFFFFFFFFFFFFFFFF AND PUSH2 0x8FC DUP3 SWAP1 DUP2 ISZERO MUL SWAP1 PUSH1 0x40 MLOAD PUSH1 0x0 PUSH1 0x40 MLOAD DUP1 DUP4 SUB DUP2 DUP6 DUP9 DUP9 CALL SWAP4 POP POP POP POP ISZERO DUP1 ISZERO PUSH2 0x2D1 JUMPI RETURNDATASIZE PUSH1 0x0 DUP1 RETURNDATACOPY RETURNDATASIZE PUSH1 0x0 REVERT JUMPDEST POP POP POP POP JUMP JUMPDEST CALLER PUSH1 0x1 PUSH1 0x0 CALLER PUSH20 0xFFFFFFFFFFFFFFFFFFFFFFFFFFFFFFFFFFFFFFFF AND PUSH20 0xFFFFFFFFFFFFFFFFFFFFFFFFFFFFFFFFFFFFFFFF AND DUP2 MSTORE PUSH1 0x20 ADD SWAP1 DUP2 MSTORE PUSH1 0x20 ADD PUSH1 0x0 KECCAK256 PUSH1 0x3 ADD PUSH1 0x0 SWAP1 SLOAD SWAP1 PUSH2 0x100 EXP SWAP1 DIV PUSH1 0xFF AND PUSH2 0x367 JUMPI PUSH1 0x40 MLOAD PUSH32 0x8C379A000000000000000000000000000000000000000000000000000000000 DUP2 MSTORE PUSH1 0x4 ADD PUSH2 0x35E SWAP1 PUSH2 0xE57 JUMP JUMPDEST PUSH1 0x40 MLOAD DUP1 SWAP2 SUB SWAP1 REVERT JUMPDEST TIMESTAMP PUSH4 0x1E13380 PUSH2 0x377 SWAP2 SWAP1 PUSH2 0xF12 JUMP JUMPDEST PUSH1 0x1 PUSH1 0x0 CALLER PUSH20 0xFFFFFFFFFFFFFFFFFFFFFFFFFFFFFFFFFFFFFFFF AND PUSH20 0xFFFFFFFFFFFFFFFFFFFFFFFFFFFFFFFFFFFFFFFF AND DUP2 MSTORE PUSH1 0x20 ADD SWAP1 DUP2 MSTORE PUSH1 0x20 ADD PUSH1 0x0 KECCAK256 PUSH1 0x0 ADD DUP2 SWAP1 SSTORE POP TIMESTAMP PUSH1 0x1 PUSH1 0x0 CALLER PUSH20 0xFFFFFFFFFFFFFFFFFFFFFFFFFFFFFFFFFFFFFFFF AND PUSH20 0xFFFFFFFFFFFFFFFFFFFFFFFFFFFFFFFFFFFFFFFF AND DUP2 MSTORE PUSH1 0x20 ADD SWAP1 DUP2 MSTORE PUSH1 0x20 ADD PUSH1 0x0 KECCAK256 PUSH1 0x1 ADD DUP2 SWAP1 SSTORE POP PUSH1 0x1 DUP1 PUSH1 0x0 CALLER PUSH20 0xFFFFFFFFFFFFFFFFFFFFFFFFFFFFFFFFFFFFFFFF AND PUSH20 0xFFFFFFFFFFFFFFFFFFFFFFFFFFFFFFFFFFFFFFFF AND DUP2 MSTORE PUSH1 0x20 ADD SWAP1 DUP2 MSTORE PUSH1 0x20 ADD PUSH1 0x0 KECCAK256 PUSH1 0x3 ADD PUSH1 0x1 PUSH2 0x100 EXP DUP2 SLOAD DUP2 PUSH1 0xFF MUL NOT AND SWAP1 DUP4 ISZERO ISZERO MUL OR SWAP1 SSTORE POP PUSH2 0x467 CALLER PUSH2 0x9DA JUMP JUMPDEST POP JUMP JUMPDEST PUSH1 0x0 DUP1 SLOAD SWAP1 PUSH2 0x100 EXP SWAP1 DIV PUSH20 0xFFFFFFFFFFFFFFFFFFFFFFFFFFFFFFFFFFFFFFFF AND DUP2 JUMP JUMPDEST PUSH1 0x0 CALLER PUSH1 0x1 PUSH1 0x0 CALLER PUSH20 0xFFFFFFFFFFFFFFFFFFFFFFFFFFFFFFFFFFFFFFFF AND PUSH20 0xFFFFFFFFFFFFFFFFFFFFFFFFFFFFFFFFFFFFFFFF AND DUP2 MSTORE PUSH1 0x20 ADD SWAP1 DUP2 MSTORE PUSH1 0x20 ADD PUSH1 0x0 KECCAK256 PUSH1 0x3 ADD PUSH1 0x0 SWAP1 SLOAD SWAP1 PUSH2 0x100 EXP SWAP1 DIV PUSH1 0xFF AND PUSH2 0x520 JUMPI PUSH1 0x40 MLOAD PUSH32 0x8C379A000000000000000000000000000000000000000000000000000000000 DUP2 MSTORE PUSH1 0x4 ADD PUSH2 0x517 SWAP1 PUSH2 0xE57 JUMP JUMPDEST PUSH1 0x40 MLOAD DUP1 SWAP2 SUB SWAP1 REVERT JUMPDEST PUSH1 0x1 PUSH1 0x0 CALLER PUSH20 0xFFFFFFFFFFFFFFFFFFFFFFFFFFFFFFFFFFFFFFFF AND PUSH20 0xFFFFFFFFFFFFFFFFFFFFFFFFFFFFFFFFFFFFFFFF AND DUP2 MSTORE PUSH1 0x20 ADD SWAP1 DUP2 MSTORE PUSH1 0x20 ADD PUSH1 0x0 KECCAK256 PUSH1 0x3 ADD PUSH1 0x1 SWAP1 SLOAD SWAP1 PUSH2 0x100 EXP SWAP1 DIV PUSH1 0xFF AND PUSH2 0x57D JUMPI PUSH1 0x0 SWAP2 POP PUSH2 0x692 JUMP JUMPDEST PUSH1 0x1 PUSH1 0x0 CALLER PUSH20 0xFFFFFFFFFFFFFFFFFFFFFFFFFFFFFFFFFFFFFFFF AND PUSH20 0xFFFFFFFFFFFFFFFFFFFFFFFFFFFFFFFFFFFFFFFF AND DUP2 MSTORE PUSH1 0x20 ADD SWAP1 DUP2 MSTORE PUSH1 0x20 ADD PUSH1 0x0 KECCAK256 PUSH1 0x3 ADD PUSH1 0x1 SWAP1 SLOAD SWAP1 PUSH2 0x100 EXP SWAP1 DIV PUSH1 0xFF AND PUSH2 0x60C JUMPI PUSH1 0x40 MLOAD PUSH32 0x8C379A000000000000000000000000000000000000000000000000000000000 DUP2 MSTORE PUSH1 0x4 ADD PUSH2 0x603 SWAP1 PUSH2 0xFA2 JUMP JUMPDEST PUSH1 0x40 MLOAD DUP1 SWAP2 SUB SWAP1 REVERT JUMPDEST PUSH1 0x0 PUSH1 0x1 PUSH1 0x0 CALLER PUSH20 0xFFFFFFFFFFFFFFFFFFFFFFFFFFFFFFFFFFFFFFFF AND PUSH20 0xFFFFFFFFFFFFFFFFFFFFFFFFFFFFFFFFFFFFFFFF AND DUP2 MSTORE PUSH1 0x20 ADD SWAP1 DUP2 MSTORE PUSH1 0x20 ADD PUSH1 0x0 KECCAK256 PUSH1 0x0 ADD SLOAD SWAP1 POP PUSH1 0x0 TIMESTAMP SWAP1 POP PUSH1 0x0 PUSH3 0x15180 DUP3 DUP5 PUSH2 0x66A SWAP2 SWAP1 PUSH2 0xFC2 JUMP JUMPDEST PUSH2 0x674 SWAP2 SWAP1 PUSH2 0x1034 JUMP JUMPDEST SWAP1 POP PUSH1 0x0 DUP2 SLT ISZERO PUSH2 0x68B JUMPI PUSH1 0x0 SWAP5 POP POP POP POP PUSH2 0x692 JUMP JUMPDEST DUP1 SWAP5 POP POP POP POP JUMPDEST POP SWAP1 JUMP JUMPDEST CALLER DUP1 PUSH20 0xFFFFFFFFFFFFFFFFFFFFFFFFFFFFFFFFFFFFFFFF AND PUSH1 0x0 DUP1 SLOAD SWAP1 PUSH2 0x100 EXP SWAP1 DIV PUSH20 0xFFFFFFFFFFFFFFFFFFFFFFFFFFFFFFFFFFFFFFFF AND PUSH20 0xFFFFFFFFFFFFFFFFFFFFFFFFFFFFFFFFFFFFFFFF AND EQ PUSH2 0x725 JUMPI PUSH1 0x40 MLOAD PUSH32 0x8C379A000000000000000000000000000000000000000000000000000000000 DUP2 MSTORE PUSH1 0x4 ADD PUSH2 0x71C SWAP1 PUSH2 0x1110 JUMP JUMPDEST PUSH1 0x40 MLOAD DUP1 SWAP2 SUB SWAP1 REVERT JUMPDEST PUSH1 0x0 PUSH1 0x2 PUSH1 0x0 DUP1 PUSH1 0x0 SWAP1 SLOAD SWAP1 PUSH2 0x100 EXP SWAP1 DIV PUSH20 0xFFFFFFFFFFFFFFFFFFFFFFFFFFFFFFFFFFFFFFFF AND PUSH20 0xFFFFFFFFFFFFFFFFFFFFFFFFFFFFFFFFFFFFFFFF AND PUSH20 0xFFFFFFFFFFFFFFFFFFFFFFFFFFFFFFFFFFFFFFFF AND DUP2 MSTORE PUSH1 0x20 ADD SWAP1 DUP2 MSTORE PUSH1 0x20 ADD PUSH1 0x0 KECCAK256 SLOAD LT ISZERO PUSH2 0x7C9 JUMPI PUSH1 0x40 MLOAD PUSH32 0x8C379A000000000000000000000000000000000000000000000000000000000 DUP2 MSTORE PUSH1 0x4 ADD PUSH2 0x7C0 SWAP1 PUSH2 0x11A2 JUMP JUMPDEST PUSH1 0x40 MLOAD DUP1 SWAP2 SUB SWAP1 REVERT JUMPDEST PUSH1 0x0 PUSH1 0x2 PUSH1 0x0 DUP1 PUSH1 0x0 SWAP1 SLOAD SWAP1 PUSH2 0x100 EXP SWAP1 DIV PUSH20 0xFFFFFFFFFFFFFFFFFFFFFFFFFFFFFFFFFFFFFFFF AND PUSH20 0xFFFFFFFFFFFFFFFFFFFFFFFFFFFFFFFFFFFFFFFF AND PUSH20 0xFFFFFFFFFFFFFFFFFFFFFFFFFFFFFFFFFFFFFFFF AND DUP2 MSTORE PUSH1 0x20 ADD SWAP1 DUP2 MSTORE PUSH1 0x20 ADD PUSH1 0x0 KECCAK256 DUP2 SWAP1 SSTORE POP CALLER PUSH20 0xFFFFFFFFFFFFFFFFFFFFFFFFFFFFFFFFFFFFFFFF AND PUSH2 0x8FC SELFBALANCE SWAP1 DUP2 ISZERO MUL SWAP1 PUSH1 0x40 MLOAD PUSH1 0x0 PUSH1 0x40 MLOAD DUP1 DUP4 SUB DUP2 DUP6 DUP9 DUP9 CALL SWAP4 POP POP POP POP ISZERO DUP1 ISZERO PUSH2 0x875 JUMPI RETURNDATASIZE PUSH1 0x0 DUP1 RETURNDATACOPY RETURNDATASIZE PUSH1 0x0 REVERT JUMPDEST POP POP JUMP JUMPDEST DUP1 CALLVALUE EQ PUSH2 0x8BB JUMPI PUSH1 0x40 MLOAD PUSH32 0x8C379A000000000000000000000000000000000000000000000000000000000 DUP2 MSTORE PUSH1 0x4 ADD PUSH2 0x8B2 SWAP1 PUSH2 0x1234 JUMP JUMPDEST PUSH1 0x40 MLOAD DUP1 SWAP2 SUB SWAP1 REVERT JUMPDEST PUSH7 0x1F438DAA06000 DUP2 GT PUSH2 0x8D5 PUSH7 0x1F438DAA06000 PUSH2 0xABB JUMP JUMPDEST PUSH1 0x40 MLOAD PUSH1 0x20 ADD PUSH2 0x8E5 SWAP2 SWAP1 PUSH2 0x13A9 JUMP JUMPDEST PUSH1 0x40 MLOAD PUSH1 0x20 DUP2 DUP4 SUB SUB DUP2 MSTORE SWAP1 PUSH1 0x40 MSTORE SWAP1 PUSH2 0x935 JUMPI PUSH1 0x40 MLOAD PUSH32 0x8C379A000000000000000000000000000000000000000000000000000000000 DUP2 MSTORE PUSH1 0x4 ADD PUSH2 0x92C SWAP2 SWAP1 PUSH2 0x1420 JUMP JUMPDEST PUSH1 0x40 MLOAD DUP1 SWAP2 SUB SWAP1 REVERT JUMPDEST POP PUSH1 0x1 DUP1 PUSH1 0x0 CALLER PUSH20 0xFFFFFFFFFFFFFFFFFFFFFFFFFFFFFFFFFFFFFFFF AND PUSH20 0xFFFFFFFFFFFFFFFFFFFFFFFFFFFFFFFFFFFFFFFF AND DUP2 MSTORE PUSH1 0x20 ADD SWAP1 DUP2 MSTORE PUSH1 0x20 ADD PUSH1 0x0 KECCAK256 PUSH1 0x3 ADD PUSH1 0x0 PUSH2 0x100 EXP DUP2 SLOAD DUP2 PUSH1 0xFF MUL NOT AND SWAP1 DUP4 ISZERO ISZERO MUL OR SWAP1 SSTORE POP DUP1 PUSH1 0x1 PUSH1 0x0 CALLER PUSH20 0xFFFFFFFFFFFFFFFFFFFFFFFFFFFFFFFFFFFFFFFF AND PUSH20 0xFFFFFFFFFFFFFFFFFFFFFFFFFFFFFFFFFFFFFFFF AND DUP2 MSTORE PUSH1 0x20 ADD SWAP1 DUP2 MSTORE PUSH1 0x20 ADD PUSH1 0x0 KECCAK256 PUSH1 0x2 ADD DUP2 SWAP1 SSTORE POP POP JUMP JUMPDEST PUSH7 0x1F438DAA06000 PUSH1 0x1 PUSH1 0x0 DUP4 PUSH20 0xFFFFFFFFFFFFFFFFFFFFFFFFFFFFFFFFFFFFFFFF AND PUSH20 0xFFFFFFFFFFFFFFFFFFFFFFFFFFFFFFFFFFFFFFFF AND DUP2 MSTORE PUSH1 0x20 ADD SWAP1 DUP2 MSTORE PUSH1 0x20 ADD PUSH1 0x0 KECCAK256 PUSH1 0x2 ADD PUSH1 0x0 DUP3 DUP3 SLOAD PUSH2 0xA33 SWAP2 SWAP1 PUSH2 0x1442 JUMP JUMPDEST SWAP3 POP POP DUP2 SWAP1 SSTORE POP PUSH7 0x1F438DAA06000 PUSH1 0x2 PUSH1 0x0 DUP1 PUSH1 0x0 SWAP1 SLOAD SWAP1 PUSH2 0x100 EXP SWAP1 DIV PUSH20 0xFFFFFFFFFFFFFFFFFFFFFFFFFFFFFFFFFFFFFFFF AND PUSH20 0xFFFFFFFFFFFFFFFFFFFFFFFFFFFFFFFFFFFFFFFF AND PUSH20 0xFFFFFFFFFFFFFFFFFFFFFFFFFFFFFFFFFFFFFFFF AND DUP2 MSTORE PUSH1 0x20 ADD SWAP1 DUP2 MSTORE PUSH1 0x20 ADD PUSH1 0x0 KECCAK256 PUSH1 0x0 DUP3 DUP3 SLOAD PUSH2 0xAB1 SWAP2 SWAP1 PUSH2 0x1476 JUMP JUMPDEST SWAP3 POP POP DUP2 SWAP1 SSTORE POP POP JUMP JUMPDEST PUSH1 0x60 PUSH1 0x0 PUSH1 0x1 PUSH2 0xACA DUP5 PUSH2 0xB89 JUMP JUMPDEST ADD SWAP1 POP PUSH1 0x0 DUP2 PUSH8 0xFFFFFFFFFFFFFFFF DUP2 GT ISZERO PUSH2 0xAE9 JUMPI PUSH2 0xAE8 PUSH2 0x14AA JUMP JUMPDEST JUMPDEST PUSH1 0x40 MLOAD SWAP1 DUP1 DUP3 MSTORE DUP1 PUSH1 0x1F ADD PUSH1 0x1F NOT AND PUSH1 0x20 ADD DUP3 ADD PUSH1 0x40 MSTORE DUP1 ISZERO PUSH2 0xB1B JUMPI DUP2 PUSH1 0x20 ADD PUSH1 0x1 DUP3 MUL DUP1 CALLDATASIZE DUP4 CALLDATACOPY DUP1 DUP3 ADD SWAP2 POP POP SWAP1 POP JUMPDEST POP SWAP1 POP PUSH1 0x0 DUP3 PUSH1 0x20 ADD DUP3 ADD SWAP1 POP JUMPDEST PUSH1 0x1 ISZERO PUSH2 0xB7E JUMPI DUP1 DUP1 PUSH1 0x1 SWAP1 SUB SWAP2 POP POP PUSH32 0x3031323334353637383961626364656600000000000000000000000000000000 PUSH1 0xA DUP7 MOD BYTE DUP2 MSTORE8 PUSH1 0xA DUP6 DUP2 PUSH2 0xB72 JUMPI PUSH2 0xB71 PUSH2 0x1005 JUMP JUMPDEST JUMPDEST DIV SWAP5 POP PUSH1 0x0 DUP6 SUB PUSH2 0xB29 JUMPI JUMPDEST DUP2 SWAP4 POP POP POP POP SWAP2 SWAP1 POP JUMP JUMPDEST PUSH1 0x0 DUP1 PUSH1 0x0 SWAP1 POP PUSH27 0x184F03E93FF9F4DAA797ED6E38ED64BF6A1F010000000000000000 DUP4 LT PUSH2 0xBE7 JUMPI PUSH27 0x184F03E93FF9F4DAA797ED6E38ED64BF6A1F010000000000000000 DUP4 DUP2 PUSH2 0xBDD JUMPI PUSH2 0xBDC PUSH2 0x1005 JUMP JUMPDEST JUMPDEST DIV SWAP3 POP PUSH1 0x40 DUP2 ADD SWAP1 POP JUMPDEST PUSH14 0x4EE2D6D415B85ACEF8100000000 DUP4 LT PUSH2 0xC24 JUMPI PUSH14 0x4EE2D6D415B85ACEF8100000000 DUP4 DUP2 PUSH2 0xC1A JUMPI PUSH2 0xC19 PUSH2 0x1005 JUMP JUMPDEST JUMPDEST DIV SWAP3 POP PUSH1 0x20 DUP2 ADD SWAP1 POP JUMPDEST PUSH7 0x2386F26FC10000 DUP4 LT PUSH2 0xC53 JUMPI PUSH7 0x2386F26FC10000 DUP4 DUP2 PUSH2 0xC49 JUMPI PUSH2 0xC48 PUSH2 0x1005 JUMP JUMPDEST JUMPDEST DIV SWAP3 POP PUSH1 0x10 DUP2 ADD SWAP1 POP JUMPDEST PUSH4 0x5F5E100 DUP4 LT PUSH2 0xC7C JUMPI PUSH4 0x5F5E100 DUP4 DUP2 PUSH2 0xC72 JUMPI PUSH2 0xC71 PUSH2 0x1005 JUMP JUMPDEST JUMPDEST DIV SWAP3 POP PUSH1 0x8 DUP2 ADD SWAP1 POP JUMPDEST PUSH2 0x2710 DUP4 LT PUSH2 0xCA1 JUMPI PUSH2 0x2710 DUP4 DUP2 PUSH2 0xC97 JUMPI PUSH2 0xC96 PUSH2 0x1005 JUMP JUMPDEST JUMPDEST DIV SWAP3 POP PUSH1 0x4 DUP2 ADD SWAP1 POP JUMPDEST PUSH1 0x64 DUP4 LT PUSH2 0xCC4 JUMPI PUSH1 0x64 DUP4 DUP2 PUSH2 0xCBA JUMPI PUSH2 0xCB9 PUSH2 0x1005 JUMP JUMPDEST JUMPDEST DIV SWAP3 POP PUSH1 0x2 DUP2 ADD SWAP1 POP JUMPDEST PUSH1 0xA DUP4 LT PUSH2 0xCD3 JUMPI PUSH1 0x1 DUP2 ADD SWAP1 POP JUMPDEST DUP1 SWAP2 POP POP SWAP2 SWAP1 POP JUMP JUMPDEST PUSH1 0x0 PUSH20 0xFFFFFFFFFFFFFFFFFFFFFFFFFFFFFFFFFFFFFFFF DUP3 AND SWAP1 POP SWAP2 SWAP1 POP JUMP JUMPDEST PUSH1 0x0 PUSH2 0xD07 DUP3 PUSH2 0xCDC JUMP JUMPDEST SWAP1 POP SWAP2 SWAP1 POP JUMP JUMPDEST PUSH2 0xD17 DUP2 PUSH2 0xCFC JUMP JUMPDEST DUP3 MSTORE POP POP JUMP JUMPDEST PUSH1 0x0 PUSH1 0x20 DUP3 ADD SWAP1 POP PUSH2 0xD32 PUSH1 0x0 DUP4 ADD DUP5 PUSH2 0xD0E JUMP JUMPDEST SWAP3 SWAP2 POP POP JUMP JUMPDEST PUSH1 0x0 DUP2 SWAP1 POP SWAP2 SWAP1 POP JUMP JUMPDEST PUSH2 0xD4B DUP2 PUSH2 0xD38 JUMP JUMPDEST DUP3 MSTORE POP POP JUMP JUMPDEST PUSH1 0x0 PUSH1 0x20 DUP3 ADD SWAP1 POP PUSH2 0xD66 PUSH1 0x0 DUP4 ADD DUP5 PUSH2 0xD42 JUMP JUMPDEST SWAP3 SWAP2 POP POP JUMP JUMPDEST PUSH1 0x0 DUP1 REVERT JUMPDEST PUSH1 0x0 DUP2 SWAP1 POP SWAP2 SWAP1 POP JUMP JUMPDEST PUSH2 0xD84 DUP2 PUSH2 0xD71 JUMP JUMPDEST DUP2 EQ PUSH2 0xD8F JUMPI PUSH1 0x0 DUP1 REVERT JUMPDEST POP JUMP JUMPDEST PUSH1 0x0 DUP2 CALLDATALOAD SWAP1 POP PUSH2 0xDA1 DUP2 PUSH2 0xD7B JUMP JUMPDEST SWAP3 SWAP2 POP POP JUMP JUMPDEST PUSH1 0x0 PUSH1 0x20 DUP3 DUP5 SUB SLT ISZERO PUSH2 0xDBD JUMPI PUSH2 0xDBC PUSH2 0xD6C JUMP JUMPDEST JUMPDEST PUSH1 0x0 PUSH2 0xDCB DUP5 DUP3 DUP6 ADD PUSH2 0xD92 JUMP JUMPDEST SWAP2 POP POP SWAP3 SWAP2 POP POP JUMP JUMPDEST PUSH1 0x0 DUP3 DUP3 MSTORE PUSH1 0x20 DUP3 ADD SWAP1 POP SWAP3 SWAP2 POP POP JUMP JUMPDEST PUSH32 0x596F752068617665206E6F7420706572666F726D656420616E79207472616E73 PUSH1 0x0 DUP3 ADD MSTORE PUSH32 0x616374696F6E206F6E207468697320736D61727420636F6E7472616374210000 PUSH1 0x20 DUP3 ADD MSTORE POP JUMP JUMPDEST PUSH1 0x0 PUSH2 0xE41 PUSH1 0x3E DUP4 PUSH2 0xDD4 JUMP JUMPDEST SWAP2 POP PUSH2 0xE4C DUP3 PUSH2 0xDE5 JUMP JUMPDEST PUSH1 0x40 DUP3 ADD SWAP1 POP SWAP2 SWAP1 POP JUMP JUMPDEST PUSH1 0x0 PUSH1 0x20 DUP3 ADD SWAP1 POP DUP2 DUP2 SUB PUSH1 0x0 DUP4 ADD MSTORE PUSH2 0xE70 DUP2 PUSH2 0xE34 JUMP JUMPDEST SWAP1 POP SWAP2 SWAP1 POP JUMP JUMPDEST PUSH32 0x596F75722066756E647320617265207374696C6C206C6F636B65640000000000 PUSH1 0x0 DUP3 ADD MSTORE POP JUMP JUMPDEST PUSH1 0x0 PUSH2 0xEAD PUSH1 0x1B DUP4 PUSH2 0xDD4 JUMP JUMPDEST SWAP2 POP PUSH2 0xEB8 DUP3 PUSH2 0xE77 JUMP JUMPDEST PUSH1 0x20 DUP3 ADD SWAP1 POP SWAP2 SWAP1 POP JUMP JUMPDEST PUSH1 0x0 PUSH1 0x20 DUP3 ADD SWAP1 POP DUP2 DUP2 SUB PUSH1 0x0 DUP4 ADD MSTORE PUSH2 0xEDC DUP2 PUSH2 0xEA0 JUMP JUMPDEST SWAP1 POP SWAP2 SWAP1 POP JUMP JUMPDEST PUSH32 0x4E487B7100000000000000000000000000000000000000000000000000000000 PUSH1 0x0 MSTORE PUSH1 0x11 PUSH1 0x4 MSTORE PUSH1 0x24 PUSH1 0x0 REVERT JUMPDEST PUSH1 0x0 PUSH2 0xF1D DUP3 PUSH2 0xD38 JUMP JUMPDEST SWAP2 POP PUSH2 0xF28 DUP4 PUSH2 0xD38 JUMP JUMPDEST SWAP3 POP DUP3 DUP3 ADD SWAP1 POP DUP3 DUP2 SLT ISZERO PUSH1 0x0 DUP4 SLT AND DUP4 DUP3 SLT PUSH1 0x0 DUP5 SLT ISZERO AND OR ISZERO PUSH2 0xF50 JUMPI PUSH2 0xF4F PUSH2 0xEE3 JUMP JUMPDEST JUMPDEST SWAP3 SWAP2 POP POP JUMP JUMPDEST PUSH32 0x596F7520686176656E2774206C6F636B65642066756E64732079657421000000 PUSH1 0x0 DUP3 ADD MSTORE POP JUMP JUMPDEST PUSH1 0x0 PUSH2 0xF8C PUSH1 0x1D DUP4 PUSH2 0xDD4 JUMP JUMPDEST SWAP2 POP PUSH2 0xF97 DUP3 PUSH2 0xF56 JUMP JUMPDEST PUSH1 0x20 DUP3 ADD SWAP1 POP SWAP2 SWAP1 POP JUMP JUMPDEST PUSH1 0x0 PUSH1 0x20 DUP3 ADD SWAP1 POP DUP2 DUP2 SUB PUSH1 0x0 DUP4 ADD MSTORE PUSH2 0xFBB DUP2 PUSH2 0xF7F JUMP JUMPDEST SWAP1 POP SWAP2 SWAP1 POP JUMP JUMPDEST PUSH1 0x0 PUSH2 0xFCD DUP3 PUSH2 0xD38 JUMP JUMPDEST SWAP2 POP PUSH2 0xFD8 DUP4 PUSH2 0xD38 JUMP JUMPDEST SWAP3 POP DUP3 DUP3 SUB SWAP1 POP DUP2 DUP2 SLT PUSH1 0x0 DUP5 SLT AND DUP3 DUP3 SGT PUSH1 0x0 DUP6 SLT ISZERO AND OR ISZERO PUSH2 0xFFF JUMPI PUSH2 0xFFE PUSH2 0xEE3 JUMP JUMPDEST JUMPDEST SWAP3 SWAP2 POP POP JUMP JUMPDEST PUSH32 0x4E487B7100000000000000000000000000000000000000000000000000000000 PUSH1 0x0 MSTORE PUSH1 0x12 PUSH1 0x4 MSTORE PUSH1 0x24 PUSH1 0x0 REVERT JUMPDEST PUSH1 0x0 PUSH2 0x103F DUP3 PUSH2 0xD38 JUMP JUMPDEST SWAP2 POP PUSH2 0x104A DUP4 PUSH2 0xD38 JUMP JUMPDEST SWAP3 POP DUP3 PUSH2 0x105A JUMPI PUSH2 0x1059 PUSH2 0x1005 JUMP JUMPDEST JUMPDEST PUSH1 0x1 PUSH1 0x0 SUB DUP4 EQ PUSH32 0x8000000000000000000000000000000000000000000000000000000000000000 DUP4 EQ AND ISZERO PUSH2 0x1093 JUMPI PUSH2 0x1092 PUSH2 0xEE3 JUMP JUMPDEST JUMPDEST DUP3 DUP3 SDIV SWAP1 POP SWAP3 SWAP2 POP POP JUMP JUMPDEST PUSH32 0x546869732066656174757265206973207265737472696374656420746F207468 PUSH1 0x0 DUP3 ADD MSTORE PUSH32 0x65206F776E657221000000000000000000000000000000000000000000000000 PUSH1 0x20 DUP3 ADD MSTORE POP JUMP JUMPDEST PUSH1 0x0 PUSH2 0x10FA PUSH1 0x28 DUP4 PUSH2 0xDD4 JUMP JUMPDEST SWAP2 POP PUSH2 0x1105 DUP3 PUSH2 0x109E JUMP JUMPDEST PUSH1 0x40 DUP3 ADD SWAP1 POP SWAP2 SWAP1 POP JUMP JUMPDEST PUSH1 0x0 PUSH1 0x20 DUP3 ADD SWAP1 POP DUP2 DUP2 SUB PUSH1 0x0 DUP4 ADD MSTORE PUSH2 0x1129 DUP2 PUSH2 0x10ED JUMP JUMPDEST SWAP1 POP SWAP2 SWAP1 POP JUMP JUMPDEST PUSH32 0x596F757220736D61727420636F6E7472616374206861736E27742067656E6572 PUSH1 0x0 DUP3 ADD MSTORE PUSH32 0x617465642066756E6473207965742C206368696C6C206F757421F09F98820000 PUSH1 0x20 DUP3 ADD MSTORE POP JUMP JUMPDEST PUSH1 0x0 PUSH2 0x118C PUSH1 0x3E DUP4 PUSH2 0xDD4 JUMP JUMPDEST SWAP2 POP PUSH2 0x1197 DUP3 PUSH2 0x1130 JUMP JUMPDEST PUSH1 0x40 DUP3 ADD SWAP1 POP SWAP2 SWAP1 POP JUMP JUMPDEST PUSH1 0x0 PUSH1 0x20 DUP3 ADD SWAP1 POP DUP2 DUP2 SUB PUSH1 0x0 DUP4 ADD MSTORE PUSH2 0x11BB DUP2 PUSH2 0x117F JUMP JUMPDEST SWAP1 POP SWAP2 SWAP1 POP JUMP JUMPDEST PUSH32 0x54686520616D6F756E7420696E64696361746564206D7573742062652073616D PUSH1 0x0 DUP3 ADD MSTORE PUSH32 0x6520617320746865207472616E736665722076616C7565000000000000000000 PUSH1 0x20 DUP3 ADD MSTORE POP JUMP JUMPDEST PUSH1 0x0 PUSH2 0x121E PUSH1 0x37 DUP4 PUSH2 0xDD4 JUMP JUMPDEST SWAP2 POP PUSH2 0x1229 DUP3 PUSH2 0x11C2 JUMP JUMPDEST PUSH1 0x40 DUP3 ADD SWAP1 POP SWAP2 SWAP1 POP JUMP JUMPDEST PUSH1 0x0 PUSH1 0x20 DUP3 ADD SWAP1 POP DUP2 DUP2 SUB PUSH1 0x0 DUP4 ADD MSTORE PUSH2 0x124D DUP2 PUSH2 0x1211 JUMP JUMPDEST SWAP1 POP SWAP2 SWAP1 POP JUMP JUMPDEST PUSH1 0x0 DUP2 SWAP1 POP SWAP3 SWAP2 POP POP JUMP JUMPDEST PUSH32 0x54686520616D6F756E7420796F752063616E206C6F636B206D75737420657865 PUSH1 0x0 DUP3 ADD MSTORE PUSH32 0x6564200000000000000000000000000000000000000000000000000000000000 PUSH1 0x20 DUP3 ADD MSTORE POP JUMP JUMPDEST PUSH1 0x0 PUSH2 0x12BB PUSH1 0x23 DUP4 PUSH2 0x1254 JUMP JUMPDEST SWAP2 POP PUSH2 0x12C6 DUP3 PUSH2 0x125F JUMP JUMPDEST PUSH1 0x23 DUP3 ADD SWAP1 POP SWAP2 SWAP1 POP JUMP JUMPDEST PUSH1 0x0 DUP2 MLOAD SWAP1 POP SWAP2 SWAP1 POP JUMP JUMPDEST PUSH1 0x0 JUMPDEST DUP4 DUP2 LT ISZERO PUSH2 0x12FA JUMPI DUP1 DUP3 ADD MLOAD DUP2 DUP5 ADD MSTORE PUSH1 0x20 DUP2 ADD SWAP1 POP PUSH2 0x12DF JUMP JUMPDEST PUSH1 0x0 DUP5 DUP5 ADD MSTORE POP POP POP POP JUMP JUMPDEST PUSH1 0x0 PUSH2 0x1311 DUP3 PUSH2 0x12D1 JUMP JUMPDEST PUSH2 0x131B DUP2 DUP6 PUSH2 0x1254 JUMP JUMPDEST SWAP4 POP PUSH2 0x132B DUP2 DUP6 PUSH1 0x20 DUP7 ADD PUSH2 0x12DC JUMP JUMPDEST DUP1 DUP5 ADD SWAP2 POP POP SWAP3 SWAP2 POP POP JUMP JUMPDEST PUSH32 0x2E205468652066656520666F72207573696E6720746869732073657276696365 PUSH1 0x0 DUP3 ADD MSTORE PUSH32 0x2E00000000000000000000000000000000000000000000000000000000000000 PUSH1 0x20 DUP3 ADD MSTORE POP JUMP JUMPDEST PUSH1 0x0 PUSH2 0x1393 PUSH1 0x21 DUP4 PUSH2 0x1254 JUMP JUMPDEST SWAP2 POP PUSH2 0x139E DUP3 PUSH2 0x1337 JUMP JUMPDEST PUSH1 0x21 DUP3 ADD SWAP1 POP SWAP2 SWAP1 POP JUMP JUMPDEST PUSH1 0x0 PUSH2 0x13B4 DUP3 PUSH2 0x12AE JUMP JUMPDEST SWAP2 POP PUSH2 0x13C0 DUP3 DUP5 PUSH2 0x1306 JUMP JUMPDEST SWAP2 POP PUSH2 0x13CB DUP3 PUSH2 0x1386 JUMP JUMPDEST SWAP2 POP DUP2 SWAP1 POP SWAP3 SWAP2 POP POP JUMP JUMPDEST PUSH1 0x0 PUSH1 0x1F NOT PUSH1 0x1F DUP4 ADD AND SWAP1 POP SWAP2 SWAP1 POP JUMP JUMPDEST PUSH1 0x0 PUSH2 0x13F2 DUP3 PUSH2 0x12D1 JUMP JUMPDEST PUSH2 0x13FC DUP2 DUP6 PUSH2 0xDD4 JUMP JUMPDEST SWAP4 POP PUSH2 0x140C DUP2 DUP6 PUSH1 0x20 DUP7 ADD PUSH2 0x12DC JUMP JUMPDEST PUSH2 0x1415 DUP2 PUSH2 0x13D6 JUMP JUMPDEST DUP5 ADD SWAP2 POP POP SWAP3 SWAP2 POP POP JUMP JUMPDEST PUSH1 0x0 PUSH1 0x20 DUP3 ADD SWAP1 POP DUP2 DUP2 SUB PUSH1 0x0 DUP4 ADD MSTORE PUSH2 0x143A DUP2 DUP5 PUSH2 0x13E7 JUMP JUMPDEST SWAP1 POP SWAP3 SWAP2 POP POP JUMP JUMPDEST PUSH1 0x0 PUSH2 0x144D DUP3 PUSH2 0xD71 JUMP JUMPDEST SWAP2 POP PUSH2 0x1458 DUP4 PUSH2 0xD71 JUMP JUMPDEST SWAP3 POP DUP3 DUP3 SUB SWAP1 POP DUP2 DUP2 GT ISZERO PUSH2 0x1470 JUMPI PUSH2 0x146F PUSH2 0xEE3 JUMP JUMPDEST JUMPDEST SWAP3 SWAP2 POP POP JUMP JUMPDEST PUSH1 0x0 PUSH2 0x1481 DUP3 PUSH2 0xD71 JUMP JUMPDEST SWAP2 POP PUSH2 0x148C DUP4 PUSH2 0xD71 JUMP JUMPDEST SWAP3 POP DUP3 DUP3 ADD SWAP1 POP DUP1 DUP3 GT ISZERO PUSH2 0x14A4 JUMPI PUSH2 0x14A3 PUSH2 0xEE3 JUMP JUMPDEST JUMPDEST SWAP3 SWAP2 POP POP JUMP JUMPDEST PUSH32 0x4E487B7100000000000000000000000000000000000000000000000000000000 PUSH1 0x0 MSTORE PUSH1 0x41 PUSH1 0x4 MSTORE PUSH1 0x24 PUSH1 0x0 REVERT INVALID LOG2 PUSH5 0x6970667358 0x22 SLT KECCAK256 0xB8 0xB9 OR MULMOD DUP14 MULMOD 0xB0 RETURNDATASIZE GASPRICE 0xC7 0xC1 SWAP9 0xF6 SWAP10 0xBB 0xDC CALLER 0xF9 PUSH3 0xBA596A CODESIZE 0xBB SWAP2 SIGNEXTEND 0xA7 EXTCODEHASH 0xCC PUSH25 0x80AB64736F6C63430008130033000000000000000000000000 "
				},
				"gasEstimates": {
					"creation": {
						"codeDepositCost": "1078200",
						"executionCost": "25386",
						"totalCost": "1103586"
					},
					"external": {
						"LockFunds()": "infinite",
						"howManyDaysLeft()": "infinite",
						"owner()": "2533",
						"pay(uint256)": "infinite",
						"withDrawTax()": "infinite",
						"withdraw()": "infinite"
					},
					"internal": {
						"taxLockedFunds(address)": "infinite"
					}
				},
				"methodIdentifiers": {
					"LockFunds()": "6faf6445",
					"howManyDaysLeft()": "9f2e606f",
					"owner()": "8da5cb5b",
					"pay(uint256)": "c290d691",
					"withDrawTax()": "b5356f7e",
					"withdraw()": "3ccfd60b"
				}
			},
			"storageLayout": {
				"storage": [
					{
						"astId": 1204,
						"contract": "contracts/TimeLock.sol:TimeLock",
						"label": "owner",
						"offset": 0,
						"slot": "0",
						"type": "t_address"
					},
					{
						"astId": 1232,
						"contract": "contracts/TimeLock.sol:TimeLock",
						"label": "userLockDetails",
						"offset": 0,
						"slot": "1",
						"type": "t_mapping(t_address,t_struct(UserDetails)1227_storage)"
					},
					{
						"astId": 1236,
						"contract": "contracts/TimeLock.sol:TimeLock",
						"label": "taxBalance",
						"offset": 0,
						"slot": "2",
						"type": "t_mapping(t_address,t_uint256)"
					}
				],
				"types": {
					"t_address": {
						"encoding": "inplace",
						"label": "address",
						"numberOfBytes": "20"
					},
					"t_bool": {
						"encoding": "inplace",
						"label": "bool",
						"numberOfBytes": "1"
					},
					"t_int256": {
						"encoding": "inplace",
						"label": "int256",
						"numberOfBytes": "32"
					},
					"t_mapping(t_address,t_struct(UserDetails)1227_storage)": {
						"encoding": "mapping",
						"key": "t_address",
						"label": "mapping(address => struct TimeLock.UserDetails)",
						"numberOfBytes": "32",
						"value": "t_struct(UserDetails)1227_storage"
					},
					"t_mapping(t_address,t_uint256)": {
						"encoding": "mapping",
						"key": "t_address",
						"label": "mapping(address => uint256)",
						"numberOfBytes": "32",
						"value": "t_uint256"
					},
					"t_struct(UserDetails)1227_storage": {
						"encoding": "inplace",
						"label": "struct TimeLock.UserDetails",
						"members": [
							{
								"astId": 1218,
								"contract": "contracts/TimeLock.sol:TimeLock",
								"label": "lockTime",
								"offset": 0,
								"slot": "0",
								"type": "t_int256"
							},
							{
								"astId": 1220,
								"contract": "contracts/TimeLock.sol:TimeLock",
								"label": "startTime",
								"offset": 0,
								"slot": "1",
								"type": "t_uint256"
							},
							{
								"astId": 1222,
								"contract": "contracts/TimeLock.sol:TimeLock",
								"label": "addressBalance",
								"offset": 0,
								"slot": "2",
								"type": "t_uint256"
							},
							{
								"astId": 1224,
								"contract": "contracts/TimeLock.sol:TimeLock",
								"label": "hasAnAccount",
								"offset": 0,
								"slot": "3",
								"type": "t_bool"
							},
							{
								"astId": 1226,
								"contract": "contracts/TimeLock.sol:TimeLock",
								"label": "hasLockedFunds",
								"offset": 1,
								"slot": "3",
								"type": "t_bool"
							}
						],
						"numberOfBytes": "128"
					},
					"t_uint256": {
						"encoding": "inplace",
						"label": "uint256",
						"numberOfBytes": "32"
					}
				}
			},
			"userdoc": {
				"kind": "user",
				"methods": {},
				"version": 1
			}
		}
	}
}