{
	"contracts/TimeLock.sol": {
		"TimeLock": {
			"abi": [
				{
					"inputs": [],
					"stateMutability": "nonpayable",
					"type": "constructor"
				},
				{
					"inputs": [],
					"name": "LockFunds",
					"outputs": [],
					"stateMutability": "nonpayable",
					"type": "function"
				},
				{
					"inputs": [],
					"name": "balance",
					"outputs": [
						{
							"internalType": "uint256",
							"name": "",
							"type": "uint256"
						}
					],
					"stateMutability": "view",
					"type": "function"
				},
				{
					"inputs": [],
					"name": "getBalance",
					"outputs": [],
					"stateMutability": "nonpayable",
					"type": "function"
				},
				{
					"inputs": [],
					"name": "howManyDaysLeft",
					"outputs": [
						{
							"internalType": "uint256",
							"name": "",
							"type": "uint256"
						}
					],
					"stateMutability": "view",
					"type": "function"
				},
				{
					"inputs": [],
					"name": "lockTime",
					"outputs": [
						{
							"internalType": "uint256",
							"name": "",
							"type": "uint256"
						}
					],
					"stateMutability": "view",
					"type": "function"
				},
				{
					"inputs": [],
					"name": "owner",
					"outputs": [
						{
							"internalType": "address",
							"name": "",
							"type": "address"
						}
					],
					"stateMutability": "view",
					"type": "function"
				},
				{
					"inputs": [
						{
							"internalType": "uint256",
							"name": "_amount",
							"type": "uint256"
						}
					],
					"name": "pay",
					"outputs": [],
					"stateMutability": "payable",
					"type": "function"
				},
				{
					"inputs": [],
					"name": "startTime",
					"outputs": [
						{
							"internalType": "uint256",
							"name": "",
							"type": "uint256"
						}
					],
					"stateMutability": "view",
					"type": "function"
				},
				{
					"inputs": [],
					"name": "withDrawTax",
					"outputs": [],
					"stateMutability": "nonpayable",
					"type": "function"
				},
				{
					"inputs": [],
					"name": "withdraw",
					"outputs": [],
					"stateMutability": "nonpayable",
					"type": "function"
				},
				{
					"stateMutability": "payable",
					"type": "receive"
				}
			],
			"devdoc": {
				"kind": "dev",
				"methods": {},
				"version": 1
			},
			"evm": {
				"assembly": "    /* \"contracts/TimeLock.sol\":109:2487  contract TimeLock {... */\n  mstore(0x40, 0x80)\n    /* \"contracts/TimeLock.sol\":206:224  365 * 24 * 60 * 60 */\n  0x01e13380\n    /* \"contracts/TimeLock.sol\":181:225  uint public lockTime =  (365 * 24 * 60 * 60) */\n  0x02\n  sstore\n    /* \"contracts/TimeLock.sol\":333:381  constructor(){... */\n  callvalue\n  dup1\n  iszero\n  tag_1\n  jumpi\n  0x00\n  dup1\n  revert\ntag_1:\n  pop\n    /* \"contracts/TimeLock.sol\":364:374  msg.sender */\n  caller\n    /* \"contracts/TimeLock.sol\":356:361  owner */\n  0x00\n  dup1\n    /* \"contracts/TimeLock.sol\":356:374  owner = msg.sender */\n  0x0100\n  exp\n  dup2\n  sload\n  dup2\n  0xffffffffffffffffffffffffffffffffffffffff\n  mul\n  not\n  and\n  swap1\n  dup4\n  0xffffffffffffffffffffffffffffffffffffffff\n  and\n  mul\n  or\n  swap1\n  sstore\n  pop\n    /* \"contracts/TimeLock.sol\":109:2487  contract TimeLock {... */\n  dataSize(sub_0)\n  dup1\n  dataOffset(sub_0)\n  0x00\n  codecopy\n  0x00\n  return\nstop\n\nsub_0: assembly {\n        /* \"contracts/TimeLock.sol\":109:2487  contract TimeLock {... */\n      mstore(0x40, 0x80)\n      jumpi(tag_1, lt(calldatasize, 0x04))\n      shr(0xe0, calldataload(0x00))\n      dup1\n      0x8da5cb5b\n      gt\n      tag_13\n      jumpi\n      dup1\n      0x8da5cb5b\n      eq\n      tag_8\n      jumpi\n      dup1\n      0x9f2e606f\n      eq\n      tag_9\n      jumpi\n      dup1\n      0xb5356f7e\n      eq\n      tag_10\n      jumpi\n      dup1\n      0xb69ef8a8\n      eq\n      tag_11\n      jumpi\n      dup1\n      0xc290d691\n      eq\n      tag_12\n      jumpi\n      jump(tag_2)\n    tag_13:\n      dup1\n      0x0d668087\n      eq\n      tag_3\n      jumpi\n      dup1\n      0x12065fe0\n      eq\n      tag_4\n      jumpi\n      dup1\n      0x3ccfd60b\n      eq\n      tag_5\n      jumpi\n      dup1\n      0x6faf6445\n      eq\n      tag_6\n      jumpi\n      dup1\n      0x78e97925\n      eq\n      tag_7\n      jumpi\n      jump(tag_2)\n    tag_1:\n      jumpi(tag_2, calldatasize)\n      stop\n    tag_2:\n      0x00\n      dup1\n      revert\n        /* \"contracts/TimeLock.sol\":181:225  uint public lockTime =  (365 * 24 * 60 * 60) */\n    tag_3:\n      callvalue\n      dup1\n      iszero\n      tag_16\n      jumpi\n      0x00\n      dup1\n      revert\n    tag_16:\n      pop\n      tag_17\n      tag_18\n      jump\t// in\n    tag_17:\n      mload(0x40)\n      tag_19\n      swap2\n      swap1\n      tag_20\n      jump\t// in\n    tag_19:\n      mload(0x40)\n      dup1\n      swap2\n      sub\n      swap1\n      return\n        /* \"contracts/TimeLock.sol\":947:1024  function getBalance() public {... */\n    tag_4:\n      callvalue\n      dup1\n      iszero\n      tag_21\n      jumpi\n      0x00\n      dup1\n      revert\n    tag_21:\n      pop\n      tag_22\n      tag_23\n      jump\t// in\n    tag_22:\n      stop\n        /* \"contracts/TimeLock.sol\":1946:2248  function withdraw() userCheck(msg.sender) public {... */\n    tag_5:\n      callvalue\n      dup1\n      iszero\n      tag_24\n      jumpi\n      0x00\n      dup1\n      revert\n    tag_24:\n      pop\n      tag_25\n      tag_26\n      jump\t// in\n    tag_25:\n      stop\n        /* \"contracts/TimeLock.sol\":1791:1943  function LockFunds() userCheck(msg.sender) public {... */\n    tag_6:\n      callvalue\n      dup1\n      iszero\n      tag_27\n      jumpi\n      0x00\n      dup1\n      revert\n    tag_27:\n      pop\n      tag_28\n      tag_29\n      jump\t// in\n    tag_28:\n      stop\n        /* \"contracts/TimeLock.sol\":157:178  uint public startTime */\n    tag_7:\n      callvalue\n      dup1\n      iszero\n      tag_30\n      jumpi\n      0x00\n      dup1\n      revert\n    tag_30:\n      pop\n      tag_31\n      tag_32\n      jump\t// in\n    tag_31:\n      mload(0x40)\n      tag_33\n      swap2\n      swap1\n      tag_20\n      jump\t// in\n    tag_33:\n      mload(0x40)\n      dup1\n      swap2\n      sub\n      swap1\n      return\n        /* \"contracts/TimeLock.sol\":131:151  address public owner */\n    tag_8:\n      callvalue\n      dup1\n      iszero\n      tag_34\n      jumpi\n      0x00\n      dup1\n      revert\n    tag_34:\n      pop\n      tag_35\n      tag_36\n      jump\t// in\n    tag_35:\n      mload(0x40)\n      tag_37\n      swap2\n      swap1\n      tag_38\n      jump\t// in\n    tag_37:\n      mload(0x40)\n      dup1\n      swap2\n      sub\n      swap1\n      return\n        /* \"contracts/TimeLock.sol\":1030:1205  function howManyDaysLeft() public view returns(uint) {... */\n    tag_9:\n      callvalue\n      dup1\n      iszero\n      tag_39\n      jumpi\n      0x00\n      dup1\n      revert\n    tag_39:\n      pop\n      tag_40\n      tag_41\n      jump\t// in\n    tag_40:\n      mload(0x40)\n      tag_42\n      swap2\n      swap1\n      tag_20\n      jump\t// in\n    tag_42:\n      mload(0x40)\n      dup1\n      swap2\n      sub\n      swap1\n      return\n        /* \"contracts/TimeLock.sol\":2254:2484  function withDrawTax() isOwner(msg.sender) public {... */\n    tag_10:\n      callvalue\n      dup1\n      iszero\n      tag_43\n      jumpi\n      0x00\n      dup1\n      revert\n    tag_43:\n      pop\n      tag_44\n      tag_45\n      jump\t// in\n    tag_44:\n      stop\n        /* \"contracts/TimeLock.sol\":231:250  uint public balance */\n    tag_11:\n      callvalue\n      dup1\n      iszero\n      tag_46\n      jumpi\n      0x00\n      dup1\n      revert\n    tag_46:\n      pop\n      tag_47\n      tag_48\n      jump\t// in\n    tag_47:\n      mload(0x40)\n      tag_49\n      swap2\n      swap1\n      tag_20\n      jump\t// in\n    tag_49:\n      mload(0x40)\n      dup1\n      swap2\n      sub\n      swap1\n      return\n        /* \"contracts/TimeLock.sol\":1246:1636  function pay(uint _amount) payable public {... */\n    tag_12:\n      tag_50\n      0x04\n      dup1\n      calldatasize\n      sub\n      dup2\n      add\n      swap1\n      tag_51\n      swap2\n      swap1\n      tag_52\n      jump\t// in\n    tag_51:\n      tag_53\n      jump\t// in\n    tag_50:\n      stop\n        /* \"contracts/TimeLock.sol\":181:225  uint public lockTime =  (365 * 24 * 60 * 60) */\n    tag_18:\n      sload(0x02)\n      dup2\n      jump\t// out\n        /* \"contracts/TimeLock.sol\":947:1024  function getBalance() public {... */\n    tag_23:\n        /* \"contracts/TimeLock.sol\":996:1017  address(this).balance */\n      selfbalance\n        /* \"contracts/TimeLock.sol\":986:993  balance */\n      0x03\n        /* \"contracts/TimeLock.sol\":986:1017  balance = address(this).balance */\n      dup2\n      swap1\n      sstore\n      pop\n        /* \"contracts/TimeLock.sol\":947:1024  function getBalance() public {... */\n      jump\t// out\n        /* \"contracts/TimeLock.sol\":1946:2248  function withdraw() userCheck(msg.sender) public {... */\n    tag_26:\n        /* \"contracts/TimeLock.sol\":1976:1986  msg.sender */\n      caller\n        /* \"contracts/TimeLock.sol\":656:668  hasAnAccount */\n      0x04\n        /* \"contracts/TimeLock.sol\":656:680  hasAnAccount[msg.sender] */\n      0x00\n        /* \"contracts/TimeLock.sol\":669:679  msg.sender */\n      caller\n        /* \"contracts/TimeLock.sol\":656:680  hasAnAccount[msg.sender] */\n      0xffffffffffffffffffffffffffffffffffffffff\n      and\n      0xffffffffffffffffffffffffffffffffffffffff\n      and\n      dup2\n      mstore\n      0x20\n      add\n      swap1\n      dup2\n      mstore\n      0x20\n      add\n      0x00\n      keccak256\n      0x00\n      swap1\n      sload\n      swap1\n      0x0100\n      exp\n      swap1\n      div\n      0xff\n      and\n        /* \"contracts/TimeLock.sol\":648:747  require(hasAnAccount[msg.sender], \"You have not performed any transaction on this smart contract!\") */\n      tag_56\n      jumpi\n      mload(0x40)\n      0x08c379a000000000000000000000000000000000000000000000000000000000\n      dup2\n      mstore\n      0x04\n      add\n      tag_57\n      swap1\n      tag_58\n      jump\t// in\n    tag_57:\n      mload(0x40)\n      dup1\n      swap2\n      sub\n      swap1\n      revert\n    tag_56:\n        /* \"contracts/TimeLock.sol\":2005:2018  uint daysLeft */\n      0x00\n        /* \"contracts/TimeLock.sol\":2021:2038  howManyDaysLeft() */\n      tag_60\n        /* \"contracts/TimeLock.sol\":2021:2036  howManyDaysLeft */\n      tag_41\n        /* \"contracts/TimeLock.sol\":2021:2038  howManyDaysLeft() */\n      jump\t// in\n    tag_60:\n        /* \"contracts/TimeLock.sol\":2005:2038  uint daysLeft = howManyDaysLeft() */\n      swap1\n      pop\n        /* \"contracts/TimeLock.sol\":2068:2069  0 */\n      0x00\n        /* \"contracts/TimeLock.sol\":2056:2064  daysLeft */\n      dup2\n        /* \"contracts/TimeLock.sol\":2056:2069  daysLeft <= 0 */\n      gt\n      iszero\n        /* \"contracts/TimeLock.sol\":2048:2101  require(daysLeft <= 0, \"Your funds are still locked\") */\n      tag_61\n      jumpi\n      mload(0x40)\n      0x08c379a000000000000000000000000000000000000000000000000000000000\n      dup2\n      mstore\n      0x04\n      add\n      tag_62\n      swap1\n      tag_63\n      jump\t// in\n    tag_62:\n      mload(0x40)\n      dup1\n      swap2\n      sub\n      swap1\n      revert\n    tag_61:\n        /* \"contracts/TimeLock.sol\":2111:2128  uint amountLocked */\n      0x00\n        /* \"contracts/TimeLock.sol\":2131:2145  addressBalance */\n      0x05\n        /* \"contracts/TimeLock.sol\":2131:2157  addressBalance[msg.sender] */\n      0x00\n        /* \"contracts/TimeLock.sol\":2146:2156  msg.sender */\n      caller\n        /* \"contracts/TimeLock.sol\":2131:2157  addressBalance[msg.sender] */\n      0xffffffffffffffffffffffffffffffffffffffff\n      and\n      0xffffffffffffffffffffffffffffffffffffffff\n      and\n      dup2\n      mstore\n      0x20\n      add\n      swap1\n      dup2\n      mstore\n      0x20\n      add\n      0x00\n      keccak256\n      sload\n        /* \"contracts/TimeLock.sol\":2111:2157  uint amountLocked = addressBalance[msg.sender] */\n      swap1\n      pop\n        /* \"contracts/TimeLock.sol\":2191:2192  0 */\n      0x00\n        /* \"contracts/TimeLock.sol\":2167:2181  addressBalance */\n      0x05\n        /* \"contracts/TimeLock.sol\":2167:2188  addressBalance[owner] */\n      0x00\n        /* \"contracts/TimeLock.sol\":2182:2187  owner */\n      dup1\n      0x00\n      swap1\n      sload\n      swap1\n      0x0100\n      exp\n      swap1\n      div\n      0xffffffffffffffffffffffffffffffffffffffff\n      and\n        /* \"contracts/TimeLock.sol\":2167:2188  addressBalance[owner] */\n      0xffffffffffffffffffffffffffffffffffffffff\n      and\n      0xffffffffffffffffffffffffffffffffffffffff\n      and\n      dup2\n      mstore\n      0x20\n      add\n      swap1\n      dup2\n      mstore\n      0x20\n      add\n      0x00\n      keccak256\n        /* \"contracts/TimeLock.sol\":2167:2192  addressBalance[owner] = 0 */\n      dup2\n      swap1\n      sstore\n      pop\n        /* \"contracts/TimeLock.sol\":2210:2220  msg.sender */\n      caller\n        /* \"contracts/TimeLock.sol\":2202:2230  payable(msg.sender).transfer */\n      0xffffffffffffffffffffffffffffffffffffffff\n      and\n        /* \"contracts/TimeLock.sol\":2202:2244  payable(msg.sender).transfer(amountLocked) */\n      0x08fc\n        /* \"contracts/TimeLock.sol\":2231:2243  amountLocked */\n      dup3\n        /* \"contracts/TimeLock.sol\":2202:2244  payable(msg.sender).transfer(amountLocked) */\n      swap1\n      dup2\n      iszero\n      mul\n      swap1\n      mload(0x40)\n      0x00\n      mload(0x40)\n      dup1\n      dup4\n      sub\n      dup2\n      dup6\n      dup9\n      dup9\n      call\n      swap4\n      pop\n      pop\n      pop\n      pop\n      iszero\n      dup1\n      iszero\n      tag_65\n      jumpi\n      returndatasize\n      0x00\n      dup1\n      returndatacopy\n      revert(0x00, returndatasize)\n    tag_65:\n      pop\n        /* \"contracts/TimeLock.sol\":1995:2248  {... */\n      pop\n      pop\n        /* \"contracts/TimeLock.sol\":1946:2248  function withdraw() userCheck(msg.sender) public {... */\n      pop\n      jump\t// out\n        /* \"contracts/TimeLock.sol\":1791:1943  function LockFunds() userCheck(msg.sender) public {... */\n    tag_29:\n        /* \"contracts/TimeLock.sol\":1822:1832  msg.sender */\n      caller\n        /* \"contracts/TimeLock.sol\":656:668  hasAnAccount */\n      0x04\n        /* \"contracts/TimeLock.sol\":656:680  hasAnAccount[msg.sender] */\n      0x00\n        /* \"contracts/TimeLock.sol\":669:679  msg.sender */\n      caller\n        /* \"contracts/TimeLock.sol\":656:680  hasAnAccount[msg.sender] */\n      0xffffffffffffffffffffffffffffffffffffffff\n      and\n      0xffffffffffffffffffffffffffffffffffffffff\n      and\n      dup2\n      mstore\n      0x20\n      add\n      swap1\n      dup2\n      mstore\n      0x20\n      add\n      0x00\n      keccak256\n      0x00\n      swap1\n      sload\n      swap1\n      0x0100\n      exp\n      swap1\n      div\n      0xff\n      and\n        /* \"contracts/TimeLock.sol\":648:747  require(hasAnAccount[msg.sender], \"You have not performed any transaction on this smart contract!\") */\n      tag_67\n      jumpi\n      mload(0x40)\n      0x08c379a000000000000000000000000000000000000000000000000000000000\n      dup2\n      mstore\n      0x04\n      add\n      tag_68\n      swap1\n      tag_58\n      jump\t// in\n    tag_68:\n      mload(0x40)\n      dup1\n      swap2\n      sub\n      swap1\n      revert\n    tag_67:\n        /* \"contracts/TimeLock.sol\":1851:1877  taxLockedFunds(msg.sender) */\n      tag_70\n        /* \"contracts/TimeLock.sol\":1866:1876  msg.sender */\n      caller\n        /* \"contracts/TimeLock.sol\":1851:1865  taxLockedFunds */\n      tag_71\n        /* \"contracts/TimeLock.sol\":1851:1877  taxLockedFunds(msg.sender) */\n      jump\t// in\n    tag_70:\n        /* \"contracts/TimeLock.sol\":1893:1908  block.timestamp */\n      timestamp\n        /* \"contracts/TimeLock.sol\":1881:1890  startTime */\n      0x01\n        /* \"contracts/TimeLock.sol\":1881:1908  startTime = block.timestamp */\n      dup2\n      swap1\n      sstore\n      pop\n        /* \"contracts/TimeLock.sol\":1930:1939  startTime */\n      sload(0x01)\n        /* \"contracts/TimeLock.sol\":1918:1926  lockTime */\n      0x02\n      0x00\n        /* \"contracts/TimeLock.sol\":1918:1939  lockTime += startTime */\n      dup3\n      dup3\n      sload\n      tag_72\n      swap2\n      swap1\n      tag_73\n      jump\t// in\n    tag_72:\n      swap3\n      pop\n      pop\n      dup2\n      swap1\n      sstore\n      pop\n        /* \"contracts/TimeLock.sol\":1791:1943  function LockFunds() userCheck(msg.sender) public {... */\n      pop\n      jump\t// out\n        /* \"contracts/TimeLock.sol\":157:178  uint public startTime */\n    tag_32:\n      sload(0x01)\n      dup2\n      jump\t// out\n        /* \"contracts/TimeLock.sol\":131:151  address public owner */\n    tag_36:\n      0x00\n      dup1\n      sload\n      swap1\n      0x0100\n      exp\n      swap1\n      div\n      0xffffffffffffffffffffffffffffffffffffffff\n      and\n      dup2\n      jump\t// out\n        /* \"contracts/TimeLock.sol\":1030:1205  function howManyDaysLeft() public view returns(uint) {... */\n    tag_41:\n        /* \"contracts/TimeLock.sol\":1077:1081  uint */\n      0x00\n        /* \"contracts/TimeLock.sol\":1093:1120  uint howmanydayshaveElapsed */\n      dup1\n        /* \"contracts/TimeLock.sol\":1149:1158  3600 * 24 */\n      0x015180\n        /* \"contracts/TimeLock.sol\":1135:1144  startTime */\n      sload(0x01)\n        /* \"contracts/TimeLock.sol\":1124:1132  lockTime */\n      sload(0x02)\n        /* \"contracts/TimeLock.sol\":1124:1144  lockTime - startTime */\n      tag_75\n      swap2\n      swap1\n      tag_76\n      jump\t// in\n    tag_75:\n        /* \"contracts/TimeLock.sol\":1123:1159  (lockTime - startTime) / (3600 * 24) */\n      tag_77\n      swap2\n      swap1\n      tag_78\n      jump\t// in\n    tag_77:\n        /* \"contracts/TimeLock.sol\":1093:1159  uint howmanydayshaveElapsed = (lockTime - startTime) / (3600 * 24) */\n      swap1\n      pop\n        /* \"contracts/TimeLock.sol\":1176:1198  howmanydayshaveElapsed */\n      dup1\n        /* \"contracts/TimeLock.sol\":1169:1198  return howmanydayshaveElapsed */\n      swap2\n      pop\n      pop\n        /* \"contracts/TimeLock.sol\":1030:1205  function howManyDaysLeft() public view returns(uint) {... */\n      swap1\n      jump\t// out\n        /* \"contracts/TimeLock.sol\":2254:2484  function withDrawTax() isOwner(msg.sender) public {... */\n    tag_45:\n        /* \"contracts/TimeLock.sol\":2285:2295  msg.sender */\n      caller\n        /* \"contracts/TimeLock.sol\":534:542  _account */\n      dup1\n        /* \"contracts/TimeLock.sol\":525:542  owner == _account */\n      0xffffffffffffffffffffffffffffffffffffffff\n      and\n        /* \"contracts/TimeLock.sol\":525:530  owner */\n      0x00\n      dup1\n      sload\n      swap1\n      0x0100\n      exp\n      swap1\n      div\n      0xffffffffffffffffffffffffffffffffffffffff\n      and\n        /* \"contracts/TimeLock.sol\":525:542  owner == _account */\n      0xffffffffffffffffffffffffffffffffffffffff\n      and\n      eq\n        /* \"contracts/TimeLock.sol\":517:587  require(owner == _account, \"This feature is restricted to the owner!\") */\n      tag_80\n      jumpi\n      mload(0x40)\n      0x08c379a000000000000000000000000000000000000000000000000000000000\n      dup2\n      mstore\n      0x04\n      add\n      tag_81\n      swap1\n      tag_82\n      jump\t// in\n    tag_81:\n      mload(0x40)\n      dup1\n      swap2\n      sub\n      swap1\n      revert\n    tag_80:\n        /* \"contracts/TimeLock.sol\":2347:2348  0 */\n      0x00\n        /* \"contracts/TimeLock.sol\":2322:2336  addressBalance */\n      0x05\n        /* \"contracts/TimeLock.sol\":2322:2343  addressBalance[owner] */\n      0x00\n        /* \"contracts/TimeLock.sol\":2337:2342  owner */\n      dup1\n      0x00\n      swap1\n      sload\n      swap1\n      0x0100\n      exp\n      swap1\n      div\n      0xffffffffffffffffffffffffffffffffffffffff\n      and\n        /* \"contracts/TimeLock.sol\":2322:2343  addressBalance[owner] */\n      0xffffffffffffffffffffffffffffffffffffffff\n      and\n      0xffffffffffffffffffffffffffffffffffffffff\n      and\n      dup2\n      mstore\n      0x20\n      add\n      swap1\n      dup2\n      mstore\n      0x20\n      add\n      0x00\n      keccak256\n      sload\n        /* \"contracts/TimeLock.sol\":2322:2348  addressBalance[owner] >= 0 */\n      lt\n      iszero\n        /* \"contracts/TimeLock.sol\":2314:2380  require(addressBalance[owner] >= 0, \"Your funds are still locked\") */\n      tag_84\n      jumpi\n      mload(0x40)\n      0x08c379a000000000000000000000000000000000000000000000000000000000\n      dup2\n      mstore\n      0x04\n      add\n      tag_85\n      swap1\n      tag_63\n      jump\t// in\n    tag_85:\n      mload(0x40)\n      dup1\n      swap2\n      sub\n      swap1\n      revert\n    tag_84:\n        /* \"contracts/TimeLock.sol\":2414:2415  0 */\n      0x00\n        /* \"contracts/TimeLock.sol\":2390:2404  addressBalance */\n      0x05\n        /* \"contracts/TimeLock.sol\":2390:2411  addressBalance[owner] */\n      0x00\n        /* \"contracts/TimeLock.sol\":2405:2410  owner */\n      dup1\n      0x00\n      swap1\n      sload\n      swap1\n      0x0100\n      exp\n      swap1\n      div\n      0xffffffffffffffffffffffffffffffffffffffff\n      and\n        /* \"contracts/TimeLock.sol\":2390:2411  addressBalance[owner] */\n      0xffffffffffffffffffffffffffffffffffffffff\n      and\n      0xffffffffffffffffffffffffffffffffffffffff\n      and\n      dup2\n      mstore\n      0x20\n      add\n      swap1\n      dup2\n      mstore\n      0x20\n      add\n      0x00\n      keccak256\n        /* \"contracts/TimeLock.sol\":2390:2415  addressBalance[owner] = 0 */\n      dup2\n      swap1\n      sstore\n      pop\n        /* \"contracts/TimeLock.sol\":2434:2444  msg.sender */\n      caller\n        /* \"contracts/TimeLock.sol\":2426:2454  payable(msg.sender).transfer */\n      0xffffffffffffffffffffffffffffffffffffffff\n      and\n        /* \"contracts/TimeLock.sol\":2426:2477  payable(msg.sender).transfer(address(this).balance) */\n      0x08fc\n        /* \"contracts/TimeLock.sol\":2455:2476  address(this).balance */\n      selfbalance\n        /* \"contracts/TimeLock.sol\":2426:2477  payable(msg.sender).transfer(address(this).balance) */\n      swap1\n      dup2\n      iszero\n      mul\n      swap1\n      mload(0x40)\n      0x00\n      mload(0x40)\n      dup1\n      dup4\n      sub\n      dup2\n      dup6\n      dup9\n      dup9\n      call\n      swap4\n      pop\n      pop\n      pop\n      pop\n      iszero\n      dup1\n      iszero\n      tag_87\n      jumpi\n      returndatasize\n      0x00\n      dup1\n      returndatacopy\n      revert(0x00, returndatasize)\n    tag_87:\n      pop\n        /* \"contracts/TimeLock.sol\":2254:2484  function withDrawTax() isOwner(msg.sender) public {... */\n      pop\n      jump\t// out\n        /* \"contracts/TimeLock.sol\":231:250  uint public balance */\n    tag_48:\n      sload(0x03)\n      dup2\n      jump\t// out\n        /* \"contracts/TimeLock.sol\":1246:1636  function pay(uint _amount) payable public {... */\n    tag_53:\n        /* \"contracts/TimeLock.sol\":1319:1326  _amount */\n      dup1\n        /* \"contracts/TimeLock.sol\":1306:1315  msg.value */\n      callvalue\n        /* \"contracts/TimeLock.sol\":1306:1326  msg.value == _amount */\n      eq\n        /* \"contracts/TimeLock.sol\":1298:1386  require(msg.value == _amount, \"The amount indicated must be same as the transfer value\") */\n      tag_89\n      jumpi\n      mload(0x40)\n      0x08c379a000000000000000000000000000000000000000000000000000000000\n      dup2\n      mstore\n      0x04\n      add\n      tag_90\n      swap1\n      tag_91\n      jump\t// in\n    tag_90:\n      mload(0x40)\n      dup1\n      swap2\n      sub\n      swap1\n      revert\n    tag_89:\n        /* \"contracts/TimeLock.sol\":291:304  0.00055 ether */\n      0x01f438daa06000\n        /* \"contracts/TimeLock.sol\":1404:1411  _amount */\n      dup2\n        /* \"contracts/TimeLock.sol\":1404:1422  _amount > fixedTax */\n      gt\n        /* \"contracts/TimeLock.sol\":1477:1503  Strings.toString(fixedTax) */\n      tag_92\n        /* \"contracts/TimeLock.sol\":291:304  0.00055 ether */\n      0x01f438daa06000\n        /* \"contracts/TimeLock.sol\":1477:1493  Strings.toString */\n      tag_93\n        /* \"contracts/TimeLock.sol\":1477:1503  Strings.toString(fixedTax) */\n      jump\t// in\n    tag_92:\n        /* \"contracts/TimeLock.sol\":1424:1540  string.concat(\"The amount you can lock must exeed \", Strings.toString(fixedTax), \"The bill for using this service.\") */\n      add(0x20, mload(0x40))\n      tag_94\n      swap2\n      swap1\n      tag_95\n      jump\t// in\n    tag_94:\n      mload(0x40)\n      0x20\n      dup2\n      dup4\n      sub\n      sub\n      dup2\n      mstore\n      swap1\n      0x40\n      mstore\n        /* \"contracts/TimeLock.sol\":1396:1541  require(_amount > fixedTax, string.concat(\"The amount you can lock must exeed \", Strings.toString(fixedTax), \"The bill for using this service.\")) */\n      swap1\n      tag_96\n      jumpi\n      mload(0x40)\n      0x08c379a000000000000000000000000000000000000000000000000000000000\n      dup2\n      mstore\n      0x04\n      add\n      tag_97\n      swap2\n      swap1\n      tag_98\n      jump\t// in\n    tag_97:\n      mload(0x40)\n      dup1\n      swap2\n      sub\n      swap1\n      revert\n    tag_96:\n      pop\n        /* \"contracts/TimeLock.sol\":1579:1583  true */\n      0x01\n        /* \"contracts/TimeLock.sol\":1552:1564  hasAnAccount */\n      0x04\n        /* \"contracts/TimeLock.sol\":1552:1576  hasAnAccount[msg.sender] */\n      0x00\n        /* \"contracts/TimeLock.sol\":1565:1575  msg.sender */\n      caller\n        /* \"contracts/TimeLock.sol\":1552:1576  hasAnAccount[msg.sender] */\n      0xffffffffffffffffffffffffffffffffffffffff\n      and\n      0xffffffffffffffffffffffffffffffffffffffff\n      and\n      dup2\n      mstore\n      0x20\n      add\n      swap1\n      dup2\n      mstore\n      0x20\n      add\n      0x00\n      keccak256\n      0x00\n        /* \"contracts/TimeLock.sol\":1552:1583  hasAnAccount[msg.sender] = true */\n      0x0100\n      exp\n      dup2\n      sload\n      dup2\n      0xff\n      mul\n      not\n      and\n      swap1\n      dup4\n      iszero\n      iszero\n      mul\n      or\n      swap1\n      sstore\n      pop\n        /* \"contracts/TimeLock.sol\":1622:1629  _amount */\n      dup1\n        /* \"contracts/TimeLock.sol\":1593:1607  addressBalance */\n      0x05\n        /* \"contracts/TimeLock.sol\":1593:1619  addressBalance[msg.sender] */\n      0x00\n        /* \"contracts/TimeLock.sol\":1608:1618  msg.sender */\n      caller\n        /* \"contracts/TimeLock.sol\":1593:1619  addressBalance[msg.sender] */\n      0xffffffffffffffffffffffffffffffffffffffff\n      and\n      0xffffffffffffffffffffffffffffffffffffffff\n      and\n      dup2\n      mstore\n      0x20\n      add\n      swap1\n      dup2\n      mstore\n      0x20\n      add\n      0x00\n      keccak256\n        /* \"contracts/TimeLock.sol\":1593:1629  addressBalance[msg.sender] = _amount */\n      dup2\n      swap1\n      sstore\n      pop\n        /* \"contracts/TimeLock.sol\":1246:1636  function pay(uint _amount) payable public {... */\n      pop\n      jump\t// out\n        /* \"contracts/TimeLock.sol\":1642:1788  function taxLockedFunds(address _address) private {... */\n    tag_71:\n        /* \"contracts/TimeLock.sol\":291:304  0.00055 ether */\n      0x01f438daa06000\n        /* \"contracts/TimeLock.sol\":1702:1716  addressBalance */\n      0x05\n        /* \"contracts/TimeLock.sol\":1702:1726  addressBalance[_address] */\n      0x00\n        /* \"contracts/TimeLock.sol\":1717:1725  _address */\n      dup4\n        /* \"contracts/TimeLock.sol\":1702:1726  addressBalance[_address] */\n      0xffffffffffffffffffffffffffffffffffffffff\n      and\n      0xffffffffffffffffffffffffffffffffffffffff\n      and\n      dup2\n      mstore\n      0x20\n      add\n      swap1\n      dup2\n      mstore\n      0x20\n      add\n      0x00\n      keccak256\n      0x00\n        /* \"contracts/TimeLock.sol\":1702:1738  addressBalance[_address] -= fixedTax */\n      dup3\n      dup3\n      sload\n      tag_100\n      swap2\n      swap1\n      tag_76\n      jump\t// in\n    tag_100:\n      swap3\n      pop\n      pop\n      dup2\n      swap1\n      sstore\n      pop\n        /* \"contracts/TimeLock.sol\":291:304  0.00055 ether */\n      0x01f438daa06000\n        /* \"contracts/TimeLock.sol\":1748:1762  addressBalance */\n      0x05\n        /* \"contracts/TimeLock.sol\":1748:1769  addressBalance[owner] */\n      0x00\n        /* \"contracts/TimeLock.sol\":1763:1768  owner */\n      dup1\n      0x00\n      swap1\n      sload\n      swap1\n      0x0100\n      exp\n      swap1\n      div\n      0xffffffffffffffffffffffffffffffffffffffff\n      and\n        /* \"contracts/TimeLock.sol\":1748:1769  addressBalance[owner] */\n      0xffffffffffffffffffffffffffffffffffffffff\n      and\n      0xffffffffffffffffffffffffffffffffffffffff\n      and\n      dup2\n      mstore\n      0x20\n      add\n      swap1\n      dup2\n      mstore\n      0x20\n      add\n      0x00\n      keccak256\n      0x00\n        /* \"contracts/TimeLock.sol\":1748:1781  addressBalance[owner] += fixedTax */\n      dup3\n      dup3\n      sload\n      tag_101\n      swap2\n      swap1\n      tag_73\n      jump\t// in\n    tag_101:\n      swap3\n      pop\n      pop\n      dup2\n      swap1\n      sstore\n      pop\n        /* \"contracts/TimeLock.sol\":1642:1788  function taxLockedFunds(address _address) private {... */\n      pop\n      jump\t// out\n        /* \"@openzeppelin/contracts/utils/Strings.sol\":447:1143  function toString(uint256 value) internal pure returns (string memory) {... */\n    tag_93:\n        /* \"@openzeppelin/contracts/utils/Strings.sol\":503:516  string memory */\n      0x60\n        /* \"@openzeppelin/contracts/utils/Strings.sol\":552:566  uint256 length */\n      0x00\n        /* \"@openzeppelin/contracts/utils/Strings.sol\":589:590  1 */\n      0x01\n        /* \"@openzeppelin/contracts/utils/Strings.sol\":569:586  Math.log10(value) */\n      tag_103\n        /* \"@openzeppelin/contracts/utils/Strings.sol\":580:585  value */\n      dup5\n        /* \"@openzeppelin/contracts/utils/Strings.sol\":569:579  Math.log10 */\n      tag_104\n        /* \"@openzeppelin/contracts/utils/Strings.sol\":569:586  Math.log10(value) */\n      jump\t// in\n    tag_103:\n        /* \"@openzeppelin/contracts/utils/Strings.sol\":569:590  Math.log10(value) + 1 */\n      add\n        /* \"@openzeppelin/contracts/utils/Strings.sol\":552:590  uint256 length = Math.log10(value) + 1 */\n      swap1\n      pop\n        /* \"@openzeppelin/contracts/utils/Strings.sol\":604:624  string memory buffer */\n      0x00\n        /* \"@openzeppelin/contracts/utils/Strings.sol\":638:644  length */\n      dup2\n        /* \"@openzeppelin/contracts/utils/Strings.sol\":627:645  new string(length) */\n      0xffffffffffffffff\n      dup2\n      gt\n      iszero\n      tag_105\n      jumpi\n      tag_106\n      tag_107\n      jump\t// in\n    tag_106:\n    tag_105:\n      mload(0x40)\n      swap1\n      dup1\n      dup3\n      mstore\n      dup1\n      0x1f\n      add\n      not(0x1f)\n      and\n      0x20\n      add\n      dup3\n      add\n      0x40\n      mstore\n      dup1\n      iszero\n      tag_108\n      jumpi\n      dup2\n      0x20\n      add\n      0x01\n      dup3\n      mul\n      dup1\n      calldatasize\n      dup4\n      calldatacopy\n      dup1\n      dup3\n      add\n      swap2\n      pop\n      pop\n      swap1\n      pop\n    tag_108:\n      pop\n        /* \"@openzeppelin/contracts/utils/Strings.sol\":604:645  string memory buffer = new string(length) */\n      swap1\n      pop\n        /* \"@openzeppelin/contracts/utils/Strings.sol\":659:670  uint256 ptr */\n      0x00\n        /* \"@openzeppelin/contracts/utils/Strings.sol\":785:791  length */\n      dup3\n        /* \"@openzeppelin/contracts/utils/Strings.sol\":781:783  32 */\n      0x20\n        /* \"@openzeppelin/contracts/utils/Strings.sol\":777:792  add(32, length) */\n      add\n        /* \"@openzeppelin/contracts/utils/Strings.sol\":769:775  buffer */\n      dup3\n        /* \"@openzeppelin/contracts/utils/Strings.sol\":765:793  add(buffer, add(32, length)) */\n      add\n        /* \"@openzeppelin/contracts/utils/Strings.sol\":758:793  ptr := add(buffer, add(32, length)) */\n      swap1\n      pop\n        /* \"@openzeppelin/contracts/utils/Strings.sol\":820:1100  while (true) {... */\n    tag_109:\n        /* \"@openzeppelin/contracts/utils/Strings.sol\":827:831  true */\n      0x01\n        /* \"@openzeppelin/contracts/utils/Strings.sol\":820:1100  while (true) {... */\n      iszero\n      tag_110\n      jumpi\n        /* \"@openzeppelin/contracts/utils/Strings.sol\":851:856  ptr-- */\n      dup1\n      dup1\n      0x01\n      swap1\n      sub\n      swap2\n      pop\n      pop\n        /* \"@openzeppelin/contracts/utils/Strings.sol\":990:998  _SYMBOLS */\n      0x3031323334353637383961626364656600000000000000000000000000000000\n        /* \"@openzeppelin/contracts/utils/Strings.sol\":985:987  10 */\n      0x0a\n        /* \"@openzeppelin/contracts/utils/Strings.sol\":978:983  value */\n      dup7\n        /* \"@openzeppelin/contracts/utils/Strings.sol\":974:988  mod(value, 10) */\n      mod\n        /* \"@openzeppelin/contracts/utils/Strings.sol\":969:999  byte(mod(value, 10), _SYMBOLS) */\n      byte\n        /* \"@openzeppelin/contracts/utils/Strings.sol\":964:967  ptr */\n      dup2\n        /* \"@openzeppelin/contracts/utils/Strings.sol\":956:1000  mstore8(ptr, byte(mod(value, 10), _SYMBOLS)) */\n      mstore8\n        /* \"@openzeppelin/contracts/utils/Strings.sol\":1044:1046  10 */\n      0x0a\n        /* \"@openzeppelin/contracts/utils/Strings.sol\":1035:1046  value /= 10 */\n      dup6\n      dup2\n      tag_111\n      jumpi\n      tag_112\n      tag_113\n      jump\t// in\n    tag_112:\n    tag_111:\n      div\n      swap5\n      pop\n        /* \"@openzeppelin/contracts/utils/Strings.sol\":1077:1078  0 */\n      0x00\n        /* \"@openzeppelin/contracts/utils/Strings.sol\":1068:1073  value */\n      dup6\n        /* \"@openzeppelin/contracts/utils/Strings.sol\":1068:1078  value == 0 */\n      sub\n        /* \"@openzeppelin/contracts/utils/Strings.sol\":820:1100  while (true) {... */\n      tag_109\n        /* \"@openzeppelin/contracts/utils/Strings.sol\":1064:1085  if (value == 0) break */\n      jumpi\n        /* \"@openzeppelin/contracts/utils/Strings.sol\":820:1100  while (true) {... */\n    tag_110:\n        /* \"@openzeppelin/contracts/utils/Strings.sol\":1120:1126  buffer */\n      dup2\n        /* \"@openzeppelin/contracts/utils/Strings.sol\":1113:1126  return buffer */\n      swap4\n      pop\n      pop\n      pop\n      pop\n        /* \"@openzeppelin/contracts/utils/Strings.sol\":447:1143  function toString(uint256 value) internal pure returns (string memory) {... */\n      swap2\n      swap1\n      pop\n      jump\t// out\n        /* \"@openzeppelin/contracts/utils/math/Math.sol\":10139:11055  function log10(uint256 value) internal pure returns (uint256) {... */\n    tag_104:\n        /* \"@openzeppelin/contracts/utils/math/Math.sol\":10192:10199  uint256 */\n      0x00\n        /* \"@openzeppelin/contracts/utils/math/Math.sol\":10211:10225  uint256 result */\n      dup1\n        /* \"@openzeppelin/contracts/utils/math/Math.sol\":10228:10229  0 */\n      0x00\n        /* \"@openzeppelin/contracts/utils/math/Math.sol\":10211:10229  uint256 result = 0 */\n      swap1\n      pop\n        /* \"@openzeppelin/contracts/utils/math/Math.sol\":10276:10284  10 ** 64 */\n      0x184f03e93ff9f4daa797ed6e38ed64bf6a1f010000000000000000\n        /* \"@openzeppelin/contracts/utils/math/Math.sol\":10267:10272  value */\n      dup4\n        /* \"@openzeppelin/contracts/utils/math/Math.sol\":10267:10284  value >= 10 ** 64 */\n      lt\n        /* \"@openzeppelin/contracts/utils/math/Math.sol\":10263:10366  if (value >= 10 ** 64) {... */\n      tag_116\n      jumpi\n        /* \"@openzeppelin/contracts/utils/math/Math.sol\":10313:10321  10 ** 64 */\n      0x184f03e93ff9f4daa797ed6e38ed64bf6a1f010000000000000000\n        /* \"@openzeppelin/contracts/utils/math/Math.sol\":10304:10321  value /= 10 ** 64 */\n      dup4\n      dup2\n      tag_117\n      jumpi\n      tag_118\n      tag_113\n      jump\t// in\n    tag_118:\n    tag_117:\n      div\n      swap3\n      pop\n        /* \"@openzeppelin/contracts/utils/math/Math.sol\":10349:10351  64 */\n      0x40\n        /* \"@openzeppelin/contracts/utils/math/Math.sol\":10339:10351  result += 64 */\n      dup2\n      add\n      swap1\n      pop\n        /* \"@openzeppelin/contracts/utils/math/Math.sol\":10263:10366  if (value >= 10 ** 64) {... */\n    tag_116:\n        /* \"@openzeppelin/contracts/utils/math/Math.sol\":10392:10400  10 ** 32 */\n      0x04ee2d6d415b85acef8100000000\n        /* \"@openzeppelin/contracts/utils/math/Math.sol\":10383:10388  value */\n      dup4\n        /* \"@openzeppelin/contracts/utils/math/Math.sol\":10383:10400  value >= 10 ** 32 */\n      lt\n        /* \"@openzeppelin/contracts/utils/math/Math.sol\":10379:10482  if (value >= 10 ** 32) {... */\n      tag_119\n      jumpi\n        /* \"@openzeppelin/contracts/utils/math/Math.sol\":10429:10437  10 ** 32 */\n      0x04ee2d6d415b85acef8100000000\n        /* \"@openzeppelin/contracts/utils/math/Math.sol\":10420:10437  value /= 10 ** 32 */\n      dup4\n      dup2\n      tag_120\n      jumpi\n      tag_121\n      tag_113\n      jump\t// in\n    tag_121:\n    tag_120:\n      div\n      swap3\n      pop\n        /* \"@openzeppelin/contracts/utils/math/Math.sol\":10465:10467  32 */\n      0x20\n        /* \"@openzeppelin/contracts/utils/math/Math.sol\":10455:10467  result += 32 */\n      dup2\n      add\n      swap1\n      pop\n        /* \"@openzeppelin/contracts/utils/math/Math.sol\":10379:10482  if (value >= 10 ** 32) {... */\n    tag_119:\n        /* \"@openzeppelin/contracts/utils/math/Math.sol\":10508:10516  10 ** 16 */\n      0x2386f26fc10000\n        /* \"@openzeppelin/contracts/utils/math/Math.sol\":10499:10504  value */\n      dup4\n        /* \"@openzeppelin/contracts/utils/math/Math.sol\":10499:10516  value >= 10 ** 16 */\n      lt\n        /* \"@openzeppelin/contracts/utils/math/Math.sol\":10495:10598  if (value >= 10 ** 16) {... */\n      tag_122\n      jumpi\n        /* \"@openzeppelin/contracts/utils/math/Math.sol\":10545:10553  10 ** 16 */\n      0x2386f26fc10000\n        /* \"@openzeppelin/contracts/utils/math/Math.sol\":10536:10553  value /= 10 ** 16 */\n      dup4\n      dup2\n      tag_123\n      jumpi\n      tag_124\n      tag_113\n      jump\t// in\n    tag_124:\n    tag_123:\n      div\n      swap3\n      pop\n        /* \"@openzeppelin/contracts/utils/math/Math.sol\":10581:10583  16 */\n      0x10\n        /* \"@openzeppelin/contracts/utils/math/Math.sol\":10571:10583  result += 16 */\n      dup2\n      add\n      swap1\n      pop\n        /* \"@openzeppelin/contracts/utils/math/Math.sol\":10495:10598  if (value >= 10 ** 16) {... */\n    tag_122:\n        /* \"@openzeppelin/contracts/utils/math/Math.sol\":10624:10631  10 ** 8 */\n      0x05f5e100\n        /* \"@openzeppelin/contracts/utils/math/Math.sol\":10615:10620  value */\n      dup4\n        /* \"@openzeppelin/contracts/utils/math/Math.sol\":10615:10631  value >= 10 ** 8 */\n      lt\n        /* \"@openzeppelin/contracts/utils/math/Math.sol\":10611:10711  if (value >= 10 ** 8) {... */\n      tag_125\n      jumpi\n        /* \"@openzeppelin/contracts/utils/math/Math.sol\":10660:10667  10 ** 8 */\n      0x05f5e100\n        /* \"@openzeppelin/contracts/utils/math/Math.sol\":10651:10667  value /= 10 ** 8 */\n      dup4\n      dup2\n      tag_126\n      jumpi\n      tag_127\n      tag_113\n      jump\t// in\n    tag_127:\n    tag_126:\n      div\n      swap3\n      pop\n        /* \"@openzeppelin/contracts/utils/math/Math.sol\":10695:10696  8 */\n      0x08\n        /* \"@openzeppelin/contracts/utils/math/Math.sol\":10685:10696  result += 8 */\n      dup2\n      add\n      swap1\n      pop\n        /* \"@openzeppelin/contracts/utils/math/Math.sol\":10611:10711  if (value >= 10 ** 8) {... */\n    tag_125:\n        /* \"@openzeppelin/contracts/utils/math/Math.sol\":10737:10744  10 ** 4 */\n      0x2710\n        /* \"@openzeppelin/contracts/utils/math/Math.sol\":10728:10733  value */\n      dup4\n        /* \"@openzeppelin/contracts/utils/math/Math.sol\":10728:10744  value >= 10 ** 4 */\n      lt\n        /* \"@openzeppelin/contracts/utils/math/Math.sol\":10724:10824  if (value >= 10 ** 4) {... */\n      tag_128\n      jumpi\n        /* \"@openzeppelin/contracts/utils/math/Math.sol\":10773:10780  10 ** 4 */\n      0x2710\n        /* \"@openzeppelin/contracts/utils/math/Math.sol\":10764:10780  value /= 10 ** 4 */\n      dup4\n      dup2\n      tag_129\n      jumpi\n      tag_130\n      tag_113\n      jump\t// in\n    tag_130:\n    tag_129:\n      div\n      swap3\n      pop\n        /* \"@openzeppelin/contracts/utils/math/Math.sol\":10808:10809  4 */\n      0x04\n        /* \"@openzeppelin/contracts/utils/math/Math.sol\":10798:10809  result += 4 */\n      dup2\n      add\n      swap1\n      pop\n        /* \"@openzeppelin/contracts/utils/math/Math.sol\":10724:10824  if (value >= 10 ** 4) {... */\n    tag_128:\n        /* \"@openzeppelin/contracts/utils/math/Math.sol\":10850:10857  10 ** 2 */\n      0x64\n        /* \"@openzeppelin/contracts/utils/math/Math.sol\":10841:10846  value */\n      dup4\n        /* \"@openzeppelin/contracts/utils/math/Math.sol\":10841:10857  value >= 10 ** 2 */\n      lt\n        /* \"@openzeppelin/contracts/utils/math/Math.sol\":10837:10937  if (value >= 10 ** 2) {... */\n      tag_131\n      jumpi\n        /* \"@openzeppelin/contracts/utils/math/Math.sol\":10886:10893  10 ** 2 */\n      0x64\n        /* \"@openzeppelin/contracts/utils/math/Math.sol\":10877:10893  value /= 10 ** 2 */\n      dup4\n      dup2\n      tag_132\n      jumpi\n      tag_133\n      tag_113\n      jump\t// in\n    tag_133:\n    tag_132:\n      div\n      swap3\n      pop\n        /* \"@openzeppelin/contracts/utils/math/Math.sol\":10921:10922  2 */\n      0x02\n        /* \"@openzeppelin/contracts/utils/math/Math.sol\":10911:10922  result += 2 */\n      dup2\n      add\n      swap1\n      pop\n        /* \"@openzeppelin/contracts/utils/math/Math.sol\":10837:10937  if (value >= 10 ** 2) {... */\n    tag_131:\n        /* \"@openzeppelin/contracts/utils/math/Math.sol\":10963:10970  10 ** 1 */\n      0x0a\n        /* \"@openzeppelin/contracts/utils/math/Math.sol\":10954:10959  value */\n      dup4\n        /* \"@openzeppelin/contracts/utils/math/Math.sol\":10954:10970  value >= 10 ** 1 */\n      lt\n        /* \"@openzeppelin/contracts/utils/math/Math.sol\":10950:11016  if (value >= 10 ** 1) {... */\n      tag_134\n      jumpi\n        /* \"@openzeppelin/contracts/utils/math/Math.sol\":11000:11001  1 */\n      0x01\n        /* \"@openzeppelin/contracts/utils/math/Math.sol\":10990:11001  result += 1 */\n      dup2\n      add\n      swap1\n      pop\n        /* \"@openzeppelin/contracts/utils/math/Math.sol\":10950:11016  if (value >= 10 ** 1) {... */\n    tag_134:\n        /* \"@openzeppelin/contracts/utils/math/Math.sol\":11042:11048  result */\n      dup1\n        /* \"@openzeppelin/contracts/utils/math/Math.sol\":11035:11048  return result */\n      swap2\n      pop\n      pop\n        /* \"@openzeppelin/contracts/utils/math/Math.sol\":10139:11055  function log10(uint256 value) internal pure returns (uint256) {... */\n      swap2\n      swap1\n      pop\n      jump\t// out\n        /* \"#utility.yul\":7:84   */\n    tag_135:\n        /* \"#utility.yul\":44:51   */\n      0x00\n        /* \"#utility.yul\":73:78   */\n      dup2\n        /* \"#utility.yul\":62:78   */\n      swap1\n      pop\n        /* \"#utility.yul\":7:84   */\n      swap2\n      swap1\n      pop\n      jump\t// out\n        /* \"#utility.yul\":90:208   */\n    tag_136:\n        /* \"#utility.yul\":177:201   */\n      tag_167\n        /* \"#utility.yul\":195:200   */\n      dup2\n        /* \"#utility.yul\":177:201   */\n      tag_135\n      jump\t// in\n    tag_167:\n        /* \"#utility.yul\":172:175   */\n      dup3\n        /* \"#utility.yul\":165:202   */\n      mstore\n        /* \"#utility.yul\":90:208   */\n      pop\n      pop\n      jump\t// out\n        /* \"#utility.yul\":214:436   */\n    tag_20:\n        /* \"#utility.yul\":307:311   */\n      0x00\n        /* \"#utility.yul\":345:347   */\n      0x20\n        /* \"#utility.yul\":334:343   */\n      dup3\n        /* \"#utility.yul\":330:348   */\n      add\n        /* \"#utility.yul\":322:348   */\n      swap1\n      pop\n        /* \"#utility.yul\":358:429   */\n      tag_169\n        /* \"#utility.yul\":426:427   */\n      0x00\n        /* \"#utility.yul\":415:424   */\n      dup4\n        /* \"#utility.yul\":411:428   */\n      add\n        /* \"#utility.yul\":402:408   */\n      dup5\n        /* \"#utility.yul\":358:429   */\n      tag_136\n      jump\t// in\n    tag_169:\n        /* \"#utility.yul\":214:436   */\n      swap3\n      swap2\n      pop\n      pop\n      jump\t// out\n        /* \"#utility.yul\":442:568   */\n    tag_137:\n        /* \"#utility.yul\":479:486   */\n      0x00\n        /* \"#utility.yul\":519:561   */\n      0xffffffffffffffffffffffffffffffffffffffff\n        /* \"#utility.yul\":512:517   */\n      dup3\n        /* \"#utility.yul\":508:562   */\n      and\n        /* \"#utility.yul\":497:562   */\n      swap1\n      pop\n        /* \"#utility.yul\":442:568   */\n      swap2\n      swap1\n      pop\n      jump\t// out\n        /* \"#utility.yul\":574:670   */\n    tag_138:\n        /* \"#utility.yul\":611:618   */\n      0x00\n        /* \"#utility.yul\":640:664   */\n      tag_172\n        /* \"#utility.yul\":658:663   */\n      dup3\n        /* \"#utility.yul\":640:664   */\n      tag_137\n      jump\t// in\n    tag_172:\n        /* \"#utility.yul\":629:664   */\n      swap1\n      pop\n        /* \"#utility.yul\":574:670   */\n      swap2\n      swap1\n      pop\n      jump\t// out\n        /* \"#utility.yul\":676:794   */\n    tag_139:\n        /* \"#utility.yul\":763:787   */\n      tag_174\n        /* \"#utility.yul\":781:786   */\n      dup2\n        /* \"#utility.yul\":763:787   */\n      tag_138\n      jump\t// in\n    tag_174:\n        /* \"#utility.yul\":758:761   */\n      dup3\n        /* \"#utility.yul\":751:788   */\n      mstore\n        /* \"#utility.yul\":676:794   */\n      pop\n      pop\n      jump\t// out\n        /* \"#utility.yul\":800:1022   */\n    tag_38:\n        /* \"#utility.yul\":893:897   */\n      0x00\n        /* \"#utility.yul\":931:933   */\n      0x20\n        /* \"#utility.yul\":920:929   */\n      dup3\n        /* \"#utility.yul\":916:934   */\n      add\n        /* \"#utility.yul\":908:934   */\n      swap1\n      pop\n        /* \"#utility.yul\":944:1015   */\n      tag_176\n        /* \"#utility.yul\":1012:1013   */\n      0x00\n        /* \"#utility.yul\":1001:1010   */\n      dup4\n        /* \"#utility.yul\":997:1014   */\n      add\n        /* \"#utility.yul\":988:994   */\n      dup5\n        /* \"#utility.yul\":944:1015   */\n      tag_139\n      jump\t// in\n    tag_176:\n        /* \"#utility.yul\":800:1022   */\n      swap3\n      swap2\n      pop\n      pop\n      jump\t// out\n        /* \"#utility.yul\":1109:1226   */\n    tag_141:\n        /* \"#utility.yul\":1218:1219   */\n      0x00\n        /* \"#utility.yul\":1215:1216   */\n      dup1\n        /* \"#utility.yul\":1208:1220   */\n      revert\n        /* \"#utility.yul\":1355:1477   */\n    tag_143:\n        /* \"#utility.yul\":1428:1452   */\n      tag_181\n        /* \"#utility.yul\":1446:1451   */\n      dup2\n        /* \"#utility.yul\":1428:1452   */\n      tag_135\n      jump\t// in\n    tag_181:\n        /* \"#utility.yul\":1421:1426   */\n      dup2\n        /* \"#utility.yul\":1418:1453   */\n      eq\n        /* \"#utility.yul\":1408:1471   */\n      tag_182\n      jumpi\n        /* \"#utility.yul\":1467:1468   */\n      0x00\n        /* \"#utility.yul\":1464:1465   */\n      dup1\n        /* \"#utility.yul\":1457:1469   */\n      revert\n        /* \"#utility.yul\":1408:1471   */\n    tag_182:\n        /* \"#utility.yul\":1355:1477   */\n      pop\n      jump\t// out\n        /* \"#utility.yul\":1483:1622   */\n    tag_144:\n        /* \"#utility.yul\":1529:1534   */\n      0x00\n        /* \"#utility.yul\":1567:1573   */\n      dup2\n        /* \"#utility.yul\":1554:1574   */\n      calldataload\n        /* \"#utility.yul\":1545:1574   */\n      swap1\n      pop\n        /* \"#utility.yul\":1583:1616   */\n      tag_184\n        /* \"#utility.yul\":1610:1615   */\n      dup2\n        /* \"#utility.yul\":1583:1616   */\n      tag_143\n      jump\t// in\n    tag_184:\n        /* \"#utility.yul\":1483:1622   */\n      swap3\n      swap2\n      pop\n      pop\n      jump\t// out\n        /* \"#utility.yul\":1628:1957   */\n    tag_52:\n        /* \"#utility.yul\":1687:1693   */\n      0x00\n        /* \"#utility.yul\":1736:1738   */\n      0x20\n        /* \"#utility.yul\":1724:1733   */\n      dup3\n        /* \"#utility.yul\":1715:1722   */\n      dup5\n        /* \"#utility.yul\":1711:1734   */\n      sub\n        /* \"#utility.yul\":1707:1739   */\n      slt\n        /* \"#utility.yul\":1704:1823   */\n      iszero\n      tag_186\n      jumpi\n        /* \"#utility.yul\":1742:1821   */\n      tag_187\n      tag_141\n      jump\t// in\n    tag_187:\n        /* \"#utility.yul\":1704:1823   */\n    tag_186:\n        /* \"#utility.yul\":1862:1863   */\n      0x00\n        /* \"#utility.yul\":1887:1940   */\n      tag_188\n        /* \"#utility.yul\":1932:1939   */\n      dup5\n        /* \"#utility.yul\":1923:1929   */\n      dup3\n        /* \"#utility.yul\":1912:1921   */\n      dup6\n        /* \"#utility.yul\":1908:1930   */\n      add\n        /* \"#utility.yul\":1887:1940   */\n      tag_144\n      jump\t// in\n    tag_188:\n        /* \"#utility.yul\":1877:1940   */\n      swap2\n      pop\n        /* \"#utility.yul\":1833:1950   */\n      pop\n        /* \"#utility.yul\":1628:1957   */\n      swap3\n      swap2\n      pop\n      pop\n      jump\t// out\n        /* \"#utility.yul\":1963:2132   */\n    tag_145:\n        /* \"#utility.yul\":2047:2058   */\n      0x00\n        /* \"#utility.yul\":2081:2087   */\n      dup3\n        /* \"#utility.yul\":2076:2079   */\n      dup3\n        /* \"#utility.yul\":2069:2088   */\n      mstore\n        /* \"#utility.yul\":2121:2125   */\n      0x20\n        /* \"#utility.yul\":2116:2119   */\n      dup3\n        /* \"#utility.yul\":2112:2126   */\n      add\n        /* \"#utility.yul\":2097:2126   */\n      swap1\n      pop\n        /* \"#utility.yul\":1963:2132   */\n      swap3\n      swap2\n      pop\n      pop\n      jump\t// out\n        /* \"#utility.yul\":2138:2387   */\n    tag_146:\n        /* \"#utility.yul\":2278:2312   */\n      0x596f752068617665206e6f7420706572666f726d656420616e79207472616e73\n        /* \"#utility.yul\":2274:2275   */\n      0x00\n        /* \"#utility.yul\":2266:2272   */\n      dup3\n        /* \"#utility.yul\":2262:2276   */\n      add\n        /* \"#utility.yul\":2255:2313   */\n      mstore\n        /* \"#utility.yul\":2347:2379   */\n      0x616374696f6e206f6e207468697320736d61727420636f6e7472616374210000\n        /* \"#utility.yul\":2342:2344   */\n      0x20\n        /* \"#utility.yul\":2334:2340   */\n      dup3\n        /* \"#utility.yul\":2330:2345   */\n      add\n        /* \"#utility.yul\":2323:2380   */\n      mstore\n        /* \"#utility.yul\":2138:2387   */\n      pop\n      jump\t// out\n        /* \"#utility.yul\":2393:2759   */\n    tag_147:\n        /* \"#utility.yul\":2535:2538   */\n      0x00\n        /* \"#utility.yul\":2556:2623   */\n      tag_192\n        /* \"#utility.yul\":2620:2622   */\n      0x3e\n        /* \"#utility.yul\":2615:2618   */\n      dup4\n        /* \"#utility.yul\":2556:2623   */\n      tag_145\n      jump\t// in\n    tag_192:\n        /* \"#utility.yul\":2549:2623   */\n      swap2\n      pop\n        /* \"#utility.yul\":2632:2725   */\n      tag_193\n        /* \"#utility.yul\":2721:2724   */\n      dup3\n        /* \"#utility.yul\":2632:2725   */\n      tag_146\n      jump\t// in\n    tag_193:\n        /* \"#utility.yul\":2750:2752   */\n      0x40\n        /* \"#utility.yul\":2745:2748   */\n      dup3\n        /* \"#utility.yul\":2741:2753   */\n      add\n        /* \"#utility.yul\":2734:2753   */\n      swap1\n      pop\n        /* \"#utility.yul\":2393:2759   */\n      swap2\n      swap1\n      pop\n      jump\t// out\n        /* \"#utility.yul\":2765:3184   */\n    tag_58:\n        /* \"#utility.yul\":2931:2935   */\n      0x00\n        /* \"#utility.yul\":2969:2971   */\n      0x20\n        /* \"#utility.yul\":2958:2967   */\n      dup3\n        /* \"#utility.yul\":2954:2972   */\n      add\n        /* \"#utility.yul\":2946:2972   */\n      swap1\n      pop\n        /* \"#utility.yul\":3018:3027   */\n      dup2\n        /* \"#utility.yul\":3012:3016   */\n      dup2\n        /* \"#utility.yul\":3008:3028   */\n      sub\n        /* \"#utility.yul\":3004:3005   */\n      0x00\n        /* \"#utility.yul\":2993:3002   */\n      dup4\n        /* \"#utility.yul\":2989:3006   */\n      add\n        /* \"#utility.yul\":2982:3029   */\n      mstore\n        /* \"#utility.yul\":3046:3177   */\n      tag_195\n        /* \"#utility.yul\":3172:3176   */\n      dup2\n        /* \"#utility.yul\":3046:3177   */\n      tag_147\n      jump\t// in\n    tag_195:\n        /* \"#utility.yul\":3038:3177   */\n      swap1\n      pop\n        /* \"#utility.yul\":2765:3184   */\n      swap2\n      swap1\n      pop\n      jump\t// out\n        /* \"#utility.yul\":3190:3367   */\n    tag_148:\n        /* \"#utility.yul\":3330:3359   */\n      0x596f75722066756e647320617265207374696c6c206c6f636b65640000000000\n        /* \"#utility.yul\":3326:3327   */\n      0x00\n        /* \"#utility.yul\":3318:3324   */\n      dup3\n        /* \"#utility.yul\":3314:3328   */\n      add\n        /* \"#utility.yul\":3307:3360   */\n      mstore\n        /* \"#utility.yul\":3190:3367   */\n      pop\n      jump\t// out\n        /* \"#utility.yul\":3373:3739   */\n    tag_149:\n        /* \"#utility.yul\":3515:3518   */\n      0x00\n        /* \"#utility.yul\":3536:3603   */\n      tag_198\n        /* \"#utility.yul\":3600:3602   */\n      0x1b\n        /* \"#utility.yul\":3595:3598   */\n      dup4\n        /* \"#utility.yul\":3536:3603   */\n      tag_145\n      jump\t// in\n    tag_198:\n        /* \"#utility.yul\":3529:3603   */\n      swap2\n      pop\n        /* \"#utility.yul\":3612:3705   */\n      tag_199\n        /* \"#utility.yul\":3701:3704   */\n      dup3\n        /* \"#utility.yul\":3612:3705   */\n      tag_148\n      jump\t// in\n    tag_199:\n        /* \"#utility.yul\":3730:3732   */\n      0x20\n        /* \"#utility.yul\":3725:3728   */\n      dup3\n        /* \"#utility.yul\":3721:3733   */\n      add\n        /* \"#utility.yul\":3714:3733   */\n      swap1\n      pop\n        /* \"#utility.yul\":3373:3739   */\n      swap2\n      swap1\n      pop\n      jump\t// out\n        /* \"#utility.yul\":3745:4164   */\n    tag_63:\n        /* \"#utility.yul\":3911:3915   */\n      0x00\n        /* \"#utility.yul\":3949:3951   */\n      0x20\n        /* \"#utility.yul\":3938:3947   */\n      dup3\n        /* \"#utility.yul\":3934:3952   */\n      add\n        /* \"#utility.yul\":3926:3952   */\n      swap1\n      pop\n        /* \"#utility.yul\":3998:4007   */\n      dup2\n        /* \"#utility.yul\":3992:3996   */\n      dup2\n        /* \"#utility.yul\":3988:4008   */\n      sub\n        /* \"#utility.yul\":3984:3985   */\n      0x00\n        /* \"#utility.yul\":3973:3982   */\n      dup4\n        /* \"#utility.yul\":3969:3986   */\n      add\n        /* \"#utility.yul\":3962:4009   */\n      mstore\n        /* \"#utility.yul\":4026:4157   */\n      tag_201\n        /* \"#utility.yul\":4152:4156   */\n      dup2\n        /* \"#utility.yul\":4026:4157   */\n      tag_149\n      jump\t// in\n    tag_201:\n        /* \"#utility.yul\":4018:4157   */\n      swap1\n      pop\n        /* \"#utility.yul\":3745:4164   */\n      swap2\n      swap1\n      pop\n      jump\t// out\n        /* \"#utility.yul\":4170:4350   */\n    tag_150:\n        /* \"#utility.yul\":4218:4295   */\n      0x4e487b7100000000000000000000000000000000000000000000000000000000\n        /* \"#utility.yul\":4215:4216   */\n      0x00\n        /* \"#utility.yul\":4208:4296   */\n      mstore\n        /* \"#utility.yul\":4315:4319   */\n      0x11\n        /* \"#utility.yul\":4312:4313   */\n      0x04\n        /* \"#utility.yul\":4305:4320   */\n      mstore\n        /* \"#utility.yul\":4339:4343   */\n      0x24\n        /* \"#utility.yul\":4336:4337   */\n      0x00\n        /* \"#utility.yul\":4329:4344   */\n      revert\n        /* \"#utility.yul\":4356:4547   */\n    tag_73:\n        /* \"#utility.yul\":4396:4399   */\n      0x00\n        /* \"#utility.yul\":4415:4435   */\n      tag_204\n        /* \"#utility.yul\":4433:4434   */\n      dup3\n        /* \"#utility.yul\":4415:4435   */\n      tag_135\n      jump\t// in\n    tag_204:\n        /* \"#utility.yul\":4410:4435   */\n      swap2\n      pop\n        /* \"#utility.yul\":4449:4469   */\n      tag_205\n        /* \"#utility.yul\":4467:4468   */\n      dup4\n        /* \"#utility.yul\":4449:4469   */\n      tag_135\n      jump\t// in\n    tag_205:\n        /* \"#utility.yul\":4444:4469   */\n      swap3\n      pop\n        /* \"#utility.yul\":4492:4493   */\n      dup3\n        /* \"#utility.yul\":4489:4490   */\n      dup3\n        /* \"#utility.yul\":4485:4494   */\n      add\n        /* \"#utility.yul\":4478:4494   */\n      swap1\n      pop\n        /* \"#utility.yul\":4513:4516   */\n      dup1\n        /* \"#utility.yul\":4510:4511   */\n      dup3\n        /* \"#utility.yul\":4507:4517   */\n      gt\n        /* \"#utility.yul\":4504:4540   */\n      iszero\n      tag_206\n      jumpi\n        /* \"#utility.yul\":4520:4538   */\n      tag_207\n      tag_150\n      jump\t// in\n    tag_207:\n        /* \"#utility.yul\":4504:4540   */\n    tag_206:\n        /* \"#utility.yul\":4356:4547   */\n      swap3\n      swap2\n      pop\n      pop\n      jump\t// out\n        /* \"#utility.yul\":4553:4747   */\n    tag_76:\n        /* \"#utility.yul\":4593:4597   */\n      0x00\n        /* \"#utility.yul\":4613:4633   */\n      tag_209\n        /* \"#utility.yul\":4631:4632   */\n      dup3\n        /* \"#utility.yul\":4613:4633   */\n      tag_135\n      jump\t// in\n    tag_209:\n        /* \"#utility.yul\":4608:4633   */\n      swap2\n      pop\n        /* \"#utility.yul\":4647:4667   */\n      tag_210\n        /* \"#utility.yul\":4665:4666   */\n      dup4\n        /* \"#utility.yul\":4647:4667   */\n      tag_135\n      jump\t// in\n    tag_210:\n        /* \"#utility.yul\":4642:4667   */\n      swap3\n      pop\n        /* \"#utility.yul\":4691:4692   */\n      dup3\n        /* \"#utility.yul\":4688:4689   */\n      dup3\n        /* \"#utility.yul\":4684:4693   */\n      sub\n        /* \"#utility.yul\":4676:4693   */\n      swap1\n      pop\n        /* \"#utility.yul\":4715:4716   */\n      dup2\n        /* \"#utility.yul\":4709:4713   */\n      dup2\n        /* \"#utility.yul\":4706:4717   */\n      gt\n        /* \"#utility.yul\":4703:4740   */\n      iszero\n      tag_211\n      jumpi\n        /* \"#utility.yul\":4720:4738   */\n      tag_212\n      tag_150\n      jump\t// in\n    tag_212:\n        /* \"#utility.yul\":4703:4740   */\n    tag_211:\n        /* \"#utility.yul\":4553:4747   */\n      swap3\n      swap2\n      pop\n      pop\n      jump\t// out\n        /* \"#utility.yul\":4753:4933   */\n    tag_113:\n        /* \"#utility.yul\":4801:4878   */\n      0x4e487b7100000000000000000000000000000000000000000000000000000000\n        /* \"#utility.yul\":4798:4799   */\n      0x00\n        /* \"#utility.yul\":4791:4879   */\n      mstore\n        /* \"#utility.yul\":4898:4902   */\n      0x12\n        /* \"#utility.yul\":4895:4896   */\n      0x04\n        /* \"#utility.yul\":4888:4903   */\n      mstore\n        /* \"#utility.yul\":4922:4926   */\n      0x24\n        /* \"#utility.yul\":4919:4920   */\n      0x00\n        /* \"#utility.yul\":4912:4927   */\n      revert\n        /* \"#utility.yul\":4939:5124   */\n    tag_78:\n        /* \"#utility.yul\":4979:4980   */\n      0x00\n        /* \"#utility.yul\":4996:5016   */\n      tag_215\n        /* \"#utility.yul\":5014:5015   */\n      dup3\n        /* \"#utility.yul\":4996:5016   */\n      tag_135\n      jump\t// in\n    tag_215:\n        /* \"#utility.yul\":4991:5016   */\n      swap2\n      pop\n        /* \"#utility.yul\":5030:5050   */\n      tag_216\n        /* \"#utility.yul\":5048:5049   */\n      dup4\n        /* \"#utility.yul\":5030:5050   */\n      tag_135\n      jump\t// in\n    tag_216:\n        /* \"#utility.yul\":5025:5050   */\n      swap3\n      pop\n        /* \"#utility.yul\":5069:5070   */\n      dup3\n        /* \"#utility.yul\":5059:5094   */\n      tag_217\n      jumpi\n        /* \"#utility.yul\":5074:5092   */\n      tag_218\n      tag_113\n      jump\t// in\n    tag_218:\n        /* \"#utility.yul\":5059:5094   */\n    tag_217:\n        /* \"#utility.yul\":5116:5117   */\n      dup3\n        /* \"#utility.yul\":5113:5114   */\n      dup3\n        /* \"#utility.yul\":5109:5118   */\n      div\n        /* \"#utility.yul\":5104:5118   */\n      swap1\n      pop\n        /* \"#utility.yul\":4939:5124   */\n      swap3\n      swap2\n      pop\n      pop\n      jump\t// out\n        /* \"#utility.yul\":5130:5357   */\n    tag_151:\n        /* \"#utility.yul\":5270:5304   */\n      0x546869732066656174757265206973207265737472696374656420746f207468\n        /* \"#utility.yul\":5266:5267   */\n      0x00\n        /* \"#utility.yul\":5258:5264   */\n      dup3\n        /* \"#utility.yul\":5254:5268   */\n      add\n        /* \"#utility.yul\":5247:5305   */\n      mstore\n        /* \"#utility.yul\":5339:5349   */\n      0x65206f776e657221000000000000000000000000000000000000000000000000\n        /* \"#utility.yul\":5334:5336   */\n      0x20\n        /* \"#utility.yul\":5326:5332   */\n      dup3\n        /* \"#utility.yul\":5322:5337   */\n      add\n        /* \"#utility.yul\":5315:5350   */\n      mstore\n        /* \"#utility.yul\":5130:5357   */\n      pop\n      jump\t// out\n        /* \"#utility.yul\":5363:5729   */\n    tag_152:\n        /* \"#utility.yul\":5505:5508   */\n      0x00\n        /* \"#utility.yul\":5526:5593   */\n      tag_221\n        /* \"#utility.yul\":5590:5592   */\n      0x28\n        /* \"#utility.yul\":5585:5588   */\n      dup4\n        /* \"#utility.yul\":5526:5593   */\n      tag_145\n      jump\t// in\n    tag_221:\n        /* \"#utility.yul\":5519:5593   */\n      swap2\n      pop\n        /* \"#utility.yul\":5602:5695   */\n      tag_222\n        /* \"#utility.yul\":5691:5694   */\n      dup3\n        /* \"#utility.yul\":5602:5695   */\n      tag_151\n      jump\t// in\n    tag_222:\n        /* \"#utility.yul\":5720:5722   */\n      0x40\n        /* \"#utility.yul\":5715:5718   */\n      dup3\n        /* \"#utility.yul\":5711:5723   */\n      add\n        /* \"#utility.yul\":5704:5723   */\n      swap1\n      pop\n        /* \"#utility.yul\":5363:5729   */\n      swap2\n      swap1\n      pop\n      jump\t// out\n        /* \"#utility.yul\":5735:6154   */\n    tag_82:\n        /* \"#utility.yul\":5901:5905   */\n      0x00\n        /* \"#utility.yul\":5939:5941   */\n      0x20\n        /* \"#utility.yul\":5928:5937   */\n      dup3\n        /* \"#utility.yul\":5924:5942   */\n      add\n        /* \"#utility.yul\":5916:5942   */\n      swap1\n      pop\n        /* \"#utility.yul\":5988:5997   */\n      dup2\n        /* \"#utility.yul\":5982:5986   */\n      dup2\n        /* \"#utility.yul\":5978:5998   */\n      sub\n        /* \"#utility.yul\":5974:5975   */\n      0x00\n        /* \"#utility.yul\":5963:5972   */\n      dup4\n        /* \"#utility.yul\":5959:5976   */\n      add\n        /* \"#utility.yul\":5952:5999   */\n      mstore\n        /* \"#utility.yul\":6016:6147   */\n      tag_224\n        /* \"#utility.yul\":6142:6146   */\n      dup2\n        /* \"#utility.yul\":6016:6147   */\n      tag_152\n      jump\t// in\n    tag_224:\n        /* \"#utility.yul\":6008:6147   */\n      swap1\n      pop\n        /* \"#utility.yul\":5735:6154   */\n      swap2\n      swap1\n      pop\n      jump\t// out\n        /* \"#utility.yul\":6160:6402   */\n    tag_153:\n        /* \"#utility.yul\":6300:6334   */\n      0x54686520616d6f756e7420696e64696361746564206d7573742062652073616d\n        /* \"#utility.yul\":6296:6297   */\n      0x00\n        /* \"#utility.yul\":6288:6294   */\n      dup3\n        /* \"#utility.yul\":6284:6298   */\n      add\n        /* \"#utility.yul\":6277:6335   */\n      mstore\n        /* \"#utility.yul\":6369:6394   */\n      0x6520617320746865207472616e736665722076616c7565000000000000000000\n        /* \"#utility.yul\":6364:6366   */\n      0x20\n        /* \"#utility.yul\":6356:6362   */\n      dup3\n        /* \"#utility.yul\":6352:6367   */\n      add\n        /* \"#utility.yul\":6345:6395   */\n      mstore\n        /* \"#utility.yul\":6160:6402   */\n      pop\n      jump\t// out\n        /* \"#utility.yul\":6408:6774   */\n    tag_154:\n        /* \"#utility.yul\":6550:6553   */\n      0x00\n        /* \"#utility.yul\":6571:6638   */\n      tag_227\n        /* \"#utility.yul\":6635:6637   */\n      0x37\n        /* \"#utility.yul\":6630:6633   */\n      dup4\n        /* \"#utility.yul\":6571:6638   */\n      tag_145\n      jump\t// in\n    tag_227:\n        /* \"#utility.yul\":6564:6638   */\n      swap2\n      pop\n        /* \"#utility.yul\":6647:6740   */\n      tag_228\n        /* \"#utility.yul\":6736:6739   */\n      dup3\n        /* \"#utility.yul\":6647:6740   */\n      tag_153\n      jump\t// in\n    tag_228:\n        /* \"#utility.yul\":6765:6767   */\n      0x40\n        /* \"#utility.yul\":6760:6763   */\n      dup3\n        /* \"#utility.yul\":6756:6768   */\n      add\n        /* \"#utility.yul\":6749:6768   */\n      swap1\n      pop\n        /* \"#utility.yul\":6408:6774   */\n      swap2\n      swap1\n      pop\n      jump\t// out\n        /* \"#utility.yul\":6780:7199   */\n    tag_91:\n        /* \"#utility.yul\":6946:6950   */\n      0x00\n        /* \"#utility.yul\":6984:6986   */\n      0x20\n        /* \"#utility.yul\":6973:6982   */\n      dup3\n        /* \"#utility.yul\":6969:6987   */\n      add\n        /* \"#utility.yul\":6961:6987   */\n      swap1\n      pop\n        /* \"#utility.yul\":7033:7042   */\n      dup2\n        /* \"#utility.yul\":7027:7031   */\n      dup2\n        /* \"#utility.yul\":7023:7043   */\n      sub\n        /* \"#utility.yul\":7019:7020   */\n      0x00\n        /* \"#utility.yul\":7008:7017   */\n      dup4\n        /* \"#utility.yul\":7004:7021   */\n      add\n        /* \"#utility.yul\":6997:7044   */\n      mstore\n        /* \"#utility.yul\":7061:7192   */\n      tag_230\n        /* \"#utility.yul\":7187:7191   */\n      dup2\n        /* \"#utility.yul\":7061:7192   */\n      tag_154\n      jump\t// in\n    tag_230:\n        /* \"#utility.yul\":7053:7192   */\n      swap1\n      pop\n        /* \"#utility.yul\":6780:7199   */\n      swap2\n      swap1\n      pop\n      jump\t// out\n        /* \"#utility.yul\":7205:7353   */\n    tag_155:\n        /* \"#utility.yul\":7307:7318   */\n      0x00\n        /* \"#utility.yul\":7344:7347   */\n      dup2\n        /* \"#utility.yul\":7329:7347   */\n      swap1\n      pop\n        /* \"#utility.yul\":7205:7353   */\n      swap3\n      swap2\n      pop\n      pop\n      jump\t// out\n        /* \"#utility.yul\":7359:7581   */\n    tag_156:\n        /* \"#utility.yul\":7499:7533   */\n      0x54686520616d6f756e7420796f752063616e206c6f636b206d75737420657865\n        /* \"#utility.yul\":7495:7496   */\n      0x00\n        /* \"#utility.yul\":7487:7493   */\n      dup3\n        /* \"#utility.yul\":7483:7497   */\n      add\n        /* \"#utility.yul\":7476:7534   */\n      mstore\n        /* \"#utility.yul\":7568:7573   */\n      0x6564200000000000000000000000000000000000000000000000000000000000\n        /* \"#utility.yul\":7563:7565   */\n      0x20\n        /* \"#utility.yul\":7555:7561   */\n      dup3\n        /* \"#utility.yul\":7551:7566   */\n      add\n        /* \"#utility.yul\":7544:7574   */\n      mstore\n        /* \"#utility.yul\":7359:7581   */\n      pop\n      jump\t// out\n        /* \"#utility.yul\":7587:7989   */\n    tag_157:\n        /* \"#utility.yul\":7747:7750   */\n      0x00\n        /* \"#utility.yul\":7768:7853   */\n      tag_234\n        /* \"#utility.yul\":7850:7852   */\n      0x23\n        /* \"#utility.yul\":7845:7848   */\n      dup4\n        /* \"#utility.yul\":7768:7853   */\n      tag_155\n      jump\t// in\n    tag_234:\n        /* \"#utility.yul\":7761:7853   */\n      swap2\n      pop\n        /* \"#utility.yul\":7862:7955   */\n      tag_235\n        /* \"#utility.yul\":7951:7954   */\n      dup3\n        /* \"#utility.yul\":7862:7955   */\n      tag_156\n      jump\t// in\n    tag_235:\n        /* \"#utility.yul\":7980:7982   */\n      0x23\n        /* \"#utility.yul\":7975:7978   */\n      dup3\n        /* \"#utility.yul\":7971:7983   */\n      add\n        /* \"#utility.yul\":7964:7983   */\n      swap1\n      pop\n        /* \"#utility.yul\":7587:7989   */\n      swap2\n      swap1\n      pop\n      jump\t// out\n        /* \"#utility.yul\":7995:8094   */\n    tag_158:\n        /* \"#utility.yul\":8047:8053   */\n      0x00\n        /* \"#utility.yul\":8081:8086   */\n      dup2\n        /* \"#utility.yul\":8075:8087   */\n      mload\n        /* \"#utility.yul\":8065:8087   */\n      swap1\n      pop\n        /* \"#utility.yul\":7995:8094   */\n      swap2\n      swap1\n      pop\n      jump\t// out\n        /* \"#utility.yul\":8100:8346   */\n    tag_159:\n        /* \"#utility.yul\":8181:8182   */\n      0x00\n        /* \"#utility.yul\":8191:8304   */\n    tag_238:\n        /* \"#utility.yul\":8205:8211   */\n      dup4\n        /* \"#utility.yul\":8202:8203   */\n      dup2\n        /* \"#utility.yul\":8199:8212   */\n      lt\n        /* \"#utility.yul\":8191:8304   */\n      iszero\n      tag_240\n      jumpi\n        /* \"#utility.yul\":8290:8291   */\n      dup1\n        /* \"#utility.yul\":8285:8288   */\n      dup3\n        /* \"#utility.yul\":8281:8292   */\n      add\n        /* \"#utility.yul\":8275:8293   */\n      mload\n        /* \"#utility.yul\":8271:8272   */\n      dup2\n        /* \"#utility.yul\":8266:8269   */\n      dup5\n        /* \"#utility.yul\":8262:8273   */\n      add\n        /* \"#utility.yul\":8255:8294   */\n      mstore\n        /* \"#utility.yul\":8227:8229   */\n      0x20\n        /* \"#utility.yul\":8224:8225   */\n      dup2\n        /* \"#utility.yul\":8220:8230   */\n      add\n        /* \"#utility.yul\":8215:8230   */\n      swap1\n      pop\n        /* \"#utility.yul\":8191:8304   */\n      jump(tag_238)\n    tag_240:\n        /* \"#utility.yul\":8338:8339   */\n      0x00\n        /* \"#utility.yul\":8329:8335   */\n      dup5\n        /* \"#utility.yul\":8324:8327   */\n      dup5\n        /* \"#utility.yul\":8320:8336   */\n      add\n        /* \"#utility.yul\":8313:8340   */\n      mstore\n        /* \"#utility.yul\":8162:8346   */\n      pop\n        /* \"#utility.yul\":8100:8346   */\n      pop\n      pop\n      pop\n      jump\t// out\n        /* \"#utility.yul\":8352:8742   */\n    tag_160:\n        /* \"#utility.yul\":8458:8461   */\n      0x00\n        /* \"#utility.yul\":8486:8525   */\n      tag_242\n        /* \"#utility.yul\":8519:8524   */\n      dup3\n        /* \"#utility.yul\":8486:8525   */\n      tag_158\n      jump\t// in\n    tag_242:\n        /* \"#utility.yul\":8541:8630   */\n      tag_243\n        /* \"#utility.yul\":8623:8629   */\n      dup2\n        /* \"#utility.yul\":8618:8621   */\n      dup6\n        /* \"#utility.yul\":8541:8630   */\n      tag_155\n      jump\t// in\n    tag_243:\n        /* \"#utility.yul\":8534:8630   */\n      swap4\n      pop\n        /* \"#utility.yul\":8639:8704   */\n      tag_244\n        /* \"#utility.yul\":8697:8703   */\n      dup2\n        /* \"#utility.yul\":8692:8695   */\n      dup6\n        /* \"#utility.yul\":8685:8689   */\n      0x20\n        /* \"#utility.yul\":8678:8683   */\n      dup7\n        /* \"#utility.yul\":8674:8690   */\n      add\n        /* \"#utility.yul\":8639:8704   */\n      tag_159\n      jump\t// in\n    tag_244:\n        /* \"#utility.yul\":8729:8735   */\n      dup1\n        /* \"#utility.yul\":8724:8727   */\n      dup5\n        /* \"#utility.yul\":8720:8736   */\n      add\n        /* \"#utility.yul\":8713:8736   */\n      swap2\n      pop\n        /* \"#utility.yul\":8462:8742   */\n      pop\n        /* \"#utility.yul\":8352:8742   */\n      swap3\n      swap2\n      pop\n      pop\n      jump\t// out\n        /* \"#utility.yul\":8748:8958   */\n    tag_161:\n        /* \"#utility.yul\":8917:8951   */\n      0x5468652062696c6c20666f72207573696e67207468697320736572766963652e\n        /* \"#utility.yul\":8912:8915   */\n      dup2\n        /* \"#utility.yul\":8905:8952   */\n      mstore\n        /* \"#utility.yul\":8748:8958   */\n      pop\n      jump\t// out\n        /* \"#utility.yul\":8964:9772   */\n    tag_95:\n        /* \"#utility.yul\":9288:9291   */\n      0x00\n        /* \"#utility.yul\":9310:9458   */\n      tag_247\n        /* \"#utility.yul\":9454:9457   */\n      dup3\n        /* \"#utility.yul\":9310:9458   */\n      tag_157\n      jump\t// in\n    tag_247:\n        /* \"#utility.yul\":9303:9458   */\n      swap2\n      pop\n        /* \"#utility.yul\":9475:9570   */\n      tag_248\n        /* \"#utility.yul\":9566:9569   */\n      dup3\n        /* \"#utility.yul\":9557:9563   */\n      dup5\n        /* \"#utility.yul\":9475:9570   */\n      tag_160\n      jump\t// in\n    tag_248:\n        /* \"#utility.yul\":9468:9570   */\n      swap2\n      pop\n        /* \"#utility.yul\":9580:9718   */\n      tag_249\n        /* \"#utility.yul\":9714:9717   */\n      dup3\n        /* \"#utility.yul\":9580:9718   */\n      tag_161\n      jump\t// in\n    tag_249:\n        /* \"#utility.yul\":9743:9745   */\n      0x20\n        /* \"#utility.yul\":9738:9741   */\n      dup3\n        /* \"#utility.yul\":9734:9746   */\n      add\n        /* \"#utility.yul\":9727:9746   */\n      swap2\n      pop\n        /* \"#utility.yul\":9763:9766   */\n      dup2\n        /* \"#utility.yul\":9756:9766   */\n      swap1\n      pop\n        /* \"#utility.yul\":8964:9772   */\n      swap3\n      swap2\n      pop\n      pop\n      jump\t// out\n        /* \"#utility.yul\":9778:9880   */\n    tag_162:\n        /* \"#utility.yul\":9819:9825   */\n      0x00\n        /* \"#utility.yul\":9870:9872   */\n      0x1f\n        /* \"#utility.yul\":9866:9873   */\n      not\n        /* \"#utility.yul\":9861:9863   */\n      0x1f\n        /* \"#utility.yul\":9854:9859   */\n      dup4\n        /* \"#utility.yul\":9850:9864   */\n      add\n        /* \"#utility.yul\":9846:9874   */\n      and\n        /* \"#utility.yul\":9836:9874   */\n      swap1\n      pop\n        /* \"#utility.yul\":9778:9880   */\n      swap2\n      swap1\n      pop\n      jump\t// out\n        /* \"#utility.yul\":9886:10263   */\n    tag_163:\n        /* \"#utility.yul\":9974:9977   */\n      0x00\n        /* \"#utility.yul\":10002:10041   */\n      tag_252\n        /* \"#utility.yul\":10035:10040   */\n      dup3\n        /* \"#utility.yul\":10002:10041   */\n      tag_158\n      jump\t// in\n    tag_252:\n        /* \"#utility.yul\":10057:10128   */\n      tag_253\n        /* \"#utility.yul\":10121:10127   */\n      dup2\n        /* \"#utility.yul\":10116:10119   */\n      dup6\n        /* \"#utility.yul\":10057:10128   */\n      tag_145\n      jump\t// in\n    tag_253:\n        /* \"#utility.yul\":10050:10128   */\n      swap4\n      pop\n        /* \"#utility.yul\":10137:10202   */\n      tag_254\n        /* \"#utility.yul\":10195:10201   */\n      dup2\n        /* \"#utility.yul\":10190:10193   */\n      dup6\n        /* \"#utility.yul\":10183:10187   */\n      0x20\n        /* \"#utility.yul\":10176:10181   */\n      dup7\n        /* \"#utility.yul\":10172:10188   */\n      add\n        /* \"#utility.yul\":10137:10202   */\n      tag_159\n      jump\t// in\n    tag_254:\n        /* \"#utility.yul\":10227:10256   */\n      tag_255\n        /* \"#utility.yul\":10249:10255   */\n      dup2\n        /* \"#utility.yul\":10227:10256   */\n      tag_162\n      jump\t// in\n    tag_255:\n        /* \"#utility.yul\":10222:10225   */\n      dup5\n        /* \"#utility.yul\":10218:10257   */\n      add\n        /* \"#utility.yul\":10211:10257   */\n      swap2\n      pop\n        /* \"#utility.yul\":9978:10263   */\n      pop\n        /* \"#utility.yul\":9886:10263   */\n      swap3\n      swap2\n      pop\n      pop\n      jump\t// out\n        /* \"#utility.yul\":10269:10582   */\n    tag_98:\n        /* \"#utility.yul\":10382:10386   */\n      0x00\n        /* \"#utility.yul\":10420:10422   */\n      0x20\n        /* \"#utility.yul\":10409:10418   */\n      dup3\n        /* \"#utility.yul\":10405:10423   */\n      add\n        /* \"#utility.yul\":10397:10423   */\n      swap1\n      pop\n        /* \"#utility.yul\":10469:10478   */\n      dup2\n        /* \"#utility.yul\":10463:10467   */\n      dup2\n        /* \"#utility.yul\":10459:10479   */\n      sub\n        /* \"#utility.yul\":10455:10456   */\n      0x00\n        /* \"#utility.yul\":10444:10453   */\n      dup4\n        /* \"#utility.yul\":10440:10457   */\n      add\n        /* \"#utility.yul\":10433:10480   */\n      mstore\n        /* \"#utility.yul\":10497:10575   */\n      tag_257\n        /* \"#utility.yul\":10570:10574   */\n      dup2\n        /* \"#utility.yul\":10561:10567   */\n      dup5\n        /* \"#utility.yul\":10497:10575   */\n      tag_163\n      jump\t// in\n    tag_257:\n        /* \"#utility.yul\":10489:10575   */\n      swap1\n      pop\n        /* \"#utility.yul\":10269:10582   */\n      swap3\n      swap2\n      pop\n      pop\n      jump\t// out\n        /* \"#utility.yul\":10588:10768   */\n    tag_107:\n        /* \"#utility.yul\":10636:10713   */\n      0x4e487b7100000000000000000000000000000000000000000000000000000000\n        /* \"#utility.yul\":10633:10634   */\n      0x00\n        /* \"#utility.yul\":10626:10714   */\n      mstore\n        /* \"#utility.yul\":10733:10737   */\n      0x41\n        /* \"#utility.yul\":10730:10731   */\n      0x04\n        /* \"#utility.yul\":10723:10738   */\n      mstore\n        /* \"#utility.yul\":10757:10761   */\n      0x24\n        /* \"#utility.yul\":10754:10755   */\n      0x00\n        /* \"#utility.yul\":10747:10762   */\n      revert\n\n    auxdata: 0xa2646970667358221220d615cdf39f20af5448ad55b90d1f41786b536e5db64baed11d4615292809842264736f6c63430008110033\n}\n",
				"bytecode": {
					"linkReferences": {},
					"object": "60806040526301e1338060025534801561001857600080fd5b50336000806101000a81548173ffffffffffffffffffffffffffffffffffffffff021916908373ffffffffffffffffffffffffffffffffffffffff160217905550611148806100686000396000f3fe6080604052600436106100955760003560e01c80638da5cb5b116100595780638da5cb5b1461013c5780639f2e606f14610167578063b5356f7e14610192578063b69ef8a8146101a9578063c290d691146101d45761009c565b80630d668087146100a157806312065fe0146100cc5780633ccfd60b146100e35780636faf6445146100fa57806378e97925146101115761009c565b3661009c57005b600080fd5b3480156100ad57600080fd5b506100b66101f0565b6040516100c39190610b3e565b60405180910390f35b3480156100d857600080fd5b506100e16101f6565b005b3480156100ef57600080fd5b506100f86101ff565b005b34801561010657600080fd5b5061010f6103d2565b005b34801561011d57600080fd5b5061012661048d565b6040516101339190610b3e565b60405180910390f35b34801561014857600080fd5b50610151610493565b60405161015e9190610b9a565b60405180910390f35b34801561017357600080fd5b5061017c6104b7565b6040516101899190610b3e565b60405180910390f35b34801561019e57600080fd5b506101a76104e1565b005b3480156101b557600080fd5b506101be6106c4565b6040516101cb9190610b3e565b60405180910390f35b6101ee60048036038101906101e99190610be6565b6106ca565b005b60025481565b47600381905550565b33600460003373ffffffffffffffffffffffffffffffffffffffff1673ffffffffffffffffffffffffffffffffffffffff16815260200190815260200160002060009054906101000a900460ff1661028c576040517f08c379a000000000000000000000000000000000000000000000000000000000815260040161028390610c96565b60405180910390fd5b60006102966104b7565b905060008111156102dc576040517f08c379a00000000000000000000000000000000000000000000000000000000081526004016102d390610d02565b60405180910390fd5b6000600560003373ffffffffffffffffffffffffffffffffffffffff1673ffffffffffffffffffffffffffffffffffffffff1681526020019081526020016000205490506000600560008060009054906101000a900473ffffffffffffffffffffffffffffffffffffffff1673ffffffffffffffffffffffffffffffffffffffff1673ffffffffffffffffffffffffffffffffffffffff168152602001908152602001600020819055503373ffffffffffffffffffffffffffffffffffffffff166108fc829081150290604051600060405180830381858888f193505050501580156103cc573d6000803e3d6000fd5b50505050565b33600460003373ffffffffffffffffffffffffffffffffffffffff1673ffffffffffffffffffffffffffffffffffffffff16815260200190815260200160002060009054906101000a900460ff1661045f576040517f08c379a000000000000000000000000000000000000000000000000000000000815260040161045690610c96565b60405180910390fd5b61046833610826565b42600181905550600154600260008282546104839190610d51565b9250508190555050565b60015481565b60008054906101000a900473ffffffffffffffffffffffffffffffffffffffff1681565b600080620151806001546002546104ce9190610d85565b6104d89190610de8565b90508091505090565b338073ffffffffffffffffffffffffffffffffffffffff1660008054906101000a900473ffffffffffffffffffffffffffffffffffffffff1673ffffffffffffffffffffffffffffffffffffffff1614610570576040517f08c379a000000000000000000000000000000000000000000000000000000000815260040161056790610e8b565b60405180910390fd5b6000600560008060009054906101000a900473ffffffffffffffffffffffffffffffffffffffff1673ffffffffffffffffffffffffffffffffffffffff1673ffffffffffffffffffffffffffffffffffffffff168152602001908152602001600020541015610614576040517f08c379a000000000000000000000000000000000000000000000000000000000815260040161060b90610d02565b60405180910390fd5b6000600560008060009054906101000a900473ffffffffffffffffffffffffffffffffffffffff1673ffffffffffffffffffffffffffffffffffffffff1673ffffffffffffffffffffffffffffffffffffffff168152602001908152602001600020819055503373ffffffffffffffffffffffffffffffffffffffff166108fc479081150290604051600060405180830381858888f193505050501580156106c0573d6000803e3d6000fd5b5050565b60035481565b80341461070c576040517f08c379a000000000000000000000000000000000000000000000000000000000815260040161070390610f1d565b60405180910390fd5b6601f438daa0600081116107266601f438daa06000610904565b6040516020016107369190611046565b60405160208183030381529060405290610786576040517f08c379a000000000000000000000000000000000000000000000000000000000815260040161077d91906110c1565b60405180910390fd5b506001600460003373ffffffffffffffffffffffffffffffffffffffff1673ffffffffffffffffffffffffffffffffffffffff16815260200190815260200160002060006101000a81548160ff02191690831515021790555080600560003373ffffffffffffffffffffffffffffffffffffffff1673ffffffffffffffffffffffffffffffffffffffff1681526020019081526020016000208190555050565b6601f438daa06000600560008373ffffffffffffffffffffffffffffffffffffffff1673ffffffffffffffffffffffffffffffffffffffff168152602001908152602001600020600082825461087c9190610d85565b925050819055506601f438daa06000600560008060009054906101000a900473ffffffffffffffffffffffffffffffffffffffff1673ffffffffffffffffffffffffffffffffffffffff1673ffffffffffffffffffffffffffffffffffffffff16815260200190815260200160002060008282546108fa9190610d51565b9250508190555050565b606060006001610913846109d2565b01905060008167ffffffffffffffff811115610932576109316110e3565b5b6040519080825280601f01601f1916602001820160405280156109645781602001600182028036833780820191505090505b509050600082602001820190505b6001156109c7578080600190039150507f3031323334353637383961626364656600000000000000000000000000000000600a86061a8153600a85816109bb576109ba610db9565b5b04945060008503610972575b819350505050919050565b600080600090507a184f03e93ff9f4daa797ed6e38ed64bf6a1f0100000000000000008310610a30577a184f03e93ff9f4daa797ed6e38ed64bf6a1f0100000000000000008381610a2657610a25610db9565b5b0492506040810190505b6d04ee2d6d415b85acef81000000008310610a6d576d04ee2d6d415b85acef81000000008381610a6357610a62610db9565b5b0492506020810190505b662386f26fc100008310610a9c57662386f26fc100008381610a9257610a91610db9565b5b0492506010810190505b6305f5e1008310610ac5576305f5e1008381610abb57610aba610db9565b5b0492506008810190505b6127108310610aea576127108381610ae057610adf610db9565b5b0492506004810190505b60648310610b0d5760648381610b0357610b02610db9565b5b0492506002810190505b600a8310610b1c576001810190505b80915050919050565b6000819050919050565b610b3881610b25565b82525050565b6000602082019050610b536000830184610b2f565b92915050565b600073ffffffffffffffffffffffffffffffffffffffff82169050919050565b6000610b8482610b59565b9050919050565b610b9481610b79565b82525050565b6000602082019050610baf6000830184610b8b565b92915050565b600080fd5b610bc381610b25565b8114610bce57600080fd5b50565b600081359050610be081610bba565b92915050565b600060208284031215610bfc57610bfb610bb5565b5b6000610c0a84828501610bd1565b91505092915050565b600082825260208201905092915050565b7f596f752068617665206e6f7420706572666f726d656420616e79207472616e7360008201527f616374696f6e206f6e207468697320736d61727420636f6e7472616374210000602082015250565b6000610c80603e83610c13565b9150610c8b82610c24565b604082019050919050565b60006020820190508181036000830152610caf81610c73565b9050919050565b7f596f75722066756e647320617265207374696c6c206c6f636b65640000000000600082015250565b6000610cec601b83610c13565b9150610cf782610cb6565b602082019050919050565b60006020820190508181036000830152610d1b81610cdf565b9050919050565b7f4e487b7100000000000000000000000000000000000000000000000000000000600052601160045260246000fd5b6000610d5c82610b25565b9150610d6783610b25565b9250828201905080821115610d7f57610d7e610d22565b5b92915050565b6000610d9082610b25565b9150610d9b83610b25565b9250828203905081811115610db357610db2610d22565b5b92915050565b7f4e487b7100000000000000000000000000000000000000000000000000000000600052601260045260246000fd5b6000610df382610b25565b9150610dfe83610b25565b925082610e0e57610e0d610db9565b5b828204905092915050565b7f546869732066656174757265206973207265737472696374656420746f20746860008201527f65206f776e657221000000000000000000000000000000000000000000000000602082015250565b6000610e75602883610c13565b9150610e8082610e19565b604082019050919050565b60006020820190508181036000830152610ea481610e68565b9050919050565b7f54686520616d6f756e7420696e64696361746564206d7573742062652073616d60008201527f6520617320746865207472616e736665722076616c7565000000000000000000602082015250565b6000610f07603783610c13565b9150610f1282610eab565b604082019050919050565b60006020820190508181036000830152610f3681610efa565b9050919050565b600081905092915050565b7f54686520616d6f756e7420796f752063616e206c6f636b206d7573742065786560008201527f6564200000000000000000000000000000000000000000000000000000000000602082015250565b6000610fa4602383610f3d565b9150610faf82610f48565b602382019050919050565b600081519050919050565b60005b83811015610fe3578082015181840152602081019050610fc8565b60008484015250505050565b6000610ffa82610fba565b6110048185610f3d565b9350611014818560208601610fc5565b80840191505092915050565b7f5468652062696c6c20666f72207573696e67207468697320736572766963652e815250565b600061105182610f97565b915061105d8284610fef565b915061106882611020565b60208201915081905092915050565b6000601f19601f8301169050919050565b600061109382610fba565b61109d8185610c13565b93506110ad818560208601610fc5565b6110b681611077565b840191505092915050565b600060208201905081810360008301526110db8184611088565b905092915050565b7f4e487b7100000000000000000000000000000000000000000000000000000000600052604160045260246000fdfea2646970667358221220d615cdf39f20af5448ad55b90d1f41786b536e5db64baed11d4615292809842264736f6c63430008110033",
					"opcodes": "PUSH1 0x80 PUSH1 0x40 MSTORE PUSH4 0x1E13380 PUSH1 0x2 SSTORE CALLVALUE DUP1 ISZERO PUSH2 0x18 JUMPI PUSH1 0x0 DUP1 REVERT JUMPDEST POP CALLER PUSH1 0x0 DUP1 PUSH2 0x100 EXP DUP2 SLOAD DUP2 PUSH20 0xFFFFFFFFFFFFFFFFFFFFFFFFFFFFFFFFFFFFFFFF MUL NOT AND SWAP1 DUP4 PUSH20 0xFFFFFFFFFFFFFFFFFFFFFFFFFFFFFFFFFFFFFFFF AND MUL OR SWAP1 SSTORE POP PUSH2 0x1148 DUP1 PUSH2 0x68 PUSH1 0x0 CODECOPY PUSH1 0x0 RETURN INVALID PUSH1 0x80 PUSH1 0x40 MSTORE PUSH1 0x4 CALLDATASIZE LT PUSH2 0x95 JUMPI PUSH1 0x0 CALLDATALOAD PUSH1 0xE0 SHR DUP1 PUSH4 0x8DA5CB5B GT PUSH2 0x59 JUMPI DUP1 PUSH4 0x8DA5CB5B EQ PUSH2 0x13C JUMPI DUP1 PUSH4 0x9F2E606F EQ PUSH2 0x167 JUMPI DUP1 PUSH4 0xB5356F7E EQ PUSH2 0x192 JUMPI DUP1 PUSH4 0xB69EF8A8 EQ PUSH2 0x1A9 JUMPI DUP1 PUSH4 0xC290D691 EQ PUSH2 0x1D4 JUMPI PUSH2 0x9C JUMP JUMPDEST DUP1 PUSH4 0xD668087 EQ PUSH2 0xA1 JUMPI DUP1 PUSH4 0x12065FE0 EQ PUSH2 0xCC JUMPI DUP1 PUSH4 0x3CCFD60B EQ PUSH2 0xE3 JUMPI DUP1 PUSH4 0x6FAF6445 EQ PUSH2 0xFA JUMPI DUP1 PUSH4 0x78E97925 EQ PUSH2 0x111 JUMPI PUSH2 0x9C JUMP JUMPDEST CALLDATASIZE PUSH2 0x9C JUMPI STOP JUMPDEST PUSH1 0x0 DUP1 REVERT JUMPDEST CALLVALUE DUP1 ISZERO PUSH2 0xAD JUMPI PUSH1 0x0 DUP1 REVERT JUMPDEST POP PUSH2 0xB6 PUSH2 0x1F0 JUMP JUMPDEST PUSH1 0x40 MLOAD PUSH2 0xC3 SWAP2 SWAP1 PUSH2 0xB3E JUMP JUMPDEST PUSH1 0x40 MLOAD DUP1 SWAP2 SUB SWAP1 RETURN JUMPDEST CALLVALUE DUP1 ISZERO PUSH2 0xD8 JUMPI PUSH1 0x0 DUP1 REVERT JUMPDEST POP PUSH2 0xE1 PUSH2 0x1F6 JUMP JUMPDEST STOP JUMPDEST CALLVALUE DUP1 ISZERO PUSH2 0xEF JUMPI PUSH1 0x0 DUP1 REVERT JUMPDEST POP PUSH2 0xF8 PUSH2 0x1FF JUMP JUMPDEST STOP JUMPDEST CALLVALUE DUP1 ISZERO PUSH2 0x106 JUMPI PUSH1 0x0 DUP1 REVERT JUMPDEST POP PUSH2 0x10F PUSH2 0x3D2 JUMP JUMPDEST STOP JUMPDEST CALLVALUE DUP1 ISZERO PUSH2 0x11D JUMPI PUSH1 0x0 DUP1 REVERT JUMPDEST POP PUSH2 0x126 PUSH2 0x48D JUMP JUMPDEST PUSH1 0x40 MLOAD PUSH2 0x133 SWAP2 SWAP1 PUSH2 0xB3E JUMP JUMPDEST PUSH1 0x40 MLOAD DUP1 SWAP2 SUB SWAP1 RETURN JUMPDEST CALLVALUE DUP1 ISZERO PUSH2 0x148 JUMPI PUSH1 0x0 DUP1 REVERT JUMPDEST POP PUSH2 0x151 PUSH2 0x493 JUMP JUMPDEST PUSH1 0x40 MLOAD PUSH2 0x15E SWAP2 SWAP1 PUSH2 0xB9A JUMP JUMPDEST PUSH1 0x40 MLOAD DUP1 SWAP2 SUB SWAP1 RETURN JUMPDEST CALLVALUE DUP1 ISZERO PUSH2 0x173 JUMPI PUSH1 0x0 DUP1 REVERT JUMPDEST POP PUSH2 0x17C PUSH2 0x4B7 JUMP JUMPDEST PUSH1 0x40 MLOAD PUSH2 0x189 SWAP2 SWAP1 PUSH2 0xB3E JUMP JUMPDEST PUSH1 0x40 MLOAD DUP1 SWAP2 SUB SWAP1 RETURN JUMPDEST CALLVALUE DUP1 ISZERO PUSH2 0x19E JUMPI PUSH1 0x0 DUP1 REVERT JUMPDEST POP PUSH2 0x1A7 PUSH2 0x4E1 JUMP JUMPDEST STOP JUMPDEST CALLVALUE DUP1 ISZERO PUSH2 0x1B5 JUMPI PUSH1 0x0 DUP1 REVERT JUMPDEST POP PUSH2 0x1BE PUSH2 0x6C4 JUMP JUMPDEST PUSH1 0x40 MLOAD PUSH2 0x1CB SWAP2 SWAP1 PUSH2 0xB3E JUMP JUMPDEST PUSH1 0x40 MLOAD DUP1 SWAP2 SUB SWAP1 RETURN JUMPDEST PUSH2 0x1EE PUSH1 0x4 DUP1 CALLDATASIZE SUB DUP2 ADD SWAP1 PUSH2 0x1E9 SWAP2 SWAP1 PUSH2 0xBE6 JUMP JUMPDEST PUSH2 0x6CA JUMP JUMPDEST STOP JUMPDEST PUSH1 0x2 SLOAD DUP2 JUMP JUMPDEST SELFBALANCE PUSH1 0x3 DUP2 SWAP1 SSTORE POP JUMP JUMPDEST CALLER PUSH1 0x4 PUSH1 0x0 CALLER PUSH20 0xFFFFFFFFFFFFFFFFFFFFFFFFFFFFFFFFFFFFFFFF AND PUSH20 0xFFFFFFFFFFFFFFFFFFFFFFFFFFFFFFFFFFFFFFFF AND DUP2 MSTORE PUSH1 0x20 ADD SWAP1 DUP2 MSTORE PUSH1 0x20 ADD PUSH1 0x0 KECCAK256 PUSH1 0x0 SWAP1 SLOAD SWAP1 PUSH2 0x100 EXP SWAP1 DIV PUSH1 0xFF AND PUSH2 0x28C JUMPI PUSH1 0x40 MLOAD PUSH32 0x8C379A000000000000000000000000000000000000000000000000000000000 DUP2 MSTORE PUSH1 0x4 ADD PUSH2 0x283 SWAP1 PUSH2 0xC96 JUMP JUMPDEST PUSH1 0x40 MLOAD DUP1 SWAP2 SUB SWAP1 REVERT JUMPDEST PUSH1 0x0 PUSH2 0x296 PUSH2 0x4B7 JUMP JUMPDEST SWAP1 POP PUSH1 0x0 DUP2 GT ISZERO PUSH2 0x2DC JUMPI PUSH1 0x40 MLOAD PUSH32 0x8C379A000000000000000000000000000000000000000000000000000000000 DUP2 MSTORE PUSH1 0x4 ADD PUSH2 0x2D3 SWAP1 PUSH2 0xD02 JUMP JUMPDEST PUSH1 0x40 MLOAD DUP1 SWAP2 SUB SWAP1 REVERT JUMPDEST PUSH1 0x0 PUSH1 0x5 PUSH1 0x0 CALLER PUSH20 0xFFFFFFFFFFFFFFFFFFFFFFFFFFFFFFFFFFFFFFFF AND PUSH20 0xFFFFFFFFFFFFFFFFFFFFFFFFFFFFFFFFFFFFFFFF AND DUP2 MSTORE PUSH1 0x20 ADD SWAP1 DUP2 MSTORE PUSH1 0x20 ADD PUSH1 0x0 KECCAK256 SLOAD SWAP1 POP PUSH1 0x0 PUSH1 0x5 PUSH1 0x0 DUP1 PUSH1 0x0 SWAP1 SLOAD SWAP1 PUSH2 0x100 EXP SWAP1 DIV PUSH20 0xFFFFFFFFFFFFFFFFFFFFFFFFFFFFFFFFFFFFFFFF AND PUSH20 0xFFFFFFFFFFFFFFFFFFFFFFFFFFFFFFFFFFFFFFFF AND PUSH20 0xFFFFFFFFFFFFFFFFFFFFFFFFFFFFFFFFFFFFFFFF AND DUP2 MSTORE PUSH1 0x20 ADD SWAP1 DUP2 MSTORE PUSH1 0x20 ADD PUSH1 0x0 KECCAK256 DUP2 SWAP1 SSTORE POP CALLER PUSH20 0xFFFFFFFFFFFFFFFFFFFFFFFFFFFFFFFFFFFFFFFF AND PUSH2 0x8FC DUP3 SWAP1 DUP2 ISZERO MUL SWAP1 PUSH1 0x40 MLOAD PUSH1 0x0 PUSH1 0x40 MLOAD DUP1 DUP4 SUB DUP2 DUP6 DUP9 DUP9 CALL SWAP4 POP POP POP POP ISZERO DUP1 ISZERO PUSH2 0x3CC JUMPI RETURNDATASIZE PUSH1 0x0 DUP1 RETURNDATACOPY RETURNDATASIZE PUSH1 0x0 REVERT JUMPDEST POP POP POP POP JUMP JUMPDEST CALLER PUSH1 0x4 PUSH1 0x0 CALLER PUSH20 0xFFFFFFFFFFFFFFFFFFFFFFFFFFFFFFFFFFFFFFFF AND PUSH20 0xFFFFFFFFFFFFFFFFFFFFFFFFFFFFFFFFFFFFFFFF AND DUP2 MSTORE PUSH1 0x20 ADD SWAP1 DUP2 MSTORE PUSH1 0x20 ADD PUSH1 0x0 KECCAK256 PUSH1 0x0 SWAP1 SLOAD SWAP1 PUSH2 0x100 EXP SWAP1 DIV PUSH1 0xFF AND PUSH2 0x45F JUMPI PUSH1 0x40 MLOAD PUSH32 0x8C379A000000000000000000000000000000000000000000000000000000000 DUP2 MSTORE PUSH1 0x4 ADD PUSH2 0x456 SWAP1 PUSH2 0xC96 JUMP JUMPDEST PUSH1 0x40 MLOAD DUP1 SWAP2 SUB SWAP1 REVERT JUMPDEST PUSH2 0x468 CALLER PUSH2 0x826 JUMP JUMPDEST TIMESTAMP PUSH1 0x1 DUP2 SWAP1 SSTORE POP PUSH1 0x1 SLOAD PUSH1 0x2 PUSH1 0x0 DUP3 DUP3 SLOAD PUSH2 0x483 SWAP2 SWAP1 PUSH2 0xD51 JUMP JUMPDEST SWAP3 POP POP DUP2 SWAP1 SSTORE POP POP JUMP JUMPDEST PUSH1 0x1 SLOAD DUP2 JUMP JUMPDEST PUSH1 0x0 DUP1 SLOAD SWAP1 PUSH2 0x100 EXP SWAP1 DIV PUSH20 0xFFFFFFFFFFFFFFFFFFFFFFFFFFFFFFFFFFFFFFFF AND DUP2 JUMP JUMPDEST PUSH1 0x0 DUP1 PUSH3 0x15180 PUSH1 0x1 SLOAD PUSH1 0x2 SLOAD PUSH2 0x4CE SWAP2 SWAP1 PUSH2 0xD85 JUMP JUMPDEST PUSH2 0x4D8 SWAP2 SWAP1 PUSH2 0xDE8 JUMP JUMPDEST SWAP1 POP DUP1 SWAP2 POP POP SWAP1 JUMP JUMPDEST CALLER DUP1 PUSH20 0xFFFFFFFFFFFFFFFFFFFFFFFFFFFFFFFFFFFFFFFF AND PUSH1 0x0 DUP1 SLOAD SWAP1 PUSH2 0x100 EXP SWAP1 DIV PUSH20 0xFFFFFFFFFFFFFFFFFFFFFFFFFFFFFFFFFFFFFFFF AND PUSH20 0xFFFFFFFFFFFFFFFFFFFFFFFFFFFFFFFFFFFFFFFF AND EQ PUSH2 0x570 JUMPI PUSH1 0x40 MLOAD PUSH32 0x8C379A000000000000000000000000000000000000000000000000000000000 DUP2 MSTORE PUSH1 0x4 ADD PUSH2 0x567 SWAP1 PUSH2 0xE8B JUMP JUMPDEST PUSH1 0x40 MLOAD DUP1 SWAP2 SUB SWAP1 REVERT JUMPDEST PUSH1 0x0 PUSH1 0x5 PUSH1 0x0 DUP1 PUSH1 0x0 SWAP1 SLOAD SWAP1 PUSH2 0x100 EXP SWAP1 DIV PUSH20 0xFFFFFFFFFFFFFFFFFFFFFFFFFFFFFFFFFFFFFFFF AND PUSH20 0xFFFFFFFFFFFFFFFFFFFFFFFFFFFFFFFFFFFFFFFF AND PUSH20 0xFFFFFFFFFFFFFFFFFFFFFFFFFFFFFFFFFFFFFFFF AND DUP2 MSTORE PUSH1 0x20 ADD SWAP1 DUP2 MSTORE PUSH1 0x20 ADD PUSH1 0x0 KECCAK256 SLOAD LT ISZERO PUSH2 0x614 JUMPI PUSH1 0x40 MLOAD PUSH32 0x8C379A000000000000000000000000000000000000000000000000000000000 DUP2 MSTORE PUSH1 0x4 ADD PUSH2 0x60B SWAP1 PUSH2 0xD02 JUMP JUMPDEST PUSH1 0x40 MLOAD DUP1 SWAP2 SUB SWAP1 REVERT JUMPDEST PUSH1 0x0 PUSH1 0x5 PUSH1 0x0 DUP1 PUSH1 0x0 SWAP1 SLOAD SWAP1 PUSH2 0x100 EXP SWAP1 DIV PUSH20 0xFFFFFFFFFFFFFFFFFFFFFFFFFFFFFFFFFFFFFFFF AND PUSH20 0xFFFFFFFFFFFFFFFFFFFFFFFFFFFFFFFFFFFFFFFF AND PUSH20 0xFFFFFFFFFFFFFFFFFFFFFFFFFFFFFFFFFFFFFFFF AND DUP2 MSTORE PUSH1 0x20 ADD SWAP1 DUP2 MSTORE PUSH1 0x20 ADD PUSH1 0x0 KECCAK256 DUP2 SWAP1 SSTORE POP CALLER PUSH20 0xFFFFFFFFFFFFFFFFFFFFFFFFFFFFFFFFFFFFFFFF AND PUSH2 0x8FC SELFBALANCE SWAP1 DUP2 ISZERO MUL SWAP1 PUSH1 0x40 MLOAD PUSH1 0x0 PUSH1 0x40 MLOAD DUP1 DUP4 SUB DUP2 DUP6 DUP9 DUP9 CALL SWAP4 POP POP POP POP ISZERO DUP1 ISZERO PUSH2 0x6C0 JUMPI RETURNDATASIZE PUSH1 0x0 DUP1 RETURNDATACOPY RETURNDATASIZE PUSH1 0x0 REVERT JUMPDEST POP POP JUMP JUMPDEST PUSH1 0x3 SLOAD DUP2 JUMP JUMPDEST DUP1 CALLVALUE EQ PUSH2 0x70C JUMPI PUSH1 0x40 MLOAD PUSH32 0x8C379A000000000000000000000000000000000000000000000000000000000 DUP2 MSTORE PUSH1 0x4 ADD PUSH2 0x703 SWAP1 PUSH2 0xF1D JUMP JUMPDEST PUSH1 0x40 MLOAD DUP1 SWAP2 SUB SWAP1 REVERT JUMPDEST PUSH7 0x1F438DAA06000 DUP2 GT PUSH2 0x726 PUSH7 0x1F438DAA06000 PUSH2 0x904 JUMP JUMPDEST PUSH1 0x40 MLOAD PUSH1 0x20 ADD PUSH2 0x736 SWAP2 SWAP1 PUSH2 0x1046 JUMP JUMPDEST PUSH1 0x40 MLOAD PUSH1 0x20 DUP2 DUP4 SUB SUB DUP2 MSTORE SWAP1 PUSH1 0x40 MSTORE SWAP1 PUSH2 0x786 JUMPI PUSH1 0x40 MLOAD PUSH32 0x8C379A000000000000000000000000000000000000000000000000000000000 DUP2 MSTORE PUSH1 0x4 ADD PUSH2 0x77D SWAP2 SWAP1 PUSH2 0x10C1 JUMP JUMPDEST PUSH1 0x40 MLOAD DUP1 SWAP2 SUB SWAP1 REVERT JUMPDEST POP PUSH1 0x1 PUSH1 0x4 PUSH1 0x0 CALLER PUSH20 0xFFFFFFFFFFFFFFFFFFFFFFFFFFFFFFFFFFFFFFFF AND PUSH20 0xFFFFFFFFFFFFFFFFFFFFFFFFFFFFFFFFFFFFFFFF AND DUP2 MSTORE PUSH1 0x20 ADD SWAP1 DUP2 MSTORE PUSH1 0x20 ADD PUSH1 0x0 KECCAK256 PUSH1 0x0 PUSH2 0x100 EXP DUP2 SLOAD DUP2 PUSH1 0xFF MUL NOT AND SWAP1 DUP4 ISZERO ISZERO MUL OR SWAP1 SSTORE POP DUP1 PUSH1 0x5 PUSH1 0x0 CALLER PUSH20 0xFFFFFFFFFFFFFFFFFFFFFFFFFFFFFFFFFFFFFFFF AND PUSH20 0xFFFFFFFFFFFFFFFFFFFFFFFFFFFFFFFFFFFFFFFF AND DUP2 MSTORE PUSH1 0x20 ADD SWAP1 DUP2 MSTORE PUSH1 0x20 ADD PUSH1 0x0 KECCAK256 DUP2 SWAP1 SSTORE POP POP JUMP JUMPDEST PUSH7 0x1F438DAA06000 PUSH1 0x5 PUSH1 0x0 DUP4 PUSH20 0xFFFFFFFFFFFFFFFFFFFFFFFFFFFFFFFFFFFFFFFF AND PUSH20 0xFFFFFFFFFFFFFFFFFFFFFFFFFFFFFFFFFFFFFFFF AND DUP2 MSTORE PUSH1 0x20 ADD SWAP1 DUP2 MSTORE PUSH1 0x20 ADD PUSH1 0x0 KECCAK256 PUSH1 0x0 DUP3 DUP3 SLOAD PUSH2 0x87C SWAP2 SWAP1 PUSH2 0xD85 JUMP JUMPDEST SWAP3 POP POP DUP2 SWAP1 SSTORE POP PUSH7 0x1F438DAA06000 PUSH1 0x5 PUSH1 0x0 DUP1 PUSH1 0x0 SWAP1 SLOAD SWAP1 PUSH2 0x100 EXP SWAP1 DIV PUSH20 0xFFFFFFFFFFFFFFFFFFFFFFFFFFFFFFFFFFFFFFFF AND PUSH20 0xFFFFFFFFFFFFFFFFFFFFFFFFFFFFFFFFFFFFFFFF AND PUSH20 0xFFFFFFFFFFFFFFFFFFFFFFFFFFFFFFFFFFFFFFFF AND DUP2 MSTORE PUSH1 0x20 ADD SWAP1 DUP2 MSTORE PUSH1 0x20 ADD PUSH1 0x0 KECCAK256 PUSH1 0x0 DUP3 DUP3 SLOAD PUSH2 0x8FA SWAP2 SWAP1 PUSH2 0xD51 JUMP JUMPDEST SWAP3 POP POP DUP2 SWAP1 SSTORE POP POP JUMP JUMPDEST PUSH1 0x60 PUSH1 0x0 PUSH1 0x1 PUSH2 0x913 DUP5 PUSH2 0x9D2 JUMP JUMPDEST ADD SWAP1 POP PUSH1 0x0 DUP2 PUSH8 0xFFFFFFFFFFFFFFFF DUP2 GT ISZERO PUSH2 0x932 JUMPI PUSH2 0x931 PUSH2 0x10E3 JUMP JUMPDEST JUMPDEST PUSH1 0x40 MLOAD SWAP1 DUP1 DUP3 MSTORE DUP1 PUSH1 0x1F ADD PUSH1 0x1F NOT AND PUSH1 0x20 ADD DUP3 ADD PUSH1 0x40 MSTORE DUP1 ISZERO PUSH2 0x964 JUMPI DUP2 PUSH1 0x20 ADD PUSH1 0x1 DUP3 MUL DUP1 CALLDATASIZE DUP4 CALLDATACOPY DUP1 DUP3 ADD SWAP2 POP POP SWAP1 POP JUMPDEST POP SWAP1 POP PUSH1 0x0 DUP3 PUSH1 0x20 ADD DUP3 ADD SWAP1 POP JUMPDEST PUSH1 0x1 ISZERO PUSH2 0x9C7 JUMPI DUP1 DUP1 PUSH1 0x1 SWAP1 SUB SWAP2 POP POP PUSH32 0x3031323334353637383961626364656600000000000000000000000000000000 PUSH1 0xA DUP7 MOD BYTE DUP2 MSTORE8 PUSH1 0xA DUP6 DUP2 PUSH2 0x9BB JUMPI PUSH2 0x9BA PUSH2 0xDB9 JUMP JUMPDEST JUMPDEST DIV SWAP5 POP PUSH1 0x0 DUP6 SUB PUSH2 0x972 JUMPI JUMPDEST DUP2 SWAP4 POP POP POP POP SWAP2 SWAP1 POP JUMP JUMPDEST PUSH1 0x0 DUP1 PUSH1 0x0 SWAP1 POP PUSH27 0x184F03E93FF9F4DAA797ED6E38ED64BF6A1F010000000000000000 DUP4 LT PUSH2 0xA30 JUMPI PUSH27 0x184F03E93FF9F4DAA797ED6E38ED64BF6A1F010000000000000000 DUP4 DUP2 PUSH2 0xA26 JUMPI PUSH2 0xA25 PUSH2 0xDB9 JUMP JUMPDEST JUMPDEST DIV SWAP3 POP PUSH1 0x40 DUP2 ADD SWAP1 POP JUMPDEST PUSH14 0x4EE2D6D415B85ACEF8100000000 DUP4 LT PUSH2 0xA6D JUMPI PUSH14 0x4EE2D6D415B85ACEF8100000000 DUP4 DUP2 PUSH2 0xA63 JUMPI PUSH2 0xA62 PUSH2 0xDB9 JUMP JUMPDEST JUMPDEST DIV SWAP3 POP PUSH1 0x20 DUP2 ADD SWAP1 POP JUMPDEST PUSH7 0x2386F26FC10000 DUP4 LT PUSH2 0xA9C JUMPI PUSH7 0x2386F26FC10000 DUP4 DUP2 PUSH2 0xA92 JUMPI PUSH2 0xA91 PUSH2 0xDB9 JUMP JUMPDEST JUMPDEST DIV SWAP3 POP PUSH1 0x10 DUP2 ADD SWAP1 POP JUMPDEST PUSH4 0x5F5E100 DUP4 LT PUSH2 0xAC5 JUMPI PUSH4 0x5F5E100 DUP4 DUP2 PUSH2 0xABB JUMPI PUSH2 0xABA PUSH2 0xDB9 JUMP JUMPDEST JUMPDEST DIV SWAP3 POP PUSH1 0x8 DUP2 ADD SWAP1 POP JUMPDEST PUSH2 0x2710 DUP4 LT PUSH2 0xAEA JUMPI PUSH2 0x2710 DUP4 DUP2 PUSH2 0xAE0 JUMPI PUSH2 0xADF PUSH2 0xDB9 JUMP JUMPDEST JUMPDEST DIV SWAP3 POP PUSH1 0x4 DUP2 ADD SWAP1 POP JUMPDEST PUSH1 0x64 DUP4 LT PUSH2 0xB0D JUMPI PUSH1 0x64 DUP4 DUP2 PUSH2 0xB03 JUMPI PUSH2 0xB02 PUSH2 0xDB9 JUMP JUMPDEST JUMPDEST DIV SWAP3 POP PUSH1 0x2 DUP2 ADD SWAP1 POP JUMPDEST PUSH1 0xA DUP4 LT PUSH2 0xB1C JUMPI PUSH1 0x1 DUP2 ADD SWAP1 POP JUMPDEST DUP1 SWAP2 POP POP SWAP2 SWAP1 POP JUMP JUMPDEST PUSH1 0x0 DUP2 SWAP1 POP SWAP2 SWAP1 POP JUMP JUMPDEST PUSH2 0xB38 DUP2 PUSH2 0xB25 JUMP JUMPDEST DUP3 MSTORE POP POP JUMP JUMPDEST PUSH1 0x0 PUSH1 0x20 DUP3 ADD SWAP1 POP PUSH2 0xB53 PUSH1 0x0 DUP4 ADD DUP5 PUSH2 0xB2F JUMP JUMPDEST SWAP3 SWAP2 POP POP JUMP JUMPDEST PUSH1 0x0 PUSH20 0xFFFFFFFFFFFFFFFFFFFFFFFFFFFFFFFFFFFFFFFF DUP3 AND SWAP1 POP SWAP2 SWAP1 POP JUMP JUMPDEST PUSH1 0x0 PUSH2 0xB84 DUP3 PUSH2 0xB59 JUMP JUMPDEST SWAP1 POP SWAP2 SWAP1 POP JUMP JUMPDEST PUSH2 0xB94 DUP2 PUSH2 0xB79 JUMP JUMPDEST DUP3 MSTORE POP POP JUMP JUMPDEST PUSH1 0x0 PUSH1 0x20 DUP3 ADD SWAP1 POP PUSH2 0xBAF PUSH1 0x0 DUP4 ADD DUP5 PUSH2 0xB8B JUMP JUMPDEST SWAP3 SWAP2 POP POP JUMP JUMPDEST PUSH1 0x0 DUP1 REVERT JUMPDEST PUSH2 0xBC3 DUP2 PUSH2 0xB25 JUMP JUMPDEST DUP2 EQ PUSH2 0xBCE JUMPI PUSH1 0x0 DUP1 REVERT JUMPDEST POP JUMP JUMPDEST PUSH1 0x0 DUP2 CALLDATALOAD SWAP1 POP PUSH2 0xBE0 DUP2 PUSH2 0xBBA JUMP JUMPDEST SWAP3 SWAP2 POP POP JUMP JUMPDEST PUSH1 0x0 PUSH1 0x20 DUP3 DUP5 SUB SLT ISZERO PUSH2 0xBFC JUMPI PUSH2 0xBFB PUSH2 0xBB5 JUMP JUMPDEST JUMPDEST PUSH1 0x0 PUSH2 0xC0A DUP5 DUP3 DUP6 ADD PUSH2 0xBD1 JUMP JUMPDEST SWAP2 POP POP SWAP3 SWAP2 POP POP JUMP JUMPDEST PUSH1 0x0 DUP3 DUP3 MSTORE PUSH1 0x20 DUP3 ADD SWAP1 POP SWAP3 SWAP2 POP POP JUMP JUMPDEST PUSH32 0x596F752068617665206E6F7420706572666F726D656420616E79207472616E73 PUSH1 0x0 DUP3 ADD MSTORE PUSH32 0x616374696F6E206F6E207468697320736D61727420636F6E7472616374210000 PUSH1 0x20 DUP3 ADD MSTORE POP JUMP JUMPDEST PUSH1 0x0 PUSH2 0xC80 PUSH1 0x3E DUP4 PUSH2 0xC13 JUMP JUMPDEST SWAP2 POP PUSH2 0xC8B DUP3 PUSH2 0xC24 JUMP JUMPDEST PUSH1 0x40 DUP3 ADD SWAP1 POP SWAP2 SWAP1 POP JUMP JUMPDEST PUSH1 0x0 PUSH1 0x20 DUP3 ADD SWAP1 POP DUP2 DUP2 SUB PUSH1 0x0 DUP4 ADD MSTORE PUSH2 0xCAF DUP2 PUSH2 0xC73 JUMP JUMPDEST SWAP1 POP SWAP2 SWAP1 POP JUMP JUMPDEST PUSH32 0x596F75722066756E647320617265207374696C6C206C6F636B65640000000000 PUSH1 0x0 DUP3 ADD MSTORE POP JUMP JUMPDEST PUSH1 0x0 PUSH2 0xCEC PUSH1 0x1B DUP4 PUSH2 0xC13 JUMP JUMPDEST SWAP2 POP PUSH2 0xCF7 DUP3 PUSH2 0xCB6 JUMP JUMPDEST PUSH1 0x20 DUP3 ADD SWAP1 POP SWAP2 SWAP1 POP JUMP JUMPDEST PUSH1 0x0 PUSH1 0x20 DUP3 ADD SWAP1 POP DUP2 DUP2 SUB PUSH1 0x0 DUP4 ADD MSTORE PUSH2 0xD1B DUP2 PUSH2 0xCDF JUMP JUMPDEST SWAP1 POP SWAP2 SWAP1 POP JUMP JUMPDEST PUSH32 0x4E487B7100000000000000000000000000000000000000000000000000000000 PUSH1 0x0 MSTORE PUSH1 0x11 PUSH1 0x4 MSTORE PUSH1 0x24 PUSH1 0x0 REVERT JUMPDEST PUSH1 0x0 PUSH2 0xD5C DUP3 PUSH2 0xB25 JUMP JUMPDEST SWAP2 POP PUSH2 0xD67 DUP4 PUSH2 0xB25 JUMP JUMPDEST SWAP3 POP DUP3 DUP3 ADD SWAP1 POP DUP1 DUP3 GT ISZERO PUSH2 0xD7F JUMPI PUSH2 0xD7E PUSH2 0xD22 JUMP JUMPDEST JUMPDEST SWAP3 SWAP2 POP POP JUMP JUMPDEST PUSH1 0x0 PUSH2 0xD90 DUP3 PUSH2 0xB25 JUMP JUMPDEST SWAP2 POP PUSH2 0xD9B DUP4 PUSH2 0xB25 JUMP JUMPDEST SWAP3 POP DUP3 DUP3 SUB SWAP1 POP DUP2 DUP2 GT ISZERO PUSH2 0xDB3 JUMPI PUSH2 0xDB2 PUSH2 0xD22 JUMP JUMPDEST JUMPDEST SWAP3 SWAP2 POP POP JUMP JUMPDEST PUSH32 0x4E487B7100000000000000000000000000000000000000000000000000000000 PUSH1 0x0 MSTORE PUSH1 0x12 PUSH1 0x4 MSTORE PUSH1 0x24 PUSH1 0x0 REVERT JUMPDEST PUSH1 0x0 PUSH2 0xDF3 DUP3 PUSH2 0xB25 JUMP JUMPDEST SWAP2 POP PUSH2 0xDFE DUP4 PUSH2 0xB25 JUMP JUMPDEST SWAP3 POP DUP3 PUSH2 0xE0E JUMPI PUSH2 0xE0D PUSH2 0xDB9 JUMP JUMPDEST JUMPDEST DUP3 DUP3 DIV SWAP1 POP SWAP3 SWAP2 POP POP JUMP JUMPDEST PUSH32 0x546869732066656174757265206973207265737472696374656420746F207468 PUSH1 0x0 DUP3 ADD MSTORE PUSH32 0x65206F776E657221000000000000000000000000000000000000000000000000 PUSH1 0x20 DUP3 ADD MSTORE POP JUMP JUMPDEST PUSH1 0x0 PUSH2 0xE75 PUSH1 0x28 DUP4 PUSH2 0xC13 JUMP JUMPDEST SWAP2 POP PUSH2 0xE80 DUP3 PUSH2 0xE19 JUMP JUMPDEST PUSH1 0x40 DUP3 ADD SWAP1 POP SWAP2 SWAP1 POP JUMP JUMPDEST PUSH1 0x0 PUSH1 0x20 DUP3 ADD SWAP1 POP DUP2 DUP2 SUB PUSH1 0x0 DUP4 ADD MSTORE PUSH2 0xEA4 DUP2 PUSH2 0xE68 JUMP JUMPDEST SWAP1 POP SWAP2 SWAP1 POP JUMP JUMPDEST PUSH32 0x54686520616D6F756E7420696E64696361746564206D7573742062652073616D PUSH1 0x0 DUP3 ADD MSTORE PUSH32 0x6520617320746865207472616E736665722076616C7565000000000000000000 PUSH1 0x20 DUP3 ADD MSTORE POP JUMP JUMPDEST PUSH1 0x0 PUSH2 0xF07 PUSH1 0x37 DUP4 PUSH2 0xC13 JUMP JUMPDEST SWAP2 POP PUSH2 0xF12 DUP3 PUSH2 0xEAB JUMP JUMPDEST PUSH1 0x40 DUP3 ADD SWAP1 POP SWAP2 SWAP1 POP JUMP JUMPDEST PUSH1 0x0 PUSH1 0x20 DUP3 ADD SWAP1 POP DUP2 DUP2 SUB PUSH1 0x0 DUP4 ADD MSTORE PUSH2 0xF36 DUP2 PUSH2 0xEFA JUMP JUMPDEST SWAP1 POP SWAP2 SWAP1 POP JUMP JUMPDEST PUSH1 0x0 DUP2 SWAP1 POP SWAP3 SWAP2 POP POP JUMP JUMPDEST PUSH32 0x54686520616D6F756E7420796F752063616E206C6F636B206D75737420657865 PUSH1 0x0 DUP3 ADD MSTORE PUSH32 0x6564200000000000000000000000000000000000000000000000000000000000 PUSH1 0x20 DUP3 ADD MSTORE POP JUMP JUMPDEST PUSH1 0x0 PUSH2 0xFA4 PUSH1 0x23 DUP4 PUSH2 0xF3D JUMP JUMPDEST SWAP2 POP PUSH2 0xFAF DUP3 PUSH2 0xF48 JUMP JUMPDEST PUSH1 0x23 DUP3 ADD SWAP1 POP SWAP2 SWAP1 POP JUMP JUMPDEST PUSH1 0x0 DUP2 MLOAD SWAP1 POP SWAP2 SWAP1 POP JUMP JUMPDEST PUSH1 0x0 JUMPDEST DUP4 DUP2 LT ISZERO PUSH2 0xFE3 JUMPI DUP1 DUP3 ADD MLOAD DUP2 DUP5 ADD MSTORE PUSH1 0x20 DUP2 ADD SWAP1 POP PUSH2 0xFC8 JUMP JUMPDEST PUSH1 0x0 DUP5 DUP5 ADD MSTORE POP POP POP POP JUMP JUMPDEST PUSH1 0x0 PUSH2 0xFFA DUP3 PUSH2 0xFBA JUMP JUMPDEST PUSH2 0x1004 DUP2 DUP6 PUSH2 0xF3D JUMP JUMPDEST SWAP4 POP PUSH2 0x1014 DUP2 DUP6 PUSH1 0x20 DUP7 ADD PUSH2 0xFC5 JUMP JUMPDEST DUP1 DUP5 ADD SWAP2 POP POP SWAP3 SWAP2 POP POP JUMP JUMPDEST PUSH32 0x5468652062696C6C20666F72207573696E67207468697320736572766963652E DUP2 MSTORE POP JUMP JUMPDEST PUSH1 0x0 PUSH2 0x1051 DUP3 PUSH2 0xF97 JUMP JUMPDEST SWAP2 POP PUSH2 0x105D DUP3 DUP5 PUSH2 0xFEF JUMP JUMPDEST SWAP2 POP PUSH2 0x1068 DUP3 PUSH2 0x1020 JUMP JUMPDEST PUSH1 0x20 DUP3 ADD SWAP2 POP DUP2 SWAP1 POP SWAP3 SWAP2 POP POP JUMP JUMPDEST PUSH1 0x0 PUSH1 0x1F NOT PUSH1 0x1F DUP4 ADD AND SWAP1 POP SWAP2 SWAP1 POP JUMP JUMPDEST PUSH1 0x0 PUSH2 0x1093 DUP3 PUSH2 0xFBA JUMP JUMPDEST PUSH2 0x109D DUP2 DUP6 PUSH2 0xC13 JUMP JUMPDEST SWAP4 POP PUSH2 0x10AD DUP2 DUP6 PUSH1 0x20 DUP7 ADD PUSH2 0xFC5 JUMP JUMPDEST PUSH2 0x10B6 DUP2 PUSH2 0x1077 JUMP JUMPDEST DUP5 ADD SWAP2 POP POP SWAP3 SWAP2 POP POP JUMP JUMPDEST PUSH1 0x0 PUSH1 0x20 DUP3 ADD SWAP1 POP DUP2 DUP2 SUB PUSH1 0x0 DUP4 ADD MSTORE PUSH2 0x10DB DUP2 DUP5 PUSH2 0x1088 JUMP JUMPDEST SWAP1 POP SWAP3 SWAP2 POP POP JUMP JUMPDEST PUSH32 0x4E487B7100000000000000000000000000000000000000000000000000000000 PUSH1 0x0 MSTORE PUSH1 0x41 PUSH1 0x4 MSTORE PUSH1 0x24 PUSH1 0x0 REVERT INVALID LOG2 PUSH5 0x6970667358 0x22 SLT KECCAK256 0xD6 ISZERO 0xCD RETURN SWAP16 KECCAK256 0xAF SLOAD BASEFEE 0xAD SSTORE 0xB9 0xD 0x1F COINBASE PUSH25 0x6B536E5DB64BAED11D4615292809842264736F6C6343000811 STOP CALLER "
				},
				"gasEstimates": {
					"creation": {
						"codeDepositCost": "884800",
						"executionCost": "47294",
						"totalCost": "932094"
					},
					"external": {
						"LockFunds()": "infinite",
						"balance()": "2495",
						"getBalance()": "22283",
						"howManyDaysLeft()": "infinite",
						"lockTime()": "2430",
						"owner()": "2511",
						"pay(uint256)": "infinite",
						"startTime()": "2518",
						"withDrawTax()": "infinite",
						"withdraw()": "infinite"
					},
					"internal": {
						"taxLockedFunds(address)": "infinite"
					}
				},
				"methodIdentifiers": {
					"LockFunds()": "6faf6445",
					"balance()": "b69ef8a8",
					"getBalance()": "12065fe0",
					"howManyDaysLeft()": "9f2e606f",
					"lockTime()": "0d668087",
					"owner()": "8da5cb5b",
					"pay(uint256)": "c290d691",
					"startTime()": "78e97925",
					"withDrawTax()": "b5356f7e",
					"withdraw()": "3ccfd60b"
				}
			},
			"storageLayout": {
				"storage": [
					{
						"astId": 1204,
						"contract": "contracts/TimeLock.sol:TimeLock",
						"label": "owner",
						"offset": 0,
						"slot": "0",
						"type": "t_address"
					},
					{
						"astId": 1206,
						"contract": "contracts/TimeLock.sol:TimeLock",
						"label": "startTime",
						"offset": 0,
						"slot": "1",
						"type": "t_uint256"
					},
					{
						"astId": 1216,
						"contract": "contracts/TimeLock.sol:TimeLock",
						"label": "lockTime",
						"offset": 0,
						"slot": "2",
						"type": "t_uint256"
					},
					{
						"astId": 1218,
						"contract": "contracts/TimeLock.sol:TimeLock",
						"label": "balance",
						"offset": 0,
						"slot": "3",
						"type": "t_uint256"
					},
					{
						"astId": 1234,
						"contract": "contracts/TimeLock.sol:TimeLock",
						"label": "hasAnAccount",
						"offset": 0,
						"slot": "4",
						"type": "t_mapping(t_address,t_bool)"
					},
					{
						"astId": 1238,
						"contract": "contracts/TimeLock.sol:TimeLock",
						"label": "addressBalance",
						"offset": 0,
						"slot": "5",
						"type": "t_mapping(t_address,t_uint256)"
					}
				],
				"types": {
					"t_address": {
						"encoding": "inplace",
						"label": "address",
						"numberOfBytes": "20"
					},
					"t_bool": {
						"encoding": "inplace",
						"label": "bool",
						"numberOfBytes": "1"
					},
					"t_mapping(t_address,t_bool)": {
						"encoding": "mapping",
						"key": "t_address",
						"label": "mapping(address => bool)",
						"numberOfBytes": "32",
						"value": "t_bool"
					},
					"t_mapping(t_address,t_uint256)": {
						"encoding": "mapping",
						"key": "t_address",
						"label": "mapping(address => uint256)",
						"numberOfBytes": "32",
						"value": "t_uint256"
					},
					"t_uint256": {
						"encoding": "inplace",
						"label": "uint256",
						"numberOfBytes": "32"
					}
				}
			},
			"userdoc": {
				"kind": "user",
				"methods": {},
				"version": 1
			}
		}
	}
}